:020000040800F2
:100000000000022001300008C52800081D02000879
:10001000CD280008D5280008DD28000800000000D1
:1000200000000000000000000000000091540108E2
:10003000E528000800000000D1560108F528000856
:10004000513000085130000851300008513000088C
:10005000513000085130000851300008513000087C
:10006000513000085130000851300008513000086C
:10007000513000085130000851300008513000085C
:10008000513000085130000851300008513000084C
:10009000513000085130000851300008513000083C
:1000A000513000085130000851300008513000082C
:1000B0005130000851300008112900085130000863
:1000C000513000085130000851300008513000080C
:1000D000513000082529000851300008513000082F
:1000E00051300008513000085130000851300008EC
:1000F00051300008513000085130000851300008DC
:1001000051300008392900085130000851300008EA
:1001100051300008513000085130000851300008BB
:100120005130000851300008513000084D290008B6
:1001300051300008000000000000000051300008AD
:100140005130000851300008513000086129000882
:10015000513000087529000851300008513000085E
:10016000513000085130000851300008513000086B
:10017000513000085130000800000000000000006D
:08018000513000085130000865
:1001C00010B5054C237833B9044B13B10448AFF391
:1001D00000800123237010BD0812002000000000E1
:1001E00058300308084B10B51BB108490848AFF355
:1001F00000800848036803B910BD074B002BFBD0F3
:10020000BDE81040184700BF000000000C1200209D
:1002100058300308041200200000000070466946B0
:100220001FF02AFAFFF7FEFF81F0004102E000BF55
:1002300083F0004330B54FEA41044FEA430594EAA6
:10024000050F08BF90EA020F1FBF54EA000C55EAE1
:10025000020C7FEA645C7FEA655C00F0E2804FEAB2
:100260005454D4EB5555B8BF6D420CDD2C4480EA94
:10027000020281EA030382EA000083EA010180EAC4
:10028000020281EA0303362D88BF30BD11F0004F12
:100290004FEA01314FF4801C4CEA113102D0404248
:1002A00061EB410113F0004F4FEA03334CEA133383
:1002B00002D0524263EB430394EA050F00F0A7809B
:1002C000A4F10104D5F1200E0DDB02FA0EFC22FA96
:1002D00005F2801841F1000103FA0EF2801843FA8A
:1002E00005F359410EE0A5F120050EF1200E012A7B
:1002F00003FA0EFC28BF4CF0020C43FA05F3C018B9
:1003000051EBE37101F0004507D54FF0000EDCF131
:10031000000C7EEB00006EEB0101B1F5801F1BD3DA
:10032000B1F5001F0CD349085FEA30004FEA3C0CDE
:1003300004F101044FEA445212F5800F80F09A80D4
:10034000BCF1004F08BF5FEA500C50F1000041EBD8
:10035000045141EA050130BD5FEA4C0C404141EBDC
:10036000010111F4801FA4F10104E9D191F0000F03
:1003700004BF01460020B1FA81F308BF2033A3F186
:100380000B03B3F120020CDA0C3208DD02F1140C7D
:10039000C2F10C0201FA0CF021FA02F10CE002F1B8
:1003A0001402D8BFC2F1200C01FA02F120FA0CFCB1
:1003B000DCBF41EA0C019040E41AA2BF01EB0451FA
:1003C000294330BD6FEA04041F3C1CDA0C340EDCF8
:1003D00004F11404C4F1200220FA04F001FA02F33B
:1003E00040EA030021FA04F345EA030130BDC4F1F9
:1003F0000C04C4F1200220FA02F001FA04F340EAEE
:100400000300294630BD21FA04F0294630BD94F09E
:10041000000F83F4801306BF81F480110134013D85
:100420004EE77FEA645C18BF7FEA655C29D094EAF6
:10043000050F08BF90EA020F05D054EA000C04BF74
:100440001946104630BD91EA030F1EBF002100205F
:1004500030BD5FEA545C05D14000494128BF41F0FE
:10046000004130BD14F580043CBF01F5801130BD62
:1004700001F0004545F0FE4141F470014FF00000ED
:1004800030BD7FEA645C1ABF194610467FEA655C9E
:100490001CBF0B46024650EA013406BF52EA033540
:1004A00091EA030F41F4002130BD00BF90F0000F2E
:1004B00004BF0021704730B54FF4806404F132046A
:1004C0004FF000054FF0000150E700BF90F0000F23
:1004D00004BF0021704730B54FF4806404F132044A
:1004E00010F0004548BF40424FF000013EE700BF1A
:1004F00042004FEAE2014FEA31014FEA02701FBFAA
:1005000012F07F4393F07F4F81F06051704792F07B
:10051000000F14BF93F07F4F704730B54FF46074F5
:1005200001F0004521F0004120E700BF50EA010240
:1005300008BF704730B54FF000050AE050EA0102ED
:1005400008BF704730B511F0004502D5404261EB5D
:1005500041014FF4806404F132045FEA915C3FF49E
:10056000DCAE4FF003025FEADC0C18BF03325FEA37
:10057000DC0C18BF033202EBDC02C2F1200300FAEC
:1005800003FC20FA02F001FA03FE40EA0E0021FA11
:1005900002F11444C1E600BF70B54FF0FF0C4CF4FB
:1005A000E06C1CEA11541DBF1CEA135594EA0C0FB1
:1005B00095EA0C0F00F0DEF82C4481EA030621EAEC
:1005C0004C5123EA4C5350EA013518BF52EA033527
:1005D00041F4801143F4801338D0A0FB02CE4FF0D9
:1005E0000005E1FB02E506F00042E0FB03E54FF009
:1005F0000006E1FB03569CF0000F18BF4EF0010E01
:10060000A4F1FF04B6F5007F64F5407404D25FEAFC
:100610004E0E6D4146EB060642EAC62141EA5551AF
:100620004FEAC52040EA5E504FEACE2EB4F1FD0CF1
:1006300088BFBCF5E06F1ED8BEF1004F08BF5FEA6F
:10064000500E50F1000041EB045170BD06F0004621
:1006500046EA010140EA020081EA0301B4EB5C04CE
:10066000C2BFD4EB0C0541EA045170BD41F48011C6
:100670004FF0000E013C00F3AB8014F1360FDEBFEB
:10068000002001F0004170BDC4F10004203C35DAC7
:100690000C341BDC04F11404C4F1200500FA05F34A
:1006A00020FA04F001FA05F240EA020001F00042EB
:1006B00021F0004110EBD37021FA04F642EB060161
:1006C0005EEA430E08BF20EAD37070BDC4F10C048B
:1006D000C4F1200500FA04F320FA05F001FA04F24F
:1006E00040EA020001F0004110EBD37041F100013B
:1006F0005EEA430E08BF20EAD37070BDC4F1200546
:1007000000FA05F24EEA020E20FA04F301FA05F2AD
:1007100043EA020321FA04F001F0004121FA04F255
:1007200020EA020000EBD3705EEA430E08BF20EA25
:10073000D37070BD94F0000F0FD101F0004640005F
:1007400041EB010111F4801F08BF013CF7D041EAE1
:10075000060195F0000F18BF704703F000465200E5
:1007600043EB030313F4801F08BF013DF7D043EAB6
:100770000603704794EA0C0F0CEA135518BF95EA6C
:100780000C0F0CD050EA410618BF52EA4306D1D1F3
:1007900081EA030101F000414FF0000070BD50EA12
:1007A000410606BF1046194652EA430619D094EA9C
:1007B0000C0F02D150EA013613D195EA0C0F05D186
:1007C00052EA03361CBF104619460AD181EA0301DA
:1007D00001F0004141F0FE4141F470014FF0000092
:1007E00070BD41F0FE4141F4780170BD70B54FF02D
:1007F000FF0C4CF4E06C1CEA11541DBF1CEA1355AD
:1008000094EA0C0F95EA0C0F00F0A7F8A4EB05048E
:1008100081EA030E52EA03354FEA013100F0888085
:100820004FEA03334FF0805545EA131343EA12634E
:100830004FEA022245EA111545EA10654FEA002603
:100840000EF000419D4208BF964244F1FD0404F5BC
:10085000407402D25B084FEA3202B61A65EB030518
:100860005B084FEA32024FF480104FF4002CB6EBD5
:10087000020E75EB030E22BFB61A754640EA0C0055
:100880005B084FEA3202B6EB020E75EB030E22BF95
:10089000B61A754640EA5C005B084FEA3202B6EBD6
:1008A000020E75EB030E22BFB61A754640EA9C0095
:1008B0005B084FEA3202B6EB020E75EB030E22BF65
:1008C000B61A754640EADC0055EA060E18D04FEA23
:1008D000051545EA16754FEA06164FEAC30343EAC3
:1008E00052734FEAC2025FEA1C1CC0D111F4801F90
:1008F0000BD141EA00014FF000004FF0004CB6E789
:1009000011F4801F04BF01430020B4F1FD0C88BF27
:10091000BCF5E06F3FF6AFAEB5EB030C04BFB6EB32
:10092000020C5FEA500C50F1000041EB045170BD25
:100930000EF0004E4EEA113114EB5C04C2BFD4EB52
:100940000C0541EA045170BD41F480114FF0000ED6
:10095000013C90E645EA060E8DE60CEA135594EA52
:100960000C0F08BF95EA0C0F3FF43BAF94EA0C0F55
:100970000AD150EA01347FF434AF95EA0C0F7FF4CA
:1009800025AF104619462CE795EA0C0F06D152EA1E
:1009900003353FF4FDAE1046194622E750EA410602
:1009A00018BF52EA43067FF4C5AE50EA41047FF413
:1009B0000DAF52EA43057FF4EBAE12E74FF0FF3C78
:1009C00006E000BF4FF0010C02E000BF4FF0010C49
:1009D0004DF804CD4FEA410C7FEA6C5C4FEA430CC2
:1009E00018BF7FEA6C5C1BD001B050EA410C0CBF11
:1009F00052EA430C91EA030F02BF90EA020F002073
:100A0000704710F1000F91EA030F58BF994208BFD9
:100A100090422CBFD8176FEAE37040F00100704796
:100A20004FEA410C7FEA6C5C02D150EA013C07D1ED
:100A30004FEA430C7FEA6C5CD6D152EA033CD3D038
:100A40005DF8040B704700BF8446104662468C4632
:100A50001946634600E000BF01B5FFF7B7FF002865
:100A600048BF10F1000F01BD4DF808EDFFF7F4FF8E
:100A70000CBF012000205DF808FB00BF4DF808ED19
:100A8000FFF7EAFF34BF012000205DF808FB00BF3C
:100A90004DF808EDFFF7E0FF94BF012000205DF85E
:100AA00008FB00BF4DF808EDFFF7CEFF94BF012013
:100AB00000205DF808FB00BF4DF808EDFFF7C4FF0C
:100AC00034BF012000205DF808FB00BF4FEA410C55
:100AD0007FEA6C5C02D150EA013C0AD14FEA430C38
:100AE0007FEA6C5C02D152EA033C02D14FF0000075
:100AF00070474FF0010070474FEA410212F50012B3
:100B000015D211D56FF47873B3EB625212D94FEA54
:100B1000C12343F0004343EA505311F0004F23FA3E
:100B200002F018BF404270474FF00000704750EA93
:100B3000013005D111F0004008BF6FF00040704750
:100B40004FF00000704700BF4A0011D212F50012AA
:100B500011D20DD56FF47873B3EB62520ED44FEA15
:100B6000C12343F0004343EA505323FA02F0704795
:100B70004FF00000704750EA013002D14FF0FF30D3
:100B800070474FF0000070474FEA4102B2F1E04376
:100B900024BFB3F5001CDCF1FE5C0DD901F0004C64
:100BA0004FEAC0024CEA5070B2F1004F40EB8300B4
:100BB00008BF20F00100704711F0804F21D113F1E0
:100BC0003872BCBF01F00040704741F480114FEA19
:100BD0005252C2F11802C2F1200C10FA0CF320FAA2
:100BE00002F018BF40F001004FEAC1234FEAD323BF
:100BF00003FA0CFC40EA0C0023FA02F34FEA430329
:100C0000CCE77FEA625307D150EA01331EBF4FF0B1
:100C1000FE4040F44000704701F0004040F0FE40CC
:100C200040F40000704700BF53B94AB9002908BF1B
:100C300000281CBF4FF0FF314FF0FF3000F07EB9AD
:100C4000ADF1080C6DE904CE00F006F8DDF804E023
:100C5000DDE9022304B070472DE9F0478C460E46CB
:100C60000446089D002B50D18A4217466CD9B2FA2F
:100C700082FEBEF1000F0BD0CEF1200420FA04F466
:100C800001FA0EF644EA060C02FA0EF700FA0EF428
:100C90004FEA1749220CBCFBF9F01FFA87F809FB51
:100CA00010C642EA064600FB08F3B34209D9F6191A
:100CB00000F1FF3280F02281B34240F21F810238FE
:100CC0003E44F61AA2B2B6FBF9F309FB136642EAF8
:100CD000064403FB08F8A04509D9E41903F1FF32E3
:100CE00080F00A81A04540F20781023B3C44C8EBFA
:100CF000040443EA00400021002D62D024FA0EF4DF
:100D000000232C606B60BDE8F0878B4207D9002D73
:100D100055D0002185E841000846BDE8F087B3FAC8
:100D200083F1002940F09080B34202D3824200F266
:100D3000F880841A66EB03060120B446002D40D0EB
:100D400085E81010BDE8F08712B90127B7FBF2F76C
:100D5000B7FA87FEBEF1000F35D1F31B4FEA1748F3
:100D60001FFA87FC0121B3FBF8F0220C08FB1036B8
:100D700042EA06460CFB00F3B34207D9F61900F12C
:100D8000FF3202D2B34200F2CE801046F61AA2B26F
:100D9000B6FBF8F308FB136642EA06440CFB03FCBF
:100DA000A44507D9E41903F1FF3202D2A44500F2A9
:100DB000B5801346CCEB040443EA00409CE7294687
:100DC0002846BDE8F087CEF1200106FA0EF307FAB7
:100DD0000EF720FA01F94FEA1748CE4049EA030915
:100DE000B6FBF8FA4FEA194408FB1A661FFA87FCAB
:100DF00044EA06430AFB0CF29A4200FA0EF40AD9BE
:100E0000DB190AF1FF3180F087809A4240F284803A
:100E1000AAF1020A3B449B1A1FFA89F9B3FBF8F1C5
:100E200008FB113349EA034301FB0CF69E4207D944
:100E3000DB1901F1FF326BD29E4269D902393B4482
:100E40009B1B41EA0A418EE7C1F1200E22FA0EF403
:100E50008B40234320FA0EF706FA01F44FEA134CB5
:100E600026FA0EF63C43B6FBFCF9270C0CFB196680
:100E70001FFA83F847EA064609FB08F7B74202FA69
:100E800001F200FA01FA08D9F61809F1FF3041D24F
:100E9000B7423FD9A9F102091E44F61BA0B2B6FB26
:100EA000FCF40CFB146640EA064704FB08F8B8455E
:100EB00007D9FF1804F1FF3028D2B84526D9023CE3
:100EC0001F4444EA0940C8EB0707A0FB02894F45CD
:100ED00044464E4614D329D065B3BAEB040367EBFE
:100EE000060707FA0EFECB40CF404EEA030385E823
:100EF00088000021BDE8F0871346F8E61046E0E6DA
:100F0000B8EB020469EB03060138E5E70446D8E7CD
:100F1000114695E78146C0E78A467CE7023B3C44A0
:100F200048E708460AE702383E442FE7C245E7D3C0
:100F30003E46D1E72946BDE8F08700BF704700BFB5
:100F400001F0FF01102A2BDB10F0070F08D010F87A
:100F5000013B013A8B422DD010F0070F42B3F6D17E
:100F6000F0B441EA012141EA014122F007047FF097
:100F700000070023F0E80256083C85EA010586EAEE
:100F8000010685FA47F5A3FA87F586FA47F6A5FA2A
:100F900087F68EB9EED1F0BC01F0FF0102F0070236
:100FA00032B110F8013B013A83EA010313B1F8D1E1
:100FB0000020704701387047002D06BF35460338C2
:100FC000073815F0010F07D1013015F4807F02BFFB
:100FD000013015F4C03F0130F0BC0138704700BF4C
:100FE000844641EA000313F003036DD1403A41D334
:100FF00051F8043B40F8043B51F8043B40F8043BF3
:1010000051F8043B40F8043B51F8043B40F8043BE2
:1010100051F8043B40F8043B51F8043B40F8043BD2
:1010200051F8043B40F8043B51F8043B40F8043BC2
:1010300051F8043B40F8043B51F8043B40F8043BB2
:1010400051F8043B40F8043B51F8043B40F8043BA2
:1010500051F8043B40F8043B51F8043B40F8043B92
:1010600051F8043B40F8043B51F8043B40F8043B82
:10107000403ABDD2303211D351F8043B40F8043B22
:1010800051F8043B40F8043B51F8043B40F8043B62
:1010900051F8043B40F8043B103AEDD20C3205D332
:1010A00051F8043B40F8043B043AF9D2043208D02A
:1010B000D2071CBF11F8013B00F8013B01D30B889C
:1010C00003806046704700BF082A13D38B078DD07A
:1010D00010F003038AD0C3F10403D21ADB071CBF4C
:1010E00011F8013B00F8013B80D331F8023B20F8B6
:1010F000023B7BE7043AD9D3013A11F8013B00F8EF
:10110000013BF9D20B7803704B7843708B78837076
:101110006046704700000000000000000000000072
:10112000A2EB0300704700BF02780B78012A28BFAA
:101130009A42F5D16DE9044540EA0104CDE9026720
:101140006FF0000C4FEA447212B380EA010414F00D
:10115000070F6AD100F0070420F0070004F0030530
:1011600021F007014FEAC505F0E8042314F0040F4D
:10117000F1E804670CFA05F462EA040266EA040680
:101180000AD063EA0403624667EA0407664603E09E
:10119000F0E80423F1E8046782FA4CF582EA0604D9
:1011A000A4FA8CF46CBB83FA4CF583EA0705A5FA24
:1011B0008CF595B950E9022351E9026782FA4CF5A2
:1011C00082EA0604A4FA8CF483FA4CF583EA070554
:1011D000A5FA8CF52543DBD09CB92DBAB5FA85F478
:1011E00024F0070427FA04F1DDE9026723FA04F387
:1011F00003F0FF0001F0FF01FDE80445A0EB010052
:10120000704724BAB4FA84F424F0070426FA04F1EF
:10121000DDE9026722FA04F202F0FF0001F0FF01AB
:10122000FDE80445A0EB0100704714F0030F3CD12A
:1012300010F0030428D150F8082B51F8083B82FA2B
:101240004CF582EA0305A5FA8CF55DB950F8042C3B
:1012500051F8043C82FA4CF582EA0305A5FA8CF5B4
:10126000002DE8D02DBAB5FA85F424F0070423FA4E
:1012700004F122FA04F202F0FF0001F0FF01FDE8A0
:101280000445A0EB010070474FEAC40420F00300BE
:1012900050F8082B21F0030151F8083B0CFA04F434
:1012A00062EA040263EA0403C9E710F003041AD0F7
:1012B000A1EB040120F00300E40750F8042B06D052
:1012C0000FD28B785FFAA2F4E41A06D12BB1CB7857
:1012D0005FFAB2F4E41A00D11BB920465DF8104B56
:1012E000704701F1040150F8042BCC0721F00301F1
:1012F00051F8043B48D824D222F07F4482FA4CF5BE
:1013000094EA1325A5FA8CF50AD165B951F8043B86
:1013100084EA0204B4EB036F0ED150F8042BEBE720
:101320004FEA132355E035F07F454DD10878FDE8AD
:101330000445C0F1000070474FEA126203F0FF035A
:1013400047E002EA1C4482FA4CF594EA1345A5FAF8
:101350008CF50AD165B951F8043B84EA0204B4EB78
:10136000034F0CD150F8042BEBE74FEA134330E066
:1013700015EA1C4528D10B884FEA124229E04FEAB2
:10138000124203EA1C4324E002F0FF0482FA4CF507
:1013900094EA1365A5FA8CF50AD165B951F8043BB6
:1013A00084EA0204B4EB032F09D150F8042BEBE7D5
:1013B0004FEA13630DE015F0FF0F05D10B684FEAFC
:1013C000122223F07F4304E04FF00000FDE80445C3
:1013D000704712BA1BBA82FA4CF482EA0304A4FAE8
:1013E0008CF5B5FA85F402FA04F203FA04F34FEA35
:1013F0001260FDE80445A0EB136070470000000098
:1014000090F800F06DE9024520F007016FF0000C44
:1014100010F0070491F820F040F049804FF00004EC
:101420006FF00700D1E9002391F840F000F10800C7
:1014300082FA4CF2A4FA8CF283FA4CF3A2FA8CF3FF
:101440004BBBD1E9022382FA4CF200F10800A4FA66
:101450008CF283FA4CF3A2FA8CF3E3B9D1E90423BA
:1014600082FA4CF200F10800A4FA8CF283FA4CF3F1
:10147000A2FA8CF37BB9D1E9062301F1200182FAAB
:101480004CF200F10800A4FA8CF283FA4CF3A2FAB1
:101490008CF3002BC6D0002A04BF04301A4612BABF
:1014A000B2FA82F2FDE8024500EBD2007047D1E9C2
:1014B000002304F00305C4F100004FEAC50514F051
:1014C000040F91F840F00CFA05F562EA05021CBF22
:1014D00063EA050362464FF00004A9E780B582B0D5
:1014E00000AF0346FB714FF48041044803F00AF952
:1014F000034618460837BD4680BD00BF00080240BD
:1015000080B582B000AF0346FB714FF40041044840
:1015100003F0F8F8034618460837BD4680BD00BF03
:101520000008024080B582B000AF0346FB714FF463
:101530000071044803F0E6F8034618460837BD4634
:1015400080BD00BF0004024080B582B000AF0346FA
:10155000FB714FF48071044803F0D4F80346184639
:101560000837BD4680BD00BF0004024080B485B08E
:1015700000AF78607B68FB60134B01221A70FB6838
:101580001B79032B1AD801A252F823F09D150008ED
:10159000A5150008AD150008B51500080B4B012274
:1015A0001A700BE00A4B01221A7007E0094B012266
:1015B0001A7003E0084B01221A7000BF00BF1437F5
:1015C000BD465DF8047B70472812002029120020D8
:1015D0002A1200202B1200202C12002080B500AF10
:1015E000002300221B491C4825F050FE1B4A032102
:1015F000194825F083FE184826F046F801230022FA
:101600001749184825F042FE144A0321154825F0D1
:1016100075FE144826F038F80223002212491348B8
:1016200025F034FE0D4A0321104825F067FE0F48CF
:1016300026F02AF8032300220D490E4825F026FE45
:10164000064A03210B4825F059FE0A4826F01CF8EB
:1016500000BF80BDDD140008301200206D150008A9
:10166000011500085C1200202515000888120020D2
:1016700049150008B412002080B582B000AF786030
:1016800026F028F80A2000F01BF8F9E780B500AF33
:10169000044A0021044813F053F90246034B1A6030
:1016A00000BF80BD146203087916000824120020D0
:1016B00080B500AF13F02EF90346184680BD00BF79
:1016C00080B582B000AF7860786813F0F3F900BF9E
:1016D0000837BD4680BD00BF80B500AF4FF4005154
:1016E000024803F041F800BF80BD00BF000802407F
:1016F00080B500AF9FED080A08481AF049FC0121A7
:1017000006481AF05DFC064B064A002103481AF011
:1017100029FB00BF80BD00BFFF212540E012002053
:101720007C3003088430030880B500AF02481AF00B
:10173000CFFB00BF80BD00BFE012002080B588B0A5
:1017400004AF786039607B68012B1FDD3B68043390
:101750001B68184627F0F6FAF860FB68002B17DBC9
:10176000FB68092B14DCFB6802930B4B01932323CA
:1017700000930A4B0A4A0B49032021F067FDFB68DE
:10178000DBB2194608481AF0D7FB02E000BF00E0C0
:1017900000BF1037BD4680BDD830030898620308EB
:1017A00090300308D0300308E012002080B588B0E4
:1017B00004AF786039607B68012B1FDD3B68043320
:1017C0001B68184627F0BEFAF860FB68002B17DB91
:1017D000FB68022B14DCFB6802930B4B0193342350
:1017E00000930A4B0A4A0B49032021F02FFDFB68A6
:1017F000DBB2194608481AF0B5FB02E000BF00E072
:1018000000BF1037BD4680BDE8300308B062030852
:1018100090300308D0300308E012002090B589B062
:1018200004AF786039607B68012B22DD3B680433AC
:101830001B68184627F082FA87ED030AF868FEF75E
:1018400057FE03460C46CDE902340C4B01933F236F
:1018500000930B4B0B4A0C49032021F0F7FCD7ED0A
:10186000037AFDEEE77A17EE901A08481AF050FB5B
:1018700000E000BF1437BD4690BD00BF0031030833
:10188000C462030890300308D0300308E01200203F
:1018900080B582B000AF78600B467B807B881A46AB
:1018A0007968012001F064FB034618460837BD46FD
:1018B00080BD00BF80B582B000AF78600B467B80F2
:1018C0007B881A467968012001F072FB03461846AE
:1018D0000837BD4680BD00BF80B582B000AF7860DC
:1018E000054B1B684FF0FF31184613F085F90023B4
:1018F00018460837BD4680BDA017002080B582B0CD
:1019000000AF7860044B1B68184613F0C1F9002340
:1019100018460837BD4680BDA017002080B582B0AC
:1019200000AF78600B467B80074B9B68002B07D08D
:10193000054B9B68B7F902207968184624F0DCFB58
:1019400000BF0837BD4680BD0002002080B5DCB076
:1019500004AF07F10C03186007F1080319603B1D81
:101960001A6007F10C0307F594721968104611F01C
:1019700023FD034687F85F3197F85F31002B0FD0C6
:1019800097F85F310293484B01937B230093474BB9
:10199000474A4849012021F059FC4FF0FF337EE0CF
:1019A0003A1D07F1080312680021186827F0B6FDF8
:1019B00007F1100207F594731146184611F0B6FDB1
:1019C000034687F85F3197F85F31002B61D107F14B
:1019D00010039B7D002B5CD007F110031B7A03F0F2
:1019E0001003002B1AD007F108031868FFF708FD51
:1019F00003461A4607F108031B6813442E4A106871
:101A0000186092889A8007F1100303F1160207F11B
:101A100008031146186827F0A9FE19E007F108032A
:101A20001868FFF7EDFC03461A4607F108031B6828
:101A30001344224A1068186092889A8007F11003B4
:101A400003F1160207F108031146186827F08EFE0D
:101A500007F108031868FFF7D3FC03461A4607F19D
:101A600008031B681344164A1068186092889A800D
:101A700007F108031868FFF7C3FC03461A4607F18D
:101A800008031B6813440F491A460B461B88138032
:101A90008EE707F59473184611F01CFD00231846D5
:101AA00007F5B077BD4680BD743103080C630308A9
:101AB00028310308683103088C3103089431030886
:101AC0009C310308A431030880B500AF214B224AA2
:101AD000C3F890201F4B214AC3F89420204813F0EC
:101AE00005F802461F4B1A601A4B1F4AC3F898208C
:101AF000184B1E4AC3F89C20164B1D4A9A604FF49F
:101B000000721C49134822F03BFC1B4B1B4A1A6015
:101B1000194B1B4A5A60184B1A4A9A60164B1A4ABC
:101B2000DA60154B194A1A614FF4007210491248D5
:101B300025F014FA104A4FF0FF31064824F0C2FC99
:101B4000134B144A1A600349114822F0C3F900BF2D
:101B500080BD00BFE416002091180008B5180008E9
:101B6000D8620308A0170020D9180008FD18000843
:101B700000000020E4140020841700202131010817
:101B8000553001084D19000899370108DD35010865
:101B9000000200201D19000880B500AF044A054965
:101BA000054812F0CDFE0246044B1A6000BF80BD0E
:101BB000E8620308E4160020AD610208A4170020C3
:101BC00080B584B000AF3B4600221A605A609A602C
:101BD000DA60214B214A1A601F4B4FF480325A6061
:101BE0001D4B00229A601C4B00221A611A4B0022E6
:101BF0001A76194B002283F82020174B0022DA6254
:101C0000154B174A9A62144B0022DA60124B0122DC
:101C1000DA61114B002283F830200F4B01225A6108
:101C20000D4801F0CFFA0346002B01D000F0AAFBCB
:101C300004233B6001237B600023BB603B461946C5
:101C4000054801F06DFC0346002B01D000F09AFB23
:101C500000BF1037BD4680BDA817002000200140FE
:101C60000100000F80B58AB000AF786007F114035F
:101C700000221A605A609A60DA601A617B681B68F9
:101C8000174A934227D100233B61164A154B5B6CE0
:101C900043F480735364134B5B6C03F480733B61B8
:101CA0003B690023FB600F4A0E4B1B6B43F00103A3
:101CB00013630C4B1B6B03F00103FB60FB681023E9
:101CC0007B610323BB610023FB6107F11403194609
:101CD000054802F07DFB00BF2837BD4680BD00BF30
:101CE00000200140003802400000024080B588B06A
:101CF00000AF0346B9607A60FB73FB7B3B61012355
:101D00007B61BB68BB6107F110031946094801F00C
:101D100007FC084801F09AFA7B681946054801F06B
:101D200067FB044801F0EEFB03469BB218462037E0
:101D3000BD4680BDA817002080B500AF064B074AFE
:101D40001A60054801F01CFF0346002B01D000F08B
:101D500019FB00BF80BD00BFF0170020003002401B
:101D600080B485B000AF78607B681B680B4A9342F3
:101D70000DD10023FB600A4A094B1B6B43F48053CF
:101D80001363074B1B6B03F48053FB60FB6800BFBE
:101D90001437BD465DF8047B704700BF0030024039
:101DA0000038024080B582B000AF00237B60104A4B
:101DB0000F4B1B6B43F4800313630D4B1B6B03F43E
:101DC00080037B607B68002206213B2001F0A2FE9D
:101DD0003B2001F0BBFE00220621452001F09AFEC7
:101DE000452001F0B3FE00BF0837BD4680BD00BFEF
:101DF0000038024080B500AF084A0021084812F0C0
:101E00009FFD0246074B1A60074A0021074812F05F
:101E100097FD0246064B1A6000BF80BD446303086D
:101E2000351E0008FC17002020630308B51E0008BB
:101E3000F817002080B584B000AF786016F02CFE53
:101E40000BF07EFBFFF740FEFFF7A6FE1DF07EFEC7
:101E500000F03CF820F08EFC20F0E6FFFF2100208F
:101E600021F0A0F80F21012021F09CF80F21022081
:101E700021F098F80F21032021F094F80F2104207D
:101E800021F090F80F21052021F08CF8012021F09D
:101E900077F821F005F8FFF7A1FBFFF7F7FBFFF755
:101EA00027FC15F0B1FAF860FFF73EFC0120FFF7C0
:101EB00007FCF9E780B582B000AF7860FFF70CFC53
:101EC0004FF47A70FFF7FCFBF8E700BF80B586B0EF
:101ED00000AF00237B613B1D00221A605A60C3F8EB
:101EE000072010481EF060FD3861386926F02EFF8B
:101EF00003467B617B6901337B6179690A4827F07E
:101F00005FFB3B1D7A690949184627F009FC3B1D18
:101F1000194604481FF0A4FB1FF0B6FB00BF18379A
:101F2000BD4680BDFC31030808320308283203088F
:101F300080B500AF4FF480620021064827F0EEFA2A
:101F4000044816F0F3F80349034827F039FB00BFB3
:101F500080BD00BF001800202C32030880B58AB075
:101F600000AF07F1140300221A605A609A60DA6029
:101F70001A6100233B61504A4F4B1B6B43F0040333
:101F800013634D4B1B6B03F004033B613B69002360
:101F9000FB60494A484B1B6B43F080031363464B7D
:101FA0001B6B03F08003FB60FB680023BB60424AAD
:101FB000414B1B6B43F0010313633F4B1B6B03F05F
:101FC0000103BB60BB6800237B603B4A3A4B1B6B41
:101FD00043F002031363384B1B6B03F002037B6077
:101FE0007B6800233B60344A334B1B6B43F0080390
:101FF0001363314B1B6B03F008033B603B6800220B
:1020000042F230012D4802F095FB00224FF4A0412E
:102010002B4802F08FFB00224FF48071294802F018
:1020200089FB42F230037B610123BB610023FB612A
:1020300000233B6207F114031946204802F0C8F957
:102040004FF440437B610023BB610023FB6107F138
:1020500014031946194802F0BBF94FF4A0437B6101
:102060000123BB610023FB6100233B6207F11403E2
:102070001946134802F0ACF94FF480737B610123D9
:10208000BB610023FB6100233B6207F11403194687
:102090000C4802F09DF94FF440737B610023BB6153
:1020A0000023FB6107F114031946054802F090F97B
:1020B00000BF2837BD4680BD0038024000080240FE
:1020C000000402400000024080B500AF124B134AEA
:1020D0001A60114B124A5A600F4B00229A600E4B45
:1020E0000022DA600C4B4FF480421A610A4B002246
:1020F0005A61094B00229A61074B0022DA61064BB4
:1021000000221A62044802F049FB0346002B01D06A
:1021100000F038F900BF80BD001C002000540040D2
:10212000A086010080B58AB000AF786007F1140383
:1021300000221A605A609A60DA601A617B681B6834
:10214000194A93422BD100233B61184A174B1B6B52
:1021500043F002031363154B1B6B03F002033B6157
:102160003B69C0237B611223BB610023FB61032316
:102170003B6204237B6207F1140319460C4802F00A
:1021800027F90023FB60094A084B1B6C43F400133A
:102190001364064B1B6C03F40013FB60FB6800BF69
:1021A0002837BD4680BD00BF0054004000380240C3
:1021B0000004024080B582B000AF78603B1D012270
:1021C0001946012000F0F4FE00BF18460837BD464E
:1021D00080BD00BF80B586B000AF3B1D00221A60F5
:1021E0005A609A60DA601A6100233B60134A134B0D
:1021F0001B6B43F002031363104B1B6B03F00203D2
:102200003B603B6800224FF440410D4802F092FAD7
:102210004FF440437B600123BB600223FB60032338
:102220003B613B1D1946064802F0D2F8142000F02D
:1022300083FF00BF1837BD4680BD00BF0038024095
:102240000004024080B500AF00F004FF00F02EF85B
:10225000FFF7C0FFFFF782FEFFF7A4FDFFF7B0FC1A
:10226000FFF76AFDFFF730FF00F090F800F0C4F8C8
:1022700000F0D2F900F006FA00F054FC00F0CEFDB8
:102280000BF044F900F0DAFC054A064906481CF058
:10229000DDFD12F0D3FAFFF7ADFD12F015FBFEE7FE
:1022A00030320308383203084032030880B594B056
:1022B00000AF07F1200330220021184627F02EF945
:1022C00007F10C0300221A605A609A60DA601A6102
:1022D0000023BB60294A294B1B6C43F080531364D5
:1022E000264B1B6C03F08053BB60BB6800237B60F4
:1022F000234A234B1B6843F480431360204B1B6825
:1023000003F480437B607B6809233B624FF4803396
:102310007B6201237B630223BB634FF48003FB6377
:1023200004233B64A8237B640223BB640723FB6470
:1023300007F12003184604F041FC0346002B01D0AE
:1023400000F020F80F23FB6002233B6100237B6138
:102350004FF4A053BB614FF48053FB6107F10C03B2
:102360000521184604F0A2FE0346002B01D000F020
:1023700009F800BF5037BD4680BD00BF003802409D
:102380000070004080B400AF72B6FEE780B500AFC9
:10239000064B074A1A60054805F078F80346002BFB
:1023A00001D0FFF7EFFF00BF80BD00BF541C00202D
:1023B0000008065080B485B000AF78607B681B6869
:1023C0000B4A93420DD10023FB600A4A094B5B6B19
:1023D00043F040035363074B5B6B03F04003FB6028
:1023E000FB6800BF1437BD465DF8047B704700BF33
:1023F000000806500038024080B400AF0C4B0D4A74
:102400001A600B4B00225A60094B00229A60084B5D
:102410000022DA60064B00221A61054B00225A6145
:10242000034B00229A6100BFBD465DF8047B7047F4
:10243000641C0020002C014080B58AB000AF786099
:1024400007F1140300221A605A609A60DA601A6178
:102450007B681B68684A934240F0C98000233B6157
:10246000664A664B5B6C43F400635364634B5B6C7E
:1024700003F400633B613B690023FB605F4A5F4BF1
:102480001B6B43F0040313635C4B1B6B03F00403EF
:10249000FB60FB680023BB60584A584B1B6B43F042
:1024A00008031363554B1B6B03F00803BB60BB6849
:1024B0004FF4F8537B610223BB610023FB610323CC
:1024C0003B620C237B6207F1140319464C4801F070
:1024D0007FFF04237B610223BB610023FB61032395
:1024E0003B620C237B6207F114031946454801F057
:1024F0006FFF454B454A1A60434B4FF000625A60EC
:10250000414B00229A60404B0022DA603E4B4FF470
:1025100080621A613C4B4FF480525A613A4B4FF43F
:1025200080429A61384B2022DA61374B00221A62CE
:10253000354B04225A62344B03229A62324B4FF4D9
:102540000002DA62304B4FF400121A632E4801F099
:1025500033FB0346002B01D0FFF714FF7B682A4AA8
:102560001A64294A7B689363294B2A4A1A60284BCC
:102570004FF000625A60264B40229A60244B0022A2
:10258000DA60234B4FF480621A61214B4FF4805282
:102590005A611F4B4FF480429A611D4B2022DA6131
:1025A0001B4B00221A621A4B04225A62184B032258
:1025B0009A62174B4FF40002DA62154B4FF4001287
:1025C0001A63134801F0F8FA0346002B01D0FFF715
:1025D000D9FE7B680E4ADA630D4A7B68936300225A
:1025E0000521312001F096FA312001F0AFFA00BF49
:1025F0002837BD4680BD00BF002C01400038024096
:1026000000080240000C0240E81C00205864024010
:10261000481D0020A064024080B500AF174B184A47
:102620001A60164B4FF482725A60144B00229A6063
:10263000124B0022DA60114B00221A610F4B00226C
:102640005A610E4B4FF480229A610C4B0022DA61E2
:102650000A4B00221A62094B00225A62074B0022E1
:102660009A62064B0A22DA62044806F06FFA0346C1
:10267000002B01D0FFF786FE00BF80BDA81D002003
:102680000030014080B500AF174B184A1A60164B56
:102690004FF482725A60144B00229A60124B00224F
:1026A000DA60114B00221A610F4B00225A610E4B67
:1026B0004FF400729A610C4B0022DA610A4B00223F
:1026C0001A62094B00225A62074B00229A62064B9B
:1026D0000A22DA62044806F039FA0346002B01D0D8
:1026E000FFF750FE00BF80BD001E002000380040F4
:1026F00080B58EB000AF786007F1240300221A6025
:102700005A609A60DA601A617B681B68514A93428A
:102710004BD100233B62504A4F4B5B6C43F48053D8
:1027200053644D4B5B6C03F480533B623B6A002364
:10273000FB61494A484B1B6B43F001031363464B53
:102740001B6B03F00103FB61FB690023BB61424A81
:10275000414B1B6B43F0020313633F4B1B6B03F0B6
:102760000203BB61BB694FF400437B620223BB627F
:102770000023FB6203233B6305237B6307F12403F0
:102780001946364801F024FE38237B620223BB62DF
:102790000023FB6203233B6305237B6307F12403D0
:1027A00019462F4801F014FE4FE07B681B682D4A44
:1027B00093424AD100237B61274A274B1B6C43F489
:1027C00080431364244B1B6C03F480437B617B695F
:1027D00000233B61204A204B1B6B43F0040313632F
:1027E0001D4B1B6B03F004033B613B690023FB6043
:1027F000194A194B1B6B43F002031363164B1B6BF7
:1028000003F00203FB60FB680C237B620223BB62C4
:102810000023FB6203233B6305237B6307F124034F
:102820001946114801F0D4FD4FF400537B62022396
:10283000BB620023FB6203233B6305237B6307F139
:1028400024031946064801F0C3FD00BF3837BD46D2
:1028500080BD00BF0030014000380240000002404F
:1028600000040240003800400008024080B582B0F9
:1028700000AF00237B60124A114B5B6C43F4804332
:1028800053640F4B5B6C03F480437B607B680023D5
:102890003B600B4A0A4B1B6C43F080531364084B9C
:1028A0001B6C03F080533B603B6800220F216FF0EC
:1028B000010001F02FF900BF0837BD4680BD00BF01
:1028C0000038024080B400AFFEE700BF80B400AF24
:1028D000FEE700BF80B400AFFEE700BF80B400AFEA
:1028E000FEE700BF80B400AF00BFBD465DF8047BCB
:1028F000704700BF80B500AF00F0FEFB15F07EFA18
:102900000346012B01D012F017FF00BF80BD00BFAE
:1029100080B500AF024806F0EDFD00BF80BD00BFEE
:10292000B01E002080B500AF024807F043FD00BF95
:1029300080BD00BF501F002080B500AF024805F0E9
:1029400047F800BF80BD00BF641C002080B500AF09
:10295000024801F0C9FA00BF80BD00BFE81C00209A
:1029600080B500AF024802F0F1FF00BF80BD00BF9C
:1029700090A8002080B500AF024801F0B5FA00BF72
:1029800080BD00BF481D002090B587B000AFF86043
:10299000B9607A6000237B610AE0BC68631CBB609D
:1029A000AFF300800346DBB223707B6901337B61A8
:1029B0007A697B689A42F0DB7B6818461C37BD4613
:1029C00090BD00BF80B586B000AFF860B9607A6096
:1029D00000237B6109E0BB685A1CBA601B7818466B
:1029E000FFF7E8FB7B6901337B617A697B689A4278
:1029F000F1DB7B6818461837BD4680BD80B483B0D4
:102A000000AF78604FF0FF3318460C37BD465DF8D5
:102A1000047B704780B483B000AF786039603B6856
:102A20004FF400525A60002318460C37BD465DF83B
:102A3000047B704780B483B000AF786001231846F0
:102A40000C37BD465DF8047B704700BF80B485B08D
:102A500000AFF860B9607A60002318461437BD46AD
:102A60005DF8047B704700BF80B586B000AF78602A
:102A7000144A154BD31A7B617B693B61134B1B686E
:102A8000002B02D1114B124A1A60104B1A687B6856
:102A90001A443B699A4207D926F08CF902460C2366
:102AA00013604FF0FF3309E0084B1B68FB60074BD6
:102AB0001A687B681344054A1360FB681846183788
:102AC000BD4680BD0000022000040000581E00200A
:102AD000B0FC002080B400AF074B1B68002B02D174
:102AE000054B064A1A60044B1B6803F16043184605
:102AF000BD465DF8047B7047581E0020B0FC0020E6
:102B000080B400AF064A064BD3F8883043F4700314
:102B1000C2F8883000BFBD465DF8047B704700BF37
:102B200000ED00E080B58EB000AF07F12803002271
:102B30001A605A609A60DA6007F1200300221A6076
:102B40005A603B1D00221A605A609A60DA601A616E
:102B50005A619A61384B4FF080421A60364B00221E
:102B60005A60354B40229A60334B41F26702DA607B
:102B7000314B00221A61304B00229A612E4806F038
:102B8000D7FA0346002B01D0FFF7FCFB4FF480532C
:102B9000BB6207F128031946274806F075FE034675
:102BA000002B01D0FFF7EEFB234806F081FB034624
:102BB000002B01D0FFF7E6FB00233B6200237B6282
:102BC00007F1200319461C4807F054FA0346002B6E
:102BD00001D0FFF7D7FB60237B600023BB6000239D
:102BE000FB6000237B613B1D04221946124806F05E
:102BF00089FD0346002B01D0FFF7C4FB3B1D0822D3
:102C000019460D4806F07EFD0346002B01D0FFF764
:102C1000B9FB3B1D0C221946074806F073FD03461D
:102C2000002B01D0FFF7AEFB034800F093F800BF84
:102C30003837BD4680BD00BF681E002080B586B015
:102C400000AF07F1080300221A605A609A60DA6048
:102C50003B4600221A605A601E4B1F4A1A601D4BE9
:102C600053225A601B4B00229A601A4B3122DA60C1
:102C7000184B00221A61174B80229A61154806F002
:102C800057FA0346002B01D0FFF77CFB4FF480532B
:102C9000BB6007F1080319460E4806F0F5FD034630
:102CA000002B01D0FFF76EFB00233B6000237B600D
:102CB0003B461946074807F0DDF90346002B01D0D3
:102CC000FFF760FB034806F083FA00BF1837BD46E4
:102CD00080BD00BFB01E00200008004080B584B059
:102CE00000AF78607B681B68B3F1804F0ED1002382
:102CF000FB60164A154B1B6C43F001031364134B26
:102D00001B6C03F00103FB60FB681AE07B681B6827
:102D10000F4A934215D10023BB600C4A0B4B1B6C2E
:102D200043F004031364094B1B6C03F00403BB6002
:102D3000BB68002205211E2000F0ECFE1E2000F0E2
:102D400005FF00BF1037BD4680BD00BF0038024000
:102D50000008004080B588B000AF786007F10C0330
:102D600000221A605A609A60DA601A617B681B68F8
:102D7000B3F1804F1DD10023BB60104A0F4B1B6B7A
:102D800043F0010313630D4B1B6B03F00103BB60A6
:102D9000BB680E23FB6002233B6100237B610023A1
:102DA000BB610123FB6107F10C031946044801F0E4
:102DB0000FFB00BF2037BD4680BD00BF003802407A
:102DC0000000024090B482B000AF78607B681B685E
:102DD000084A934208D1084BD3E90034013344F147
:102DE0000004054AC2E9003400BF0837BD4690BC64
:102DF000704700BF00080040601E002090B400AF84
:102E0000054A4FF000034FF00004C2E9003400BF50
:102E1000BD4690BC704700BF601E002080B500AF6B
:102E2000164B174A1A60154B4FF4E1325A60134B98
:102E300000229A60114B0022DA60104B00221A61C6
:102E40000E4B0C225A610D4B00229A610B4B002253
:102E5000DA610A4807F09EF90346002B01D0FFF71C
:102E600091FA40220749084824F090F801220749C6
:102E7000024807F06FFA00BF80BD00BF501F00205E
:102E800000100140101F0020FC1E0020F81E002032
:102E900080B58AB000AF786007F1140300221A6091
:102EA0005A609A60DA601A617B681B681D4A934217
:102EB00034D100233B611C4A1B4B5B6C43F0100375
:102EC0005364194B5B6C03F010033B613B690023B7
:102ED000FB60154A144B1B6B43F001031363124B49
:102EE0001B6B03F00103FB60FB684FF4C0637B6165
:102EF0000223BB610023FB6103233B6207237B6248
:102F000007F114031946094801F062FA002205216D
:102F1000252000F0FFFD252000F018FE00BF283717
:102F2000BD4680BD00100140003802400000024054
:102F300080B582B000AF78607B681B68094A934215
:102F40000BD17B689B8D1A460749084824F040F84E
:102F500001220549786807F0FDF900BF0837BD4632
:102F600080BD00BF00100140F81E0020FC1E0020A4
:102F700080B586B000AFF860B9601346FB800023CF
:102F80007B61FB68012B02D1084B7B6101E0074BA1
:102F90007B61FB881A46B968786924F091F803468A
:102FA0001BB218461837BD4680BD00BFFC1E00206E
:102FB00080B586B000AFF860B9601346FB8000238F
:102FC0007B61FB68012B02D10C4B7B6101E00B4B59
:102FD0007B61FA886423B968786907F029F90346A8
:102FE000FB74FB7C002B02D04FF0FF3301E0B7F9FC
:102FF000063018461837BD4680BD00BF501F002060
:10300000DFF834D00D480E490E4A002302E0D458B0
:10301000C4500433C4188C42F9D30B4A0B4C002320
:1030200001E013600432A242FBD3FFF769FD25F0F3
:10303000C7FEFFF707F970470000022000000020DC
:10304000041200203026060808120020B0FC0020E0
:10305000FEE7000080B500AF0E4A0E4B1B6843F43C
:10306000007313600B4A0B4B1B6843F480631360BF
:10307000084A084B1B6843F480731360032000F078
:103080003DFD0F2000F008F8FFF7F0FB0023184685
:1030900080BD00BF003C024080B582B000AF7860C8
:1030A000124B1A68124B1B7819464FF47A73B3FB14
:1030B000F1F3B2FBF3F3184600F056FD0346002B84
:1030C00001D001230EE07B680F2B0AD8002279681B
:1030D0004FF0FF3000F01EFD064A7B6813600023AE
:1030E00000E0012318460837BD4680BD0C020020D1
:1030F000140200201002002080B400AF064B1B78A1
:103100001A46064B1B681344044A136000BFBD46B1
:103110005DF8047B704700BF14020020941F00205C
:1031200080B400AF034B1B681846BD465DF8047BB6
:10313000704700BF941F002080B584B000AF786056
:10314000FFF7EEFFB8607B68FB60FB68B3F1FF3F01
:1031500005D0094B1B781A46FB681344FB6000BF7F
:10316000FFF7DEFF0246BB68D21AFB689A42F7D32C
:1031700000BF1037BD4680BD1402002080B400AFF0
:10318000034B1B681846BD465DF8047B704700BFC3
:10319000107AFF1F80B400AF034B1B681846BD4672
:1031A0005DF8047B704700BF147AFF1F80B400AF46
:1031B000034B1B681846BD465DF8047B704700BF93
:1031C000187AFF1F80B584B000AF78600023FB73CE
:1031D0007B68002B01D1012333E07B681B6C002B43
:1031E00009D17868FEF73EFD7B6800225A647B684F
:1031F000002283F83C207B681B6C03F01003002B3B
:1032000018D17B681B6C23F4885323F0020343F02E
:1032100002027B681A64786800F0A6FA7B680022D4
:103220005A647B681B6C23F0030343F001027B6844
:103230001A6401E00123FB737B68002283F83C20C1
:10324000FB7B18461037BD4680BD00BF80B485B0FB
:1032500000AF78600023BB607B6893F83C30012BA3
:1032600001D10223B1E07B68012283F83C207B6816
:103270001B689B6803F00103002B18D17B681B6857
:103280007A681268926842F001029A60524B1B6899
:10329000524AA2FB03239A0C13465B001344BB6003
:1032A00002E0BB68013BBB60BB68002BF9D17B68C7
:1032B0001B689B6803F00103002B79D07B681B6CB3
:1032C00023F4E06323F0010343F480727B681A6403
:1032D0007B681B685B6803F48063002B07D07B6806
:1032E0001B6C23F4405343F480527B681A647B6860
:1032F0001B6C03F48053002B06D07B685B6C23F0BF
:1033000006027B685A6402E07B6800225A647B688C
:10331000002283F83C20324BFB607B681B686FF017
:1033200022021A60FB685B6803F01F03002B2AD19E
:103330007B681B682B4A934215D07B681B682A4A1E
:10334000934205D1264B5B6803F01F03002B0AD084
:103350007B681B68254A934236D1214B5B6803F09A
:103360001F030F2B30D87B681B689B6803F040530A
:10337000002B29D17B681B687A681268926842F03A
:1033800080429A6020E07B681B68164A93421BD1FA
:103390007B681B689B6803F04053002B14D17B684B
:1033A0001B687A681268926842F080429A600BE06B
:1033B0007B681B6C43F010027B681A647B685B6C53
:1033C00043F001027B685A64002318461437BD4657
:1033D0005DF8047B704700BF0C02002083DE1B43B6
:1033E0000023014000200140002101400022014053
:1033F00080B584B000AF786039600023FB607B68E3
:103400001B689B6803F48063002B12D07B681B68E9
:103410009B6803F48073002B0BD07B681B6C43F01C
:1034200020027B681A647B68002283F83C20012319
:1034300063E0FFF775FEF86021E03B68B3F1FF3F02
:103440001DD03B68002B07D0FFF76AFE0246FB68E1
:10345000D21A3B689A4212D97B681B681B6803F03A
:103460000203002B0BD17B681B6C43F004027B68CA
:103470001A647B68002283F83C2003233DE07B68CC
:103480001B681B6803F00203002BD6D07B681B6807
:103490006FF012021A607B681B6C43F400727B6849
:1034A0001A647B681B689B6803F04053002B23D190
:1034B0007B681B7E002B1FD17B681B68DB6A03F4D3
:1034C0007003002B06D07B681B689B6803F4806345
:1034D000002B11D17B681B6C23F480727B681A640B
:1034E0007B681B6C03F48053002B05D17B681B6C3D
:1034F00043F001027B681A64002318461037BD466A
:1035000080BD00BF80B483B000AF78607B681B686B
:10351000DB6C18460C37BD465DF8047B704700BF76
:1035200090B484B000AF786039600023BB607B68E2
:1035300093F83C30012B01D1022307E17B68012283
:1035400083F83C203B681B68092B26D97B681A68E6
:103550007B681B68D9683B681B689BB218460346AA
:103560005B0003441E3B072000FA03F3DB430B40E0
:10357000D3607B681A687B681B68D9683B68986869
:103580003B681B689BB21C4623465B0023441E3BE2
:1035900000FA03F30B43D36023E07B681A687B686F
:1035A0001B6819693B681B689BB2184603465B00A1
:1035B0000344072000FA03F3DB430B4013617B68ED
:1035C0001A687B681B6819693B6898683B681B68C8
:1035D0009BB21C4623465B00234400FA03F30B43D3
:1035E00013613B685B68062B24D87B6819687B688D
:1035F0001B68586B3B685A6813469B001344053B95
:103600001F2202FA03F3DB4303404B637B68196814
:103610007B681B68586B3B681B689BB21C463B6809
:103620005A6813469B001344053B04FA03F3034313
:103630004B634CE03B685B680C2B24D87B681968B3
:103640007B681B68186B3B685A6813469B001344E1
:10365000233B1F2202FA03F3DB4303400B637B6827
:1036600019687B681B68186B3B681B689BB21C461B
:103670003B685A6813469B001344233B04FA03F348
:1036800003430B6323E07B6819687B681B68D86A77
:103690003B685A6813469B001344413B1F2202FAC1
:1036A00003F3DB430340CB627B6819687B681B68CC
:1036B000D86A3B681B689BB21C463B685A68134635
:1036C0009B001344413B04FA03F30343CB62224BB8
:1036D000FB607B681B68214A934209D13B681B68E9
:1036E000122B05D1FB685B6843F48002FB685A60CB
:1036F0007B681B68194A934223D13B681B68102BD7
:1037000003D03B681B68112B1BD1FB685B6843F43B
:103710000002FB685A603B681B68102B11D1104BEC
:103720001B68104AA2FB03239A0C13469B00134408
:103730005B00BB6002E0BB68013BBB60BB68002B69
:10374000F9D17B68002283F83C200023184610370B
:10375000BD4690BC704700BF0023014000200140DF
:103760000C02002083DE1B4380B485B000AF78607C
:10377000794BFB60FB685B6823F44032FB685A605E
:10378000FB685A687B685B681A43FB685A607B6811
:103790001B687A681268526822F480725A607B68EB
:1037A0001B687A68126851687A68126912020A43C3
:1037B0005A607B681B687A681268526822F040720F
:1037C0005A607B681B687A68126851687A689268E8
:1037D0000A435A607B681B687A681268926822F410
:1037E00000629A607B681B687A68126891687A68E0
:1037F000D2680A439A607B689B6A584A934222D0F7
:103800007B681B687A681268926822F070629A601E
:103810007B681B687A68126891687A68926A0A43C2
:103820009A607B681B687A681268926822F040523E
:103830009A607B681B687A68126891687A68D26AB5
:103840000A439A600FE07B681B687A681268926886
:1038500022F070629A607B681B687A6812689268CE
:1038600022F040529A607B681B687A6812689268FE
:1038700022F002029A607B681B687A68126891687D
:103880007A68127E52000A439A607B6893F820306F
:10389000002B1BD07B681B687A681268526842F460
:1038A00000625A607B681B687A681268526822F46A
:1038B00060425A607B681B687A68126851687A684F
:1038C000526A013A52030A435A6007E07B681B6858
:1038D0007A681268526822F400625A607B681B683A
:1038E0007A681268D26A22F47002DA627B681B6816
:1038F0007A681268D16A7A68D269013A12050A4375
:10390000DA627B681B687A681268926822F4007237
:103910009A607B681B687A68126891687A6892F886
:10392000302052020A439A607B681B687A681268EA
:10393000926822F480629A607B681B687A681268D9
:1039400091687A68526992020A439A6000BF1437FC
:10395000BD465DF8047B7047002301400100000F65
:1039600080B485B000AF78607B6803F00703FB602C
:103970000C4BDB68BB60BA684FF6FF031340BB60BB
:10398000FB681A02BB68134343F0BF6343F4003380
:10399000BB60044ABB68D36000BF1437BD465DF806
:1039A000047B704700ED00E080B400AF044BDB689F
:1039B00003F4E0631B0A1846BD465DF8047B7047BC
:1039C00000ED00E080B483B000AF0346FB7197F9CF
:1039D0000730002B0BDB094997F907305B09FA79AF
:1039E00002F01F02012000FA02F241F8232000BF7A
:1039F0000C37BD465DF8047B704700BF00E100E076
:103A000080B483B000AF03463960FB7197F907308B
:103A1000002B0ADB0D4997F907303A68D2B2120140
:103A2000D2B20B4483F800230AE00949FB7903F082
:103A30000F03043B3A68D2B21201D2B20B441A7699
:103A400000BF0C37BD465DF8047B704700E100E025
:103A500000ED00E080B489B000AFF860B9607A6032
:103A6000FB6803F00703FB61FB69C3F10703042B49
:103A700028BF0423BB61FB690433062B02D9FB6911
:103A8000033B00E000237B610122BB6902FA03F3E0
:103A90005A1EBB681A407B699A4001217B6901FA72
:103AA00003F3591E7B680B40134318462437BD4669
:103AB0005DF8047B704700BF80B582B000AF7860CE
:103AC0007B68013BB3F1807F01D301230FE00A4AF9
:103AD0007B68013B53600F214FF0FF30FFF790FFF1
:103AE000054B00229A60044B07221A6000231846F7
:103AF0000837BD4680BD00BF10E000E080B582B051
:103B000000AF78607868FFF72BFF00BF0837BD462D
:103B100080BD00BF80B586B000AF0346B9607A6053
:103B2000FB7300237B61FFF73FFF78617A68B96818
:103B30007869FFF78FFF024697F90F301146184654
:103B4000FFF75EFF00BF1837BD4680BD80B582B06D
:103B500000AF0346FB7197F907301846FFF732FFB5
:103B600000BF0837BD4680BD80B582B000AF786029
:103B70007868FFF7A1FF034618460837BD4680BDA9
:103B800080B582B000AF78607B68002B01D1012343
:103B90000EE07B685B79DBB2002B05D17B680022ED
:103BA0001A717868FEF7DCF87B6801225A710023ED
:103BB00018460837BD4680BD80B586B000AF786036
:103BC00000237B61FFF7ACFA38617B68002B01D1E1
:103BD000012399E07B68022283F835207B6800226C
:103BE00083F834207B681B687A681268126822F0B8
:103BF00001021A600FE0FFF793FA02463B69D31AFD
:103C0000052B08D97B6820225A657B68032283F83C
:103C10003520032378E07B681B681B6803F00103F1
:103C2000002BE8D17B681B681B687B617A69384B85
:103C300013407B617B685A687B689B681A437B688A
:103C4000DB681A437B681B691A437B685B691A430C
:103C50007B689B691A437B68DB691A437B681B6A34
:103C600013437A6913437B617B685B6A042B07D13A
:103C70007B68DA6A7B681B6B13437A6913437B6149
:103C80007B681B687A691A607B681B685B697B616B
:103C90007B6923F007037B617B685B6A7A69134366
:103CA0007B617B685B6A042B17D17B689B6A7A69AE
:103CB00013437B617B68DB6A002B0ED0786800F0D1
:103CC0000DFB0346002B08D07B6840225A657B68B9
:103CD000012283F83520012316E07B681B687A698E
:103CE0005A61786800F0C4FA0346FB607B68DB6DBC
:103CF0003F229A40FB689A607B6800225A657B6885
:103D0000012283F83520002318461837BD4680BDB0
:103D10003F8010F080B586B000AFF860B9607A607F
:103D20003B600023FB75FB689B6D3B61FB6893F870
:103D30003430012B01D1022340E0FB68012283F8DB
:103D40003420FB6893F83530DBB2012B2FD1FB68B0
:103D5000022283F83520FB6800225A653B687A68A6
:103D6000B968F86800F056FAFB68DB6D3F229A40AC
:103D70003B699A60FB681B68FA681268126842F037
:103D800016021A60FB681B6C002B07D0FB681B68CF
:103D9000FA681268126842F008021A60FB681B6831
:103DA000FA681268126842F001021A6005E0FB68C6
:103DB000002283F834200223FB75FB7D1846183758
:103DC000BD4680BD80B584B000AF78607B689B6DD8
:103DD000FB60FFF7A5F9B8607B6893F83530DBB27C
:103DE000022B08D07B6880225A657B68002283F80A
:103DF0003420012352E07B681B687A6812681268DD
:103E000022F016021A607B681B687A681268526991
:103E100022F080025A617B681B6C002B03D17B6807
:103E20009B6C002B07D07B681B687A68126812684D
:103E300022F008021A607B681B687A6812681268B0
:103E400022F001021A6013E0FFF76AF90246BB682C
:103E5000D31A052B0CD97B6820225A657B68032274
:103E600083F835207B68002283F83420032315E093
:103E70007B681B681B6803F00103002BE4D17B689F
:103E8000DB6D3F229A40FB689A607B68012283F8D1
:103E900035207B68002283F8342000231846103731
:103EA000BD4680BD80B483B000AF78607B6893F876
:103EB0003530DBB2022B04D07B6880225A650123A7
:103EC0000CE07B68052283F835207B681B687A68E4
:103ED0001268126822F001021A60002318460C379B
:103EE000BD465DF8047B704780B586B000AF786052
:103EF0000023BB60924B1B68924AA2FB03239B0AE0
:103F00007B617B689B6D3B613B691B68FB607B68E9
:103F1000DB6D08229A40FB681340002B1AD07B68A7
:103F20001B681B6803F00403002B13D07B681B681D
:103F30007A681268126822F004021A607B68DB6DEE
:103F400008229A403B699A607B685B6D43F00102EE
:103F50007B685A657B68DB6D01229A40FB681340E1
:103F6000002B12D07B681B685B6903F08003002B79
:103F70000BD07B68DB6D01229A403B699A607B68BD
:103F80005B6D43F002027B685A657B68DB6D04223F
:103F90009A40FB681340002B12D07B681B681B689B
:103FA00003F00203002B0BD07B68DB6D04229A40E8
:103FB0003B699A607B685B6D43F004027B685A65DD
:103FC0007B68DB6D10229A40FB681340002B43D0C6
:103FD0007B681B681B6803F00803002B3CD07B68E0
:103FE000DB6D10229A403B699A607B681B681B68F6
:103FF00003F48023002B18D07B681B681B6803F434
:104000000023002B08D17B681B6C002B24D07B681D
:104010001B6C786898471FE07B689B6C002B1BD05B
:104020007B689B6C7868984716E07B681B681B6808
:1040300003F48073002B07D17B681B687A681268D1
:10404000126822F008021A607B681B6C002B03D0F8
:104050007B681B6C786898477B68DB6D20229A40F0
:10406000FB681340002B00F08E807B681B681B6888
:1040700003F01003002B00F086807B68DB6D2022AC
:104080009A403B699A607B6893F83530DBB2052B28
:1040900036D17B681B687A681268126822F01602B3
:1040A0001A607B681B687A681268526922F0800285
:1040B0005A617B681B6C002B03D17B689B6C002BC7
:1040C00007D07B681B687A681268126822F00802C1
:1040D0001A607B68DB6D3F229A403B699A607B687F
:1040E000012283F835207B68002283F834207B6826
:1040F0001B6D002B7DD07B681B6D7868984778E03E
:104100007B681B681B6803F48023002B1CD07B6832
:104110001B681B6803F40023002B08D17B685B6CD1
:10412000002B30D07B685B6C786898472BE07B680D
:10413000DB6B002B27D07B68DB6B7868984722E02D
:104140000C020020B5814E1B7B681B681B6803F4C2
:104150008073002B0FD17B681B687A681268126825
:1041600022F010021A607B68012283F835207B68F8
:10417000002283F834207B68DB6B002B03D07B6844
:10418000DB6B786898477B685B6D002B32D07B686F
:104190005B6D03F00103002B22D07B68052283F8BE
:1041A00035207B681B687A681268126822F0010269
:1041B0001A60BB680133BB607A69934207D87B6899
:1041C0001B681B6803F00103002BF2D100E000BF65
:1041D0007B68012283F835207B68002283F8342035
:1041E0007B68DB6C002B05D07B68DB6C78689847BC
:1041F00000E000BF1837BD4680BD00BF80B483B06B
:1042000000AF78607B685B6D18460C37BD465DF883
:10421000047B704780B485B000AFF860B9607A6005
:104220003B60FB681B68FA681268126822F48022FF
:104230001A60FB681B683A685A60FB689B68402BF1
:1042400008D1FB681B687A689A60FB681B68BA68CB
:10425000DA6007E0FB681B68BA689A60FB681B6855
:104260007A68DA6000BF1437BD465DF8047B70479A
:1042700080B485B000AF78607B681B68DBB2103B10
:10428000144AA2FB03231B09FB60134AFB68134477
:104290001B781A467B68DA65FB68032B09D97B68B3
:1042A0001B6823F47F7323F003031A1D7B689A6550
:1042B00007E07B681B6823F47F7323F003037A68AD
:1042C00093657B689B6D18461437BD465DF8047B8B
:1042D000704700BFABAAAAAA9C63030880B485B04C
:1042E00000AF78600023FB737B689B6ABB607B68D0
:1042F0009B69002B1FD1BB68032B55D801A252F834
:1043000023F000BF154300082743000815430008A9
:10431000A94300087B68DB6A03F08073002B45D05B
:104320000123FB7342E07B68DB6AB3F1C07F3FD1BE
:104330000123FB733CE07B689B69B3F5005F21D1EF
:10434000BB68032B36D801A252F823F05D43000866
:10435000634300085D430008754300080123FB73B5
:104360002FE07B68DB6A03F08073002B24D00123ED
:10437000FB7321E07B68DB6AB3F1C07F1ED10123B0
:10438000FB731BE0BB68022B02D9032B03D018E0A0
:104390000123FB7315E07B68DB6A03F08073002B5D
:1043A0000ED00123FB730BE000BF0AE000BF08E062
:1043B00000BF06E000BF04E000BF02E000BF00E075
:1043C00000BFFB7B18461437BD465DF8047B704781
:1043D00080B489B000AF7860396000237B6100232E
:1043E0003B610023BB610023FB616BE10122FB69A0
:1043F00002FA03F37B613B681A687B6913403B61F7
:104400003A697B699A4240F05A813B685B6803F0E5
:104410000303012B05D03B685B6803F00303022B09
:1044200030D17B689B68BB61FB695B00032202FAA9
:1044300003F3DB43BA691340BB613B68DA68FB698D
:104440005B0002FA03F3BA691343BB617B68BA6984
:104450009A607B685B68BB610122FB6902FA03F327
:10446000DB43BA691340BB613B685B681B0903F01F
:104470000102FB6902FA03F3BA691343BB617B686B
:10448000BA695A603B685B6803F00303032B17D0DB
:104490007B68DB68BB61FB695B00032202FA03F304
:1044A000DB43BA691340BB613B689A68FB695B00F8
:1044B00002FA03F3BA691343BB617B68BA69DA6035
:1044C0003B685B6803F00303022B23D1FB69DA0826
:1044D0007B68083253F82230BB61FB6903F00703A5
:1044E0009B000F2202FA03F3DB43BA691340BB615E
:1044F0003B681A69FB6903F007039B0002FA03F3A8
:10450000BA691343BB61FB69DA087B680832B96991
:1045100043F822107B681B68BB61FB695B000322C8
:1045200002FA03F3DB43BA691340BB613B685B6883
:1045300003F00302FB695B0002FA03F3BA69134359
:10454000BB617B68BA691A603B685B6803F44033FF
:10455000002B00F0B4800023FB605F4A5E4B5B6C75
:1045600043F4804353645C4B5B6C03F48043FB6017
:10457000FB685A4AFB699B08023352F82330BB613F
:10458000FB6903F003039B000F2202FA03F3DB43F2
:10459000BA691340BB617B68514A93422BD07B6858
:1045A000504A934225D07B684F4A93421FD07B6884
:1045B0004E4A934219D07B684D4A934213D07B6890
:1045C0004C4A93420DD07B684B4A934207D07B689C
:1045D0004A4A934201D107230EE008230CE0062348
:1045E0000AE0052308E0042306E0032304E0022395
:1045F00002E0012300E00023FA6902F003029200C6
:104600009340BA691343BB613449FB699B08023389
:10461000BA6941F823203A4B9B68BB613B69DB4395
:10462000BA691340BB613B685B6803F48013002BDD
:1046300003D0BA693B691343BB61314ABB699360DC
:104640002F4BDB68BB613B69DB43BA691340BB613D
:104650003B685B6803F40013002B03D0BA693B6925
:104660001343BB61264ABB69D360254B5B68BB61C2
:104670003B69DB43BA691340BB613B685B6803F489
:104680000033002B03D0BA693B691343BB611C4A5A
:10469000BB6953601A4B1B68BB613B69DB43BA695A
:1046A0001340BB613B685B6803F48033002B03D08D
:1046B000BA693B691343BB61114ABB691360FB696B
:1046C0000133FB61FB690F2B7FF690AE00BF2437EF
:1046D000BD465DF8047B7047003802400038014059
:1046E000000002400004024000080240000C0240AA
:1046F000001002400014024000180240001C02405A
:10470000003C014080B485B000AF78600B467B80F0
:104710007B681A697B881340002B02D00123FB734E
:1047200001E00023FB73FB7B18461437BD465DF8A0
:10473000047B704780B483B000AF78600B467B8009
:1047400013467B707B78002B03D07A887B689A6154
:1047500003E07B881A047B689A6100BF0C37BD4672
:104760005DF8047B704700BF80B485B000AF78600F
:104770000B467B807B685B69FB607A88FB68134033
:104780001A04FB68D9437B880B401A437B689A6103
:1047900000BF1437BD465DF8047B704790B585B007
:1047A00000AF78607B68002B01D101231FE17B689B
:1047B00093F83D30DBB2002B06D17B68002283F8F2
:1047C0003C207868FDF7AEFC7B68242283F83D200E
:1047D0007B681B687A681268126822F001021A600E
:1047E0007B681B687A681268126842F400421A609B
:1047F0007B681B687A681268126822F400421A60AB
:1048000002F01CFEF8607B685B687B4A934207D825
:10481000FB687A4A934294BF01230023DBB206E08F
:10482000FB68774A934294BF01230023DBB2002B3D
:1048300001D00123DBE0FB68724AA2FB03239B0C3F
:10484000BB607B681B687A681268526822F03F017F
:10485000BA680A435A607B681A687B681B681B6ADF
:1048600023F03F017B685B686348834202D8BB68E2
:10487000013309E0BB684FF4967000FB03F3624814
:10488000A0FB03039B0901330B4313627B68186889
:104890007B681B68DB6923F44F4222F0FF027B68D0
:1048A0005B6855498B420DD8FB68591E7B685B6875
:1048B0005B00B1FBF3F30133C3F30B03042B38BFED
:1048C00004234FE07B689B68002B11D1FB685C1EC2
:1048D0007B6859680B465B000B44B4FBF3F3013370
:1048E000C3F30B03002B0CBF01230023DBB212E048
:1048F000FB685C1E7B6859680B469B000B44990063
:104900000B44B4FBF3F30133C3F30B03002B0CBFD5
:1049100001230023DBB2002B01D0012322E07B68BE
:104920009B68002B0ED1FB685C1E7B6859680B46A8
:104930005B000B44B4FBF3F30133C3F30B0343F409
:1049400000430FE0FB685C1E7B6859680B469B00C8
:104950000B4499000B44B4FBF3F30133C3F30B0393
:1049600043F440431343C3617B681B687A68126851
:10497000126822F0C0017A68D0697A68126A02432C
:104980000A431A607B681A687B681B689B6823F47B
:10499000034323F0FF03796808697968C968014314
:1049A0000B4393607B681B687A681268D26822F0B8
:1049B000FF017A6850697A68926902430A43DA60B3
:1049C0007B681B687A681268126842F001021A60FC
:1049D0007B6800221A647B68202283F83D207B6874
:1049E00000221A637B68002283F83E2000231846C9
:1049F0001437BD4690BD00BFA08601007F841E0015
:104A0000FF083D0083DE1B43D34D621080B588B0A4
:104A100002AFF8607A601A460B467B8113463B81F1
:104A2000FEF77EFB7861FB6893F83D30DBB2202B0C
:104A300040F0E0807B690093192301227049F868F7
:104A400000F054FC0346002B01D00223D3E0FB68A6
:104A500093F83C30012B01D10223CCE0FB6801220A
:104A600083F83C20FB681B681B6803F00103002BE4
:104A700007D1FB681B68FA681268126842F00102ED
:104A80001A60FB681B68FA681268126822F40062F8
:104A90001A60FB68212283F83D20FB68102283F80E
:104AA0003E20FB6800221A64FB687A685A62FB6841
:104AB0003A895A85FB685B8D9AB2FB681A85FB6858
:104AC000504ADA6279897B693A6AF86800F0C2FA7A
:104AD0000346002B01D001238DE000233B61FB68DE
:104AE0001B685B693B61FB681B689B693B613B69B9
:104AF00066E07A69396AF86800F0CEFC0346002B5C
:104B00000DD0FB681B6C042B07D1FB681B68FA688F
:104B10001268126842F400721A6001236BE0FB68AD
:104B20001B68FA68526A12781A61FB685B6A5A1C41
:104B3000FB685A62FB685B8D9BB2013B9AB2FB68D3
:104B40005A85FB681B8D013B9AB2FB681A85FB688E
:104B50001B685B6903F00403002B1BD0FB681B8DF3
:104B6000002B17D0FB681B68FA68526A12781A612A
:104B7000FB685B6A5A1CFB685A62FB685B8D9BB2E0
:104B8000013B9AB2FB685A85FB681B8D013B9AB2C8
:104B9000FB681A857A69396AF86800F0BFFC034639
:104BA000002B0DD0FB681B6C042B07D1FB681B6826
:104BB000FA681268126842F400721A6001231AE05F
:104BC000FB681B8D002B94D1FB681B68FA68126888
:104BD000126842F400721A60FB68202283F83D20BC
:104BE000FB68002283F83E20FB68002283F83C200B
:104BF000002300E0022318461837BD4680BD00BFE1
:104C0000020010000000FFFF80B58CB002AFF8601A
:104C10007A601A460B467B8113463B81FEF780FA89
:104C20007862FB6893F83D30DBB2202B40F00B82BA
:104C30007B6A0093192301227C49F86800F056FB37
:104C40000346002B01D00223FEE1FB6893F83C30C1
:104C5000012B01D10223F7E1FB68012283F83C20FC
:104C6000FB681B681B6803F00103002B07D1FB687E
:104C70001B68FA681268126842F001021A60FB6849
:104C80001B68FA681268126822F400621A60FB68F6
:104C9000222283F83D20FB68102283F83E20FB6827
:104CA00000221A64FB687A685A62FB683A895A855E
:104CB000FB685B8D9AB2FB681A85FB685C4ADA6216
:104CC00079897B6A3A6BF86800F044FA0346002B56
:104CD00001D00123B8E1FB681B8D002B13D1002309
:104CE0003B62FB681B685B693B62FB681B689B69F6
:104CF0003B623B6AFB681B68FA681268126842F400
:104D000000721A608CE1FB681B8D012B1BD1FB68C4
:104D10001B68FA681268126822F480621A60002325
:104D2000FB61FB681B685B69FB61FB681B689B6937
:104D3000FB61FB69FB681B68FA681268126842F441
:104D400000721A606CE1FB681B8D022B1BD1FB68A3
:104D50001B68FA681268126822F480621A60FB68A5
:104D60001B68FA681268126842F400621A60002335
:104D7000BB61FB681B685B69BB61FB681B689B6967
:104D8000BB61BB694CE1FB681B68FA68126812687A
:104D900042F480621A6000237B61FB681B685B69D8
:104DA0007B61FB681B689B697B617B6938E1FB6801
:104DB0001B8D032B00F2F180FB681B8D012B23D18F
:104DC0007A6A396BF86800F0EBFB0346002B01D0E0
:104DD000012339E1FB685B6AFA6812681269D2B292
:104DE0001A70FB685B6A5A1CFB685A62FB681B8D71
:104DF000013B9AB2FB681A85FB685B8D9BB2013B55
:104E00009AB2FB685A850BE1FB681B8D022B4ED1D1
:104E10007B6A00933B6B00220649F86800F066FA53
:104E20000346002B08D001230EE100BF0200100052
:104E30000000FFFF04000100FB681B68FA681268AD
:104E4000126842F400721A60FB685B6AFA681268C2
:104E50001269D2B21A70FB685B6A5A1CFB685A620C
:104E6000FB681B8D013B9AB2FB681A85FB685B8D62
:104E70009BB2013B9AB2FB685A85FB685B6AFA6891
:104E800012681269D2B21A70FB685B6A5A1CFB681E
:104E90005A62FB681B8D013B9AB2FB681A85FB685E
:104EA0005B8D9BB2013B9AB2FB685A85B8E07B6A86
:104EB00000933B6B00226649F86800F017FA03463E
:104EC000002B01D00123BFE0FB681B68FA68126861
:104ED000126822F480621A60FB685B6AFA681268E2
:104EE0001269D2B21A70FB685B6A5A1CFB685A627C
:104EF000FB681B8D013B9AB2FB681A85FB685B8DD2
:104F00009BB2013B9AB2FB685A857B6A00933B6B6C
:104F100000224F49F86800F0E9F90346002B01D060
:104F2000012391E0FB681B68FA681268126842F47A
:104F300000721A60FB685B6AFA6812681269D2B282
:104F40001A70FB685B6A5A1CFB685A62FB681B8D0F
:104F5000013B9AB2FB681A85FB685B8D9BB2013BF3
:104F60009AB2FB685A85FB685B6AFA681268126934
:104F7000D2B21A70FB685B6A5A1CFB685A62FB6803
:104F80001B8D013B9AB2FB681A85FB685B8D9BB257
:104F9000013B9AB2FB685A8542E07A6A396BF8683D
:104FA00000F0FEFA0346002B01D001234CE0FB6821
:104FB0005B6AFA6812681269D2B21A70FB685B6A9F
:104FC0005A1CFB685A62FB681B8D013B9AB2FB6856
:104FD0001A85FB685B8D9BB2013B9AB2FB685A85D0
:104FE000FB681B685B6903F00403002B18D0FB68A7
:104FF0005B6AFA6812681269D2B21A70FB685B6A5F
:105000005A1CFB685A62FB681B8D013B9AB2FB6815
:105010001A85FB685B8D9BB2013B9AB2FB685A858F
:10502000FB681B8D002B7FF4C2AEFB68202283F847
:105030003D20FB68002283F83E20FB68002283F8B5
:105040003C20002300E0022318462837BD4680BDDF
:105050000400010080B588B002AFF8607A603B6060
:105060000B467B81FB68DB6A7B617B69082B06D082
:105070007B69012B03D07B6913F5803F08D1FB6866
:105080001B68FA681268126842F480721A600BE0BA
:10509000FB681B6B122B07D1FB681B68FA68126850
:1050A000126842F480721A603B6800937B680022A9
:1050B0004FF00111F86800F019F90346002B0CD0ED
:1050C000FB681B681B6803F48073002B03D0FB682C
:1050D0004FF400721A64032334E0FB681B69B3F5D4
:1050E000804F07D1FB681B687A89D2B202F0FE02BA
:1050F0001A611BE0FB681B687A89D211D2B202F0F8
:105100000602D2B262F00F02D2B21A613B687A682C
:105110000E49F86800F042F90346002B01D0012344
:1051200010E0FB681B687A89D2B21A613B687A6822
:105130000749F86800F032F90346002B01D001233B
:1051400000E0002318461837BD4680BD0800010066
:105150000200010080B588B002AFF8607A603B6061
:105160000B467B81FB68DB6A7B61FB681B68FA6826
:105170001268126842F480621A607B69082B06D0BC
:105180007B69012B03D07B6913F5803F08D1FB6855
:105190001B68FA681268126842F480721A600BE0A9
:1051A000FB681B6B112B07D1FB681B68FA68126840
:1051B000126842F480721A603B6800937B68002298
:1051C0004FF00111F86800F091F80346002B0CD065
:1051D000FB681B681B6803F48073002B03D0FB681B
:1051E0004FF400721A64032378E0FB681B69B3F57F
:1051F000804F08D1FB681B687A89D2B242F0010265
:10520000D2B21A615EE0FB681B687A89D211D2B211
:1052100002F00602D2B262F00F02D2B21A613B680B
:105220007A683049F86800F0B9F80346002B01D0DD
:10523000012353E0FB681B687A89D2B21A613B688C
:105240007A682949F86800F0A9F80346002B01D0D4
:10525000012343E000233B61FB681B685B693B6102
:10526000FB681B689B693B613B69FB681B68FA68CC
:105270001268126842F480721A603B6800937B687F
:1052800000224FF00111F86800F030F80346002BBF
:105290000CD0FB681B681B6803F48073002B03D0E1
:1052A000FB684FF400721A64032317E0FB681B6865
:1052B0007A89D211D2B202F00602D2B262F00E02A4
:1052C000D2B21A613B687A680749F86800F066F85C
:1052D0000346002B01D0012300E0002318461837B5
:1052E000BD4680BD080001000200010080B584B009
:1052F00000AFF860B9603B601346FB7125E03B6886
:10530000B3F1FF3F21D0FDF70BFF0246BB69D21A74
:105310003B689A4202D83B68002B16D1FB680022FA
:105320001A63FB68202283F83D20FB68002283F883
:105330003E20FB681B6C43F02002FB681A64FB688C
:10534000002283F83C20012323E0BB681B0CDBB266
:10535000012B0DD1FB681B685B69DA43BB68134006
:105360009BB2002B0CBF01230023DBB21A460CE0DA
:10537000FB681B689B69DA43BB6813409BB2002B38
:105380000CBF01230023DBB21A46FB799A42B6D048
:10539000002318461037BD4680BD00BF80B584B0DD
:1053A00000AFF860B9607A603B6050E0FB681B6852
:1053B0005B6903F48063002B23D0FB681B68FA68E9
:1053C0001268126842F400721A60FB681B686FF47E
:1053D00080625A61FB6800221A63FB68202283F80E
:1053E0003D20FB68002283F83E20FB681B6C43F0E5
:1053F0000402FB681A64FB68002283F83C20012346
:1054000046E07B68B3F1FF3F21D0FDF789FE0246FD
:105410003B68D21A7B689A4202D87B68002B16D16F
:10542000FB6800221A63FB68202283F83D20FB689A
:10543000002283F83E20FB681B6C43F02002FB68CF
:105440001A64FB68002283F83C20012320E0BB683B
:105450001B0CDBB2012B0CD1FB681B685B69DA43C8
:10546000BB6813409BB2002B14BF01230023DBB2A7
:105470000BE0FB681B689B69DA43BB6813409BB277
:10548000002B14BF01230023DBB2002B8ED100239D
:1054900018461037BD4680BD80B584B000AFF860B7
:1054A000B9607A602DE0F86800F0D0F80346002B70
:1054B00001D001232DE0BB68B3F1FF3F21D0FDF700
:1054C0002FFE02467B68D21ABB689A4202D8BB689C
:1054D000002B16D1FB6800221A63FB68202283F898
:1054E0003D20FB68002283F83E20FB681B6C43F0E4
:1054F0002002FB681A64FB68002283F83C20012329
:1055000007E0FB681B685B6903F08003002BCAD0CF
:10551000002318461037BD4680BD00BF80B584B05B
:1055200000AFF860B9607A602DE0F86800F08EF89E
:105530000346002B01D001232DE0BB68B3F1FF3FF0
:1055400021D0FDF7EDFD02467B68D21ABB689A4276
:1055500002D8BB68002B16D1FB6800221A63FB68D7
:10556000202283F83D20FB68002283F83E20FB6860
:105570001B6C43F02002FB681A64FB68002283F86E
:105580003C20012307E0FB681B685B6903F0040310
:10559000002BCAD0002318461037BD4680BD00BF7F
:1055A00080B584B000AFF860B9607A6042E0FB6813
:1055B0001B685B6903F01003002B19D0FB681B68A4
:1055C0006FF010025A61FB6800221A63FB68202208
:1055D00083F83D20FB68002283F83E20FB681A6CAC
:1055E000FB681A64FB68002283F83C20012329E051
:1055F000FDF796FD02467B68D21ABB689A4202D834
:10560000BB68002B16D1FB6800221A63FB682022BE
:1056100083F83D20FB68002283F83E20FB681B6C6A
:1056200043F02002FB681A64FB68002283F83C20E8
:10563000012307E0FB681B685B6903F04003002B54
:10564000B5D0002318461037BD4680BD80B483B066
:1056500000AF78607B681B685B6903F48063002B94
:105660001BD07B681B686FF480625A617B680022E4
:105670001A637B68202283F83D207B68002283F830
:105680003E207B681B6C43F004027B681A647B68D5
:10569000002283F83C20012300E0002318460C3749
:1056A000BD465DF8047B7047F0B58FB00AAF7860F7
:1056B0007B68002B01D101230FE17B681B68BB6075
:1056C0007B6893F8BD34DBB2002B06D17B680022E7
:1056D00083F8BC24786813F0BDFB7B68032283F851
:1056E000BD24BB68DB6B03F48073002B02D17B68A5
:1056F00000221A617B681B68184606F095FB7B68E0
:105700001B683B607E686D4606F110040FCC0FC528
:105710000FCC0FC594E8030085E80300331D0ECBC2
:10572000386806F06BFA0346002B05D07B6802222E
:1057300083F8BD240123D0E07B681B680021184654
:1057400006F084FB0023FB734AE0FA7B796813467A
:10575000DB0013449B000B443D3301221A70FA7B9B
:1057600079681346DB0013449B000B443C33FA7BFF
:105770001A70FA7BFB7B98B279681346DB001344FE
:105780009B000B44443302461A80FA7B7968134627
:10579000DB0013449B000B44403300221A70FA7B59
:1057A00079681346DB0013449B000B444833002206
:1057B0001A60FA7B79681346DB0013449B000B44A4
:1057C0004C3300221A60FA7B79681346DB001344DD
:1057D0009B000B44543300221A60FB7B0133FB73A4
:1057E000FA7B7B685B689A42AFD30023FB7344E08B
:1057F000FA7B79681346DB0013449B000B4403F2E9
:105800007D2300221A70FA7B79681346DB0013446B
:105810009B000B4403F51F73FA7B1A70FA7B7968BF
:105820001346DB0013449B000B4403F52073002256
:105830001A70FA7B79681346DB0013449B000B4413
:1058400003F5227300221A60FA7B79681346DB00A5
:1058500013449B000B4403F5237300221A60FA7B68
:1058600079681346DB0013449B000B4403F5257352
:1058700000221A60FB7B0133FB73FA7B7B685B6859
:105880009A42B5D37B681B683B607E686D4606F123
:1058900010040FCC0FC50FCC0FC594E8030085E8AA
:1058A0000300331D0ECB386806F01CFB0346002BAB
:1058B00005D07B68022283F8BD2401230DE07B68BC
:1058C000002283F838207B68012283F8BD247B689E
:1058D0001B68184607F09CFC002318461437BD4689
:1058E000F0BD00BF80B584B000AF78607B681B68F6
:1058F000FB607B6893F8BC34012B01D1022320E0CC
:105900007B68012283F8BC247B689B6A012B09D148
:105910007B689B69012B05D0FB689B6B43F480324D
:10592000FB689A637B681B68184606F06BFA7B6815
:105930001B68184607F048FC7B68002283F8BC24EB
:10594000002318461037BD4680BD00BF90B58DB00E
:1059500000AF78607B681B683B623B6AFB617B68D9
:105960001B68184607F00CFD0346002B40F08F849F
:105970007B681B68184607F06FFC0346002B00F09D
:105980008584FB6903F500639A68A54B13401A0AE6
:105990007B68C3F8FC247B681B68184607F05CFC36
:1059A000034603F00203002B07D07B681B687A686C
:1059B0001268526902F002025A617B681B6818463D
:1059C00007F04AFC034603F01003002B61D07B680C
:1059D0001B687A681268926922F010029A613B6A29
:1059E0001B6ABB61BB6903F00F021346DB00134463
:1059F0009B0003F51E737A68134404337B61BB6913
:105A00005B0C03F00F03022B24D1BA6947F6F07345
:105A10001340002B35D07B691969BB691B099BB208
:105A2000C3F30A039BB21A46386A07F071FA7B691E
:105A30001A69BB691B09C3F30A031A447B691A611B
:105A40007B691A6ABB691B09C3F30A031A447B69A1
:105A50001A6216E0BB695B0C03F00F03062B10D132
:105A60007B6803F2C44308221946386A07F050FAEB
:105A70007B691A6ABB691B09C3F30A031A447B6971
:105A80001A627B681B687A681268926942F0100299
:105A90009A617B681B68184607F0DEFB034603F437
:105AA0000023002B00F0A88000237B627B681B682A
:105AB000184607F0E5FBB8629AE0BB6A03F0010301
:105AC000002B00F08F807B681B687A6AD2B2114687
:105AD000184607F009FC38613B6903F00103002B0D
:105AE0000CD07B6A5A01FB69134403F530631A46F4
:105AF00001239360796A786800F0CCFE3B6903F07B
:105B00000803002B0CD07B6A5A01FB69134403F590
