:020000040800F2
:100000000000022059760008057700080102000868
:100010000B77000811770008177700080000000030
:1000200000000000000000000000000081EE020857
:100030001D77000800000000D1F002082B770008AF
:1000400079E50108A9760008A9760008A9760008D4
:10005000A9760008A9760008A9760008A976000804
:10006000A9760008A9760008A9760008A9760008F4
:10007000A9760008A9760008A9760008A9760008E4
:10008000A9760008A9760008A9760008A9760008D4
:10009000A9760008A9760008A9760008A9760008C4
:1000A000A9760008A9760008A9760008A9760008B4
:1000B000A9760008A976000801DC0108A9760008E5
:1000C000A9760008A9760008A9760008A976000894
:1000D000A9760008EDDF0108A9760008A9760008D6
:1000E000A9760008A9760008A9760008A976000874
:1000F000A9760008A9760008A9760008A976000864
:10010000A976000889E60108A9760008A976000802
:10011000A9760008A9760008A9760008A976000843
:1001200061C60108A9760008A97600089DE60108C5
:10013000A97600080000000000000000A976000871
:10014000A9760008A9760008A976000809E3010845
:10015000A9760008B1E60108A9760008A97600088A
:10016000A9760008A9760008A9760008A9760008F3
:10017000A9760008A9760008000000000000000031
:08018000A9760008A976000829
:1001C00010B5054C237833B9044B13B10448AFF391
:1001D00000800123237010BD400E002000000000AD
:1001E000E4E6030808B5034B1BB103490348AFF32A
:1001F000008008BD00000000440E0020E4E6030873
:10020000704669460CF0B4FAFFF7FEFF81F000413A
:1002100002E000BF83F0004330B54FEA41044FEAEB
:10022000430594EA050F08BF90EA020F1FBF54EA86
:10023000000C55EA020C7FEA645C7FEA655C00F022
:10024000E2804FEA5454D4EB5555B8BF6D420CDDF3
:100250002C4480EA020281EA030382EA000083EA76
:10026000010180EA020281EA0303362D88BF30BD16
:1002700011F0004F4FEA01314FF4801C4CEA11316C
:1002800002D0404261EB410113F0004F4FEA0333CB
:100290004CEA133302D0524263EB430394EA050F56
:1002A00000F0A780A4F10104D5F1200E0DDB02FAC5
:1002B0000EFC22FA05F2801841F1000103FA0EF259
:1002C000801843FA05F359410EE0A5F120050EF11F
:1002D000200E012A03FA0EFC28BF4CF0020C43FA50
:1002E00005F3C01851EBE37101F0004507D54FF05D
:1002F000000EDCF1000C7EEB00006EEB0101B1F5AD
:10030000801F1BD3B1F5001F0CD349085FEA3000F2
:100310004FEA3C0C04F101044FEA445212F5800FFD
:1003200080F09A80BCF1004F08BF5FEA500C50F19A
:10033000000041EB045141EA050130BD5FEA4C0C7D
:10034000404141EB0101013C28BFB1F5801FE9D2DA
:1003500091F0000F04BF01460020B1FA81F308BFFD
:100360002033A3F10B03B3F120020CDA0C3208DDC9
:1003700002F1140CC2F10C0201FA0CF021FA02F1A4
:100380000CE002F11402D8BFC2F1200C01FA02F114
:1003900020FA0CFCDCBF41EA0C019040E41AA2BF39
:1003A00001EB0451294330BD6FEA04041F3C1CDA01
:1003B0000C340EDC04F11404C4F1200220FA04F021
:1003C00001FA02F340EA030021FA04F345EA0301CB
:1003D00030BDC4F10C04C4F1200220FA02F001FA8D
:1003E00004F340EA0300294630BD21FA04F029460F
:1003F00030BD94F0000F83F4801306BF81F48011A8
:100400000134013D4EE77FEA645C18BF7FEA655C1A
:1004100029D094EA050F08BF90EA020F05D054EAEC
:10042000000C04BF1946104630BD91EA030F1EBFF1
:100430000021002030BD5FEA545C05D140004941F5
:1004400028BF41F0004130BD14F580043CBF01F5E8
:10045000801130BD01F0004545F0FE4141F47001CE
:100460004FF0000030BD7FEA645C1ABF19461046A9
:100470007FEA655C1CBF0B46024650EA013406BFAA
:1004800052EA033591EA030F41F4002130BD00BF69
:1004900090F0000F04BF0021704730B54FF4806426
:1004A00004F132044FF000054FF0000150E700BFA7
:1004B00090F0000F04BF0021704730B54FF4806406
:1004C00004F1320410F0004548BF40424FF00001F3
:1004D0003EE700BF42004FEAE2014FEA31014FEA36
:1004E00002701FBF12F07F4393F07F4F81F0605185
:1004F000704732F07F4208BF704793F07F4F04BFD0
:1005000041F40021704730B54FF4607401F00045AC
:1005100021F000411CE700BF50EA010208BF70470C
:1005200030B54FF000050AE050EA010208BF7047FD
:1005300030B511F0004502D5404261EB41014FF466
:10054000806404F132045FEA915C3FF4D8AE4FF06E
:1005500003025FEADC0C18BF03325FEADC0C18BF51
:10056000033202EBDC02C2F1200300FA03FC20FAA2
:1005700002F001FA03FE40EA0E0021FA02F11444EF
:10058000BDE600BF70B54FF0FF0C4CF4E06C1CEA08
:1005900011541DBF1CEA135594EA0C0F95EA0C0F79
:1005A00000F0DEF82C4481EA030621EA4C5123EAEC
:1005B0004C5350EA013518BF52EA033541F480111B
:1005C00043F4801338D0A0FB02CE4FF00005E1FBCE
:1005D00002E506F00042E0FB03E54FF00006E1FB18
:1005E00003569CF0000F18BF4EF0010EA4F1FF045B
:1005F000B6F5007F64F5407404D25FEA4E0E6D419B
:1006000046EB060642EAC62141EA55514FEAC520AB
:1006100040EA5E504FEACE2EB4F1FD0C88BFBCF527
:10062000E06F1ED8BEF1004F08BF5FEA500E50F1D8
:10063000000041EB045170BD06F0004646EA01019E
:1006400040EA020081EA0301B4EB5C04C2BFD4EBD0
:100650000C0541EA045170BD41F480114FF0000EC9
:10066000013C00F3AB8014F1360FDEBF002001F037
:10067000004170BDC4F10004203C35DA0C341BDCB1
:1006800004F11404C4F1200500FA05F320FA04F083
:1006900001FA05F240EA020001F0004221F00041B7
:1006A00010EBD37021FA04F642EB06015EEA430E2A
:1006B00008BF20EAD37070BDC4F10C04C4F120055A
:1006C00000FA04F320FA05F001FA04F240EA02000D
:1006D00001F0004110EBD37041F100015EEA430EDE
:1006E00008BF20EAD37070BDC4F1200500FA05F2FE
:1006F0004EEA020E20FA04F301FA05F243EA02037D
:1007000021FA04F001F0004121FA04F220EA02008B
:1007100000EBD3705EEA430E08BF20EAD37070BDD1
:1007200094F0000F0FD101F00046400041EB0101B1
:1007300011F4801F08BF013CF7D041EA060195F093
:10074000000F18BF704703F00046520043EB03034D
:1007500013F4801F08BF013DF7D043EA060370473A
:1007600094EA0C0F0CEA135518BF95EA0C0F0CD045
:1007700050EA410618BF52EA4306D1D181EA03018B
:1007800001F000414FF0000070BD50EA410606BF85
:100790001046194652EA430619D094EA0C0F02D1CA
:1007A00050EA013613D195EA0C0F05D152EA03360F
:1007B0001CBF104619460AD181EA030101F000412D
:1007C00041F0FE4141F470014FF0000070BD41F076
:1007D000FE4141F4780170BD70B54FF0FF0C4CF450
:1007E000E06C1CEA11541DBF1CEA135594EA0C0F6F
:1007F00095EA0C0F00F0A7F8A4EB050481EA030EBC
:1008000052EA03354FEA013100F088804FEA0333A2
:100810004FF0805545EA131343EA12634FEA022270
:1008200045EA111545EA10654FEA00260EF0004131
:100830009D4208BF964244F1FD0404F5407402D283
:100840005B084FEA3202B61A65EB03055B084FEA14
:1008500032024FF480104FF4002CB6EB020E75EB11
:10086000030E22BFB61A754640EA0C005B084FEA39
:100870003202B6EB020E75EB030E22BFB61A7546B6
:1008800040EA5C005B084FEA3202B6EB020E75EB01
:10089000030E22BFB61A754640EA9C005B084FEA79
:1008A0003202B6EB020E75EB030E22BFB61A754686
:1008B00040EADC0055EA060E18D04FEA051545EA75
:1008C00016754FEA06164FEAC30343EA52734FEA1E
:1008D000C2025FEA1C1CC0D111F4801F0BD141EA97
:1008E00000014FF000004FF0004CB6E711F4801FFC
:1008F00004BF01430020B4F1FD0C88BFBCF5E06FDC
:100900003FF6AFAEB5EB030C04BFB6EB020C5FEAEB
:10091000500C50F1000041EB045170BD0EF0004E40
:100920004EEA113114EB5C04C2BFD4EB0C0541EA72
:10093000045170BD41F480114FF0000E013C90E66F
:1009400045EA060E8DE60CEA135594EA0C0F08BF33
:1009500095EA0C0F3FF43BAF94EA0C0F0AD150EA32
:1009600001347FF434AF95EA0C0F7FF425AF1046C5
:1009700019462CE795EA0C0F06D152EA03353FF4ED
:10098000FDAE1046194622E750EA410618BF52EA6A
:1009900043067FF4C5AE50EA41047FF40DAF52EA3E
:1009A00043057FF4EBAE12E74FF0FF3C06E000BFDB
:1009B0004FF0010C02E000BF4FF0010C4DF804CDE8
:1009C0004FEA410C7FEA6C5C4FEA430C18BF7FEAA8
:1009D0006C5C1BD001B050EA410C0CBF52EA430CD6
:1009E00091EA030F02BF90EA020F0020704710F156
:1009F000000F91EA030F58BF994208BF90422CBFE5
:100A0000D8176FEAE37040F0010070474FEA410CDD
:100A10007FEA6C5C02D150EA013C07D14FEA430CFB
:100A20007FEA6C5CD6D152EA033CD3D05DF8040B6C
:100A3000704700BF8446104662468C46194663469E
:100A400000E000BF01B5FFF7B7FF002848BF10F175
:100A5000000F01BD4DF808EDFFF7F4FF0CBF0120BA
:100A600000205DF808FB00BF4DF808EDFFF7EAFF36
:100A700034BF012000205DF808FB00BF4DF808EDF1
:100A8000FFF7E0FF94BF012000205DF808FB00BFE6
:100A90004DF808EDFFF7CEFF94BF012000205DF870
:100AA00008FB00BF4DF808EDFFF7C4FF34BF01207D
:100AB00000205DF808FB00BF4FEA410C7FEA6C5C48
:100AC00002D150EA013C0AD14FEA430C7FEA6C5C48
:100AD00002D152EA033C02D14FF0000070474FF0C0
:100AE000010070474FEA410212F5001215D211D5EC
:100AF0006FF47873B3EB625212D94FEAC12343F01B
:100B0000004343EA505311F0004F23FA02F018BF9C
:100B1000404270474FF00000704750EA013005D165
:100B200011F0004008BF6FF0004070474FF0000028
:100B3000704700BF4A0011D212F5001211D20DD534
:100B40006FF47873B3EB62520ED44FEAC12343F0D3
:100B5000004343EA505323FA02F070474FF000007D
:100B6000704750EA013002D14FF0FF3070474FF02C
:100B7000000070474FEA4102B2F1E04324BFB3F5F1
:100B8000001CDCF1FE5C0DD901F0004C4FEAC00204
:100B90004CEA5070B2F1004F40EB830008BF20F0E8
:100BA0000100704711F0804F21D113F13872BCBFA2
:100BB00001F00040704741F480114FEA5252C2F1F7
:100BC0001802C2F1200C10FA0CF320FA02F018BF40
:100BD00040F001004FEAC1234FEAD32303FA0CFC93
:100BE00040EA0C0023FA02F34FEA4303CCE77FEA22
:100BF000625307D150EA01331EBF4FF0FE4040F46C
:100C00004000704701F0004040F0FE4040F400001A
:100C1000704700BF7BB972B90029BEBF00204FF0FA
:100C2000004106E008BF00281CBF6FF000414FF0F4
:100C3000FF3000F0D3B9ADF1080C6DE904CE002906
:100C400009DB002B1ADB00F061F8DDF804E0DDE9D8
:100C5000022304B07047404261EB4101002B1BDBD3
:100C600000F054F8DDF804E0DDE9022304B040426E
:100C700061EB4101524263EB43037047524263EB25
:100C8000430300F043F8DDF804E0DDE9022304B09B
:100C9000404261EB41017047524263EB430300F075
:100CA00035F8DDF804E0DDE9022304B0524263EBDD
:100CB0004303704753B94AB9002908BF00281CBF35
:100CC0004FF0FF314FF0FF3000F088B9ADF1080C64
:100CD0006DE904CE00F01AF8DDF804E0DDE9022346
:100CE00004B07047430803F05533C01A830803F07B
:100CF000333300F03330184400EB101000F00F30A5
:100D000000EB002000EB0040000E70472DE9F0479B
:100D1000089D04468E46002B4DD18A42944669D9DF
:100D2000B2FA82F252B101FA02F3C2F1200120FAC2
:100D300001F10CFA02FC41EA030E94404FEA1C4810
:100D4000210CBEFBF8F61FFA8CF708FB16E341EA0C
:100D5000034306FB07F199420AD91CEB030306F192
:100D6000FF3080F01F81994240F21C81023E6344B3
:100D70005B1AA4B2B3FBF8F008FB103344EA034457
:100D800000FB07F7A7420AD91CEB040400F1FF336C
:100D900080F00A81A74240F207816444023840EAA9
:100DA0000640E41B00261DB1D4400023C5E90043E2
:100DB0003146BDE8F0878B4209D9002D00F0EF8065
:100DC0000026C5E9000130463146BDE8F087B3FA98
:100DD00083F6002E4AD18B4202D3824200F2F98080
:100DE000841A61EB030301209E46002DE0D0C5E983
:100DF000004EDDE702B9FFDEB2FA82F2002A40F0CF
:100E00009280A1EB0C014FEA1C471FFA8CFE0126D1
:100E1000200CB1FBF7F307FB131140EA01410EFB75
:100E200003F0884208D91CEB010103F1FF3802D21C
:100E3000884200F2CB804346091AA4B2B1FBF7F016
:100E400007FB101144EA01440EFB00FEA64508D939
:100E50001CEB040400F1FF3102D2A64500F2BB8076
:100E60000846A4EB0E0440EA03409CE7C6F12007C5
:100E7000B34022FA07FC4CEA030C20FA07F401FA0B
:100E800006F31C43F9404FEA1C4900FA06F3B1FB94
:100E9000F9F8200C1FFA8CFE09FB181140EA0141F9
:100EA00008FB0EF0884202FA06F20BD91CEB010196
:100EB00008F1FF3A80F08880884240F28580A8F1EE
:100EC00002086144091AA4B2B1FBF9F009FB101140
:100ED00044EA014100FB0EFE8E4508D91CEB0101DE
:100EE00000F1FF346CD28E456AD90238614440EA81
:100EF0000840A0FB0294A1EB0E01A142C846A64601
:100F000056D353D05DB1B3EB080261EB0E0101FA89
:100F100007F722FA06F3F1401F43C5E900710026E6
:100F20003146BDE8F087C2F12003D8400CFA02FC3C
:100F300021FA03F3914001434FEA1C471FFA8CFE4C
:100F4000B3FBF7F007FB10360B0C43EA064300FB3C
:100F50000EF69E4204FA02F408D91CEB030300F1DA
:100F6000FF382FD29E422DD9023863449B1B89B291
:100F7000B3FBF7F607FB163341EA034106FB0EF31A
:100F80008B4208D91CEB010106F1FF3816D28B42C7
:100F900014D9023E6144C91A46EA004638E72E4693
:100FA000284605E70646E3E61846F8E64B45A9D28B
:100FB000B9EB020864EB0C0E0138A3E74646EAE7FA
:100FC000204694E74046D1E7D0467BE7023B6144A8
:100FD00032E7304609E76444023842E7704700BF11
:100FE00001F0FF01102A2BDB10F0070F08D010F8DA
:100FF000013B013A8B422DD010F0070F42B3F6D1DE
:10100000F0B441EA012141EA014122F007047FF0F6
:1010100000070023F0E80256083C85EA010586EA4D
:10102000010685FA47F5A3FA87F586FA47F6A5FA89
:1010300087F68EB9EED1F0BC01F0FF0102F0070295
:1010400032B110F8013B013A83EA010313B1F8D140
:101050000020704701387047002D06BF3546033821
:10106000073815F0010F07D1013015F4807F02BF5A
:10107000013015F4C03F0130F0BC0138704700BFAB
:10108000844641EA000313F003036DD1403A41D393
:1010900051F8043B40F8043B51F8043B40F8043B52
:1010A00051F8043B40F8043B51F8043B40F8043B42
:1010B00051F8043B40F8043B51F8043B40F8043B32
:1010C00051F8043B40F8043B51F8043B40F8043B22
:1010D00051F8043B40F8043B51F8043B40F8043B12
:1010E00051F8043B40F8043B51F8043B40F8043B02
:1010F00051F8043B40F8043B51F8043B40F8043BF2
:1011000051F8043B40F8043B51F8043B40F8043BE1
:10111000403ABDD2303211D351F8043B40F8043B81
:1011200051F8043B40F8043B51F8043B40F8043BC1
:1011300051F8043B40F8043B103AEDD20C3205D391
:1011400051F8043B40F8043B043AF9D2043208D089
:10115000D2071CBF11F8013B00F8013B01D30B88FB
:1011600003806046704700BF082A13D38B078DD0D9
:1011700010F003038AD0C3F10403D21ADB071CBFAB
:1011800011F8013B00F8013B80D331F8023B20F815
:10119000023B7BE7043AD9D3013A11F8013B00F84E
:1011A000013BF9D20B7803704B7843708B788370D6
:1011B00060467047000000000000000000000000D2
:1011C000A2EB0300704700BF02780B78012A28BF0A
:1011D0009A42F5D16DE9044540EA0104CDE9026780
:1011E0006FF0000C4FEA447212B380EA010414F06D
:1011F000070F6AD100F0070420F0070004F0030590
:1012000021F007014FEAC505F0E8042314F0040FAC
:10121000F1E804670CFA05F462EA040266EA0406DF
:101220000AD063EA0403624667EA0407664603E0FD
:10123000F0E80423F1E8046782FA4CF582EA060438
:10124000A4FA8CF46CBB83FA4CF583EA0705A5FA83
:101250008CF595B950E9022351E9026782FA4CF501
:1012600082EA0604A4FA8CF483FA4CF583EA0705B3
:10127000A5FA8CF52543DBD09CB92DBAB5FA85F4D7
:1012800024F0070427FA04F1DDE9026723FA04F3E6
:1012900003F0FF0001F0FF01FDE80445A0EB0100B1
:1012A000704724BAB4FA84F424F0070426FA04F14F
:1012B000DDE9026722FA04F202F0FF0001F0FF010B
:1012C000FDE80445A0EB0100704714F0030F3CD18A
:1012D00010F0030428D150F8082B51F8083B82FA8B
:1012E0004CF582EA0305A5FA8CF55DB950F8042C9B
:1012F00051F8043C82FA4CF582EA0305A5FA8CF514
:10130000002DE8D02DBAB5FA85F424F0070423FAAD
:1013100004F122FA04F202F0FF0001F0FF01FDE8FF
:101320000445A0EB010070474FEAC40420F003001D
:1013300050F8082B21F0030151F8083B0CFA04F493
:1013400062EA040263EA0403C9E710F003041AD056
:10135000A1EB040120F00300E40750F8042B06D0B1
:101360000FD28B785FFAA2F4E41A06D12BB1CB78B6
:101370005FFAB2F4E41A00D11BB920465DF8104BB5
:10138000704701F1040150F8042BCC0721F0030150
:1013900051F8043B48D824D222F07F4482FA4CF51D
:1013A00094EA1325A5FA8CF50AD165B951F8043BE6
:1013B00084EA0204B4EB036F0ED150F8042BEBE780
:1013C0004FEA132355E035F07F454DD10878FDE80D
:1013D0000445C0F1000070474FEA126203F0FF03BA
:1013E00047E002EA1C4482FA4CF594EA1345A5FA58
:1013F0008CF50AD165B951F8043B84EA0204B4EBD8
:10140000034F0CD150F8042BEBE74FEA134330E0C5
:1014100015EA1C4528D10B884FEA124229E04FEA11
:10142000124203EA1C4324E002F0FF0482FA4CF566
:1014300094EA1365A5FA8CF50AD165B951F8043B15
:1014400084EA0204B4EB032F09D150F8042BEBE734
:101450004FEA13630DE015F0FF0F05D10B684FEA5B
:10146000122223F07F4304E04FF00000FDE8044522
:10147000704712BA1BBA82FA4CF482EA0304A4FA47
:101480008CF5B5FA85F402FA04F203FA04F34FEA94
:101490001260FDE80445A0EB1360704700000000F7
:1014A000000000000000000000000000000000003C
:1014B000000000000000000000000000000000002C
:1014C00090F800F06DE9024520F007016FF0000C84
:1014D00010F0070491F820F040F049804FF000042C
:1014E0006FF00700D1E9002391F840F000F1080007
:1014F00082FA4CF2A4FA8CF283FA4CF3A2FA8CF33F
:101500004BBBD1E9022382FA4CF200F10800A4FAA5
:101510008CF283FA4CF3A2FA8CF3E3B9D1E90423F9
:1015200082FA4CF200F10800A4FA8CF283FA4CF330
:10153000A2FA8CF37BB9D1E9062301F1200182FAEA
:101540004CF200F10800A4FA8CF283FA4CF3A2FAF0
:101550008CF3002BC6D0002A04BF04301A4612BAFE
:10156000B2FA82F2FDE8024500EBD2007047D1E901
:10157000002304F00305C4F100004FEAC50514F090
:10158000040F91F840F00CFA05F562EA05021CBF61
:1015900063EA050362464FF00004A9E738B500226C
:1015A000002304460D46FFF75FFA28B92046294676
:1015B000BDE8384000F00AB8204605F1004100F0CF
:1015C00005F8404261EB410138BD00BFD0B50C4B7E
:1015D000002206460F46FEF7D5FFFFF7ABFA04469A
:1015E000FEF756FF074B0022FEF7CCFF02460B46E4
:1015F00030463946FEF70EFEFFF79CFA2146D0BD75
:101600000000F03D0000F04180B582B002AF054B14
:101610000093054B22220549054831F00BF900BF24
:10162000BD4680BD64E70308C42B040800E7030837
:101630002CE7030880B400AF00231846BD465DF8D0
:10164000047B704780B582B000AF0346FB71FB7925
:10165000044918461CF0B8FD034618460837BD4635
:1016600080BD00BFD42B040880B584B000AF034612
:10167000FB7100233B7200237B720023BB72074B7C
:10168000FB6007F10802FB79114618461CF09CF933
:10169000002318461037BD4680BD00BF40420F00F2
:1016A00080B584B000AF0346B9607A60FB73FB7B02
:1016B000002B02D0012B05D009E07968B8681BF037
:1016C000B3FC07E07968B8681BF0E0FC02E06FF05B
:1016D000030300E0002318461037BD4680BD00001C
:1016E00080B596B002AF07F12003302200211846E2
:1016F00033F08CF907F10C0300221A605A609A60EB
:10170000DA601A610023BB602F4B1B6C2E4A43F03A
:10171000805313642C4B1B6C03F08053BB60BB687D
:1017200000237B60294B1B68284A43F480431360E5
:10173000264B1B6803F480437B607B6809233B6274
:101740004FF480337B6201237B630223BB634FF43E
:101750008003FB6304233B64A8237B640223BB64F4
:101760000723FB6407F1200318460FF05BF80346DC
:10177000002B07D0164B0093164B4F2216491748E3
:1017800031F058F80F23FB6002233B6100237B619B
:101790004FF4A053BB614FF48053FB6107F10C037E
:1017A000052118460FF0B6FA0346002B07D0084B68
:1017B0000093084B5C220849084831F03BF800BF11
:1017C0005037BD4680BD00BF003802400070004069
:1017D000CCE70308DC2B040868E7030894E7030858
:1017E00080B586B000AFF860B9607A603B600023D6
:1017F000FB75FB680E2B00F2A38001A252F823F0C8
:10180000571800083D180008711800084119000811
:101810004119000841190008411900081919000868
:10182000F31800083319000841190008D9180008F6
:101830004119000841190008BF180008BB68002BB7
:1018400006D13B68454A1A603B6802225A607FE035
:10185000FC23FB757CE0BB68002B06D13B68404A4B
:101860001A603B6802225A6072E0FC23FB756FE04D
:10187000BB68002B0ED13B683A4A1A603B680322D2
:101880005A603B680833384A1A603B6808330122C3
:101890005A605DE0BB68012B0ED13B68334A1A6089
:1018A0003B6803225A603B680833314A1A603B6840
:1018B000083302225A604BE0FC23FB7548E0BB680A
:1018C000002B06D13B682B4A1A603B6802225A6003
:1018D0003EE0FC23FB753BE0BB68002B06D13B6878
:1018E000254A1A603B6806225A6031E0FC23FB75EA
:1018F0002EE0BB68022B0CD8BA6813465B00134479
:101900005B001E4A1A443B681A603B6801225A6019
:101910001EE0FC23FB751BE0BB68002B06D13B6877
:10192000174A1A603B6806225A6011E0FC23FB75D7
:101930000EE03B68134A1A603B6804225A6007E0D5
:10194000FB68C4221049114830F074FFFC23FB757A
:1019500097F9173018461837BD4680BD1C2C04086F
:10196000102C0408282C04083C2C0408442C0408DF
:10197000582C0408642C0408702C0408F42B040868
:10198000082C0408942C0408AC2C0408D4E70308A1
:1019900080B588B000AFF860B9607A600023FB774B
:1019A000FB68022B1AD1BB68002B08D17B687B61D6
:1019B0007B69114A1A607B6901225A6016E0BB6894
:1019C000012B08D17B68BB61BB690C4A1A60BB69FB
:1019D00002225A600AE0FC23FB7707E0FB68DF2263
:1019E0000749084830F026FFFC23FB7797F91F30A2
:1019F00018462037BD4680BD3C2C0408582C0408EE
:101A0000C42C0408D4E7030880B590B004AF0346A3
:101A1000B9607A60FB73002387F82F30FB7B032BC0
:101A20004DD0032B5ADC012B02DC002B03DA55E0EE
:101A3000022B41D052E007F110031022002118467A
:101A400032F0E4FFBB681B0C7B62BB689BB23B625D
:101A500007F110037A68396A786AFFF7C1FE034616
:101A600087F82F300023BB6222E0BB6ADB003033F3
:101A70003B4453F8203C002B3BD0BB6ADB003033A7
:101A80003B4453F81C3C002B33D0BB6ADB003033A3
:101A90003B4453F8201CBB6ADB0030333B4453F813
:101AA0001C2CFB7B1846FFF7FBFDBB6A0133BB62B6
:101AB000BB6A012BD9D91CE0FFF712FE1AE0BB6804
:101AC0001B0C7B62BB689BB23B627A68396A786A9E
:101AD000FFF75EFF034687F82F300BE0FB7B4FF4E8
:101AE00082721149114830F0A5FEFC2387F82F308F
:101AF00000E000BF97F92F30002B0ED0FA7B97F94A
:101B00002F3002937B680193BB68009313464FF418
:101B100085720549064830F08DFE97F92F3018463A
:101B20003037BD4680BD00BFD42C0408FCE7030855
:101B300028E8030880B582B000AF7860396004F00F
:101B4000B5FC00BF0837BD4680BD000080B586B03B
:101B500002AF786039607B68022B0ADC0B4B019383
:101B60003B2300930A4B0B4A0B49012031F0F8FC50
:101B700009E03B685B68FB603B689B68BB60B968D9
:101B8000F86804F049FB1037BD4680BD98E80308AB
:101B9000342D040868E8030890E8030880B588B08D
:101BA00004AF786039607B68012B15DD3B685B68AA
:101BB000FB60F86803F054FDB860BB680393FB68F2
:101BC0000293074B019358230093064B064A07499B
:101BD000032031F0C5FC00E000BF1037BD4680BDDA
:101BE000B4E803083C2D040868E8030890E80308FB
:101BF00080B584B002AF786039607B68012B0CDD62
:101C000004F026FB074B019368230093064B074A19
:101C10000749032031F0A4FC00E000BF0837BD46AF
:101C200080BD00BFBCE80308442D040868E8030831
:101C300090E8030880B584B000AF786039607B68B5
:101C4000012B02D130F06CFF0AE03B6804331B68C3
:101C5000184632F0E9FCF860FB68184630F06CFF7B
:101C600000BF1037BD4680BD80B582B000AF786040
:101C7000396031F077F800BF0837BD4680BD0000FD
:101C800080B400AFBFF34F8F00BF064BDB6803F497
:101C9000E0620449044B1343CB60BFF34F8F00BF96
:101CA00000BFFDE700ED00E00400FA0580B582B05A
:101CB00000AF78603960FFF7E3FF0000B0B588B08F
:101CC00006AF78603960244B0393244B0293244B76
:101CD000019338230093234B234A2449032031F0F6
:101CE0003FFC05F0C7FD04462DF0E4FB03460393DB
:101CF00002941F4B0193392300931A4B1A4A1B4934
:101D0000032031F02DFC0AF02BFF04460AF034FFCB
:101D100005460AF03DFF0346049303950294154BD4
:101D200001933A2300930F4B0F4A1049032031F0DF
:101D300017FC0FF0DBF9034602930F4B01933B2393
:101D40000093084B084A0949032031F009FC00BF01
:101D50000837BD46B0BD00BFF8E8030800E9030836
:101D600008E90308EC2D0408C8E80308F0E80308B4
:101D700034E9030854E9030868E9030880B586B02C
:101D800000AF00237B6100237B6007F10803002282
:101D90001A60C3F80320104803F062FC3861386908
:101DA00032F046FC03467B617B6901337B617969D4
:101DB0000A4830F03FFD3B1D7A690949184632F068
:101DC0000DFF3B1D1946044804F026FA04F037FACB
:101DD00000BF1837BD4680BD78E9030884E90308D1
:101DE000A4E9030880B582B000AF4FF480637B6044
:101DF0007B68184632F0C8FD03463B607B681A4694
:101E00000021386832F002FE38682FF04BFF396845
:101E1000044830F00FFD386832F0BEFD00BF0837CF
:101E2000BD4680BDA8E9030880B483B000AF7860E8
:101E300039603B6807EE903AF8EEE77A7B68C3EDCD
:101E4000017A002318460C37BD465DF8047B7047C5
:101E500080B483B000AF78600B46FB70FB78092B31
:101E600001D9042303E07B68FA789A7200231846AC
:101E70000C37BD465DF8047B704780B483B000AF7B
:101E800078600B46FB70FB78022B01D9052303E039
:101E90007B68FA785A72002318460C37BD465DF805
:101EA000047B704780B584B000AF786039603B68D0
:101EB000002B26D00C2032F067FD0346FB60FB6848
:101EC0003A681A60FB6800229A607B689B68002B66
:101ED00006D17B68FA685A60FB6800225A6007E006
:101EE0007B689B68FA689A607B689A68FB685A60AE
:101EF0007B68FA689A607B681B685A1C7B681A606A
:101F000000E000BF1037BD4680BD80B485B000AF93
:101F1000786039607B685B68FB600023BB600CE025
:101F2000BA683B689A4202D1FB681B6809E0BB684B
:101F30000133BB60FB689B68FB60FB68002BEFD143
:101F4000002318461437BD465DF8047B704780B403
:101F500083B000AF78607B681B6818460C37BD46BD
:101F60005DF8047B7047000080B582B000AF7860F8
:101F700079680448FFF796FF002318460837BD46E6
:101F800080BD00BF5C0E002080B582B000AF7860DD
:101F900078682CF08DFA00BF0837BD4680BD000080
:101FA00080B584B000AF0346FB71FB790A22194665
:101FB00000201AF087FD0346FB81FB8907EE903A6B
:101FC000F8EE677A17EE900AFEF784FA0FA3D3E9CA
:101FD0000023FEF7D7FA02460B46104619464FF08B
:101FE0000002094BFEF7F8FB02460B461046194665
:101FF000FEF7C0FD034607EE903AB0EE670A1037D1
:10200000BD4680BDAFF300800000B04066666666E6
:1020100066660A402DE9B0438EB008AF78607B68F1
:102020001B683B617B68DB68FB607B689B69BB600E
:102030007B684FF000029A607B684FF000025A61A3
:102040007B684FF000021A6200237B6136E03B6937
:10205000DBB21846FFF7A4FFB0EE407A7B68D3ED01
:10206000027A77EE277A7B68C3ED027AFB68DBB2EF
:102070001846FFF795FFB0EE407A7B68D3ED057AFE
:1020800077EE277A7B68C3ED057ABB68334A9342C3
:102090000ED0BB68DBB21846FFF782FFB0EE407A85
:1020A0007B68D3ED087A77EE277A7B68C3ED087AF0
:1020B0000120FFF769FF7B6901337B617B69B3F521
:1020C0007A7FC4DB7B6893ED027ADFED256AC7EE89
:1020D000267A7B68C3ED027A7B6893ED057ADFEDA3
:1020E000206AC7EE267A7B68C3ED057ABB681B4A77
:1020F000934209D07B6893ED087ADFED196AC7EE49
:10210000267A7B68C3ED087A7B689B681846FEF7E1
:10211000E1F904460D467B685B691846FEF7DAF97B
:10212000804689467B681B6A1846FEF7D3F902464B
:102130000B46CDE90623CDE90489CDE90245094BDB
:1021400001933E230093084B084A0949042031F0CB
:1021500007FA00BF1837BD46BDE8B083C7CFFFFF01
:1021600000007A44F8E90308F82D0408ACE90308F4
:10217000F4E903082DE9B04388B008AF00201AF055
:1021800065FC304B5B6A1846FEF7A4F902460B4625
:102190004FF000002C49FEF71FFB02460B46144689
:1021A0001D46284B9B6A1846FEF794F902460B46DB
:1021B00020462946FEF710FB02460B4610461946FC
:1021C000FEF7D8FC03461F4AD3621E4BDB6A1D4A4A
:1021D00053601C4BD3ED0B7AF1EE677A194BC3EDCC
:1021E000047A184BDB6A174AD361164B5B681846B2
:1021F000FEF770F904460D46124B1B691846FEF7B0
:1022000069F9804689460F4BDB691846FEF762F98B
:1022100002460B46CDE90623CDE90489CDE9024506
:102220000A4B019349230093094B0A4A0A490420A7
:1022300031F096F90348FFF7EDFE00BFBD46BDE85B
:10224000B08300BF000000200000F03F28EA030830
:10225000142E0408ACE90308F4E9030880B594B02F
:1022600000AF374B1B68FB64354BDB68BB64344BFA
:102270009B697B64324B9B683B64314B5B69FB63BE
:102280002F4B1B6ABB632E4B5B687B632C4B1B691C
:102290003B632B4BDB69FB62FB6CDBB21846FFF741
:1022A0007FFEB0EE407AD7ED107A37EE677AD7ED41
:1022B0000D7A67EE277AC7ED057ABB6CDBB218465C
:1022C000FFF76EFEB0EE407AD7ED0F7A37EE677A01
:1022D000D7ED0C7A67EE277AC7ED067A7B6C194A40
:1022E00093420FD07B6CDBB21846FFF759FEB0EE7D
:1022F000407AD7ED0E7A37EE677AD7ED0B7A67EE34
:10230000277A01E0DFED107AC7ED077A07F12003A5
:1023100007F1140207CA83E80700396A7A6ABB6AC0
:1023200006EE901A07EE102A07EE903AB0EE660A13
:10233000F0EE470AB0EE671A5037BD4680BD00BFC9
:1023400000000020C7CFFFFF0000000080B500AFF5
:102350000248FFF709FE00BF80BD00BF300000202B
:1023600080B582B000AF786079680448FFF79AFDC5
:10237000002318460837BD4680BD00BF680E002008
:1023800080B582B000AF786079680448FFF78AFDB5
:10239000002318460837BD4680BD00BF740E0020DC
:1023A00080B582B002AF104810F094FD04210E48B1
:1023B00010F05AFE08210C4810F056FE0C210A4875
:1023C00010F052FE0122102108480BF0F5FF084BD7
:1023D000019315230093074B074A0849042031F065
:1023E000BFF800BFBD4680BDA829002000080240FC
:1023F000A8EA0308202E040860EA0308A0EA0308FC
:1024000090B583B000AF87ED010AC7ED000A786888
:10241000FEF760F812A3D3E90023FEF7B3F80246F3
:102420000B4611490C6810461946FEF783FB03461C
:10243000A3633868FEF74EF809A3D3E90023FEF73B
:10244000A1F802460B4608490C6810461946FEF7EB
:1024500071FB0346E36300BF0C37BD4690BD00BF70
:10246000000000000067B040A829002080B500AF40
:102470000122102102480BF09FFF00BF80BD00BF6A
:102480000008024080B500AF0022102102480BF086
:1024900093FF00BF80BD00BF0008024080B500AFC1
:1024A0000248FFF76DFF00BF80BD00BF4000002065
:1024B00080B582B002AF104810F00CFD04210E4828
:1024C00010F0D2FD08210C4810F0CEFD0C210A4876
:1024D00010F0CAFD0122102108480BF06DFF084BD7
:1024E000019315230093074B074A0849042031F054
:1024F00037F800BFBD4680BDA82900200008024073
:1025000014EB0308282E0408CCEA03080CEB03089C
:1025100090B585B000AF87ED030AC7ED020A87EDDD
:10252000011AF868FDF7D6FF1BA3D3E90023FEF7D5
:1025300029F802460B461A490C6810461946FEF760
:10254000F9FA0346A363B868FDF7C4FF12A3D3E901
:102550000023FEF717F802460B4611490C68104697
:102560001946FEF7E7FA0346E3637868FDF7B2FF22
:1025700009A3D3E90023FEF705F802460B460849F4
:102580000C6810461946FEF7D5FA0346236400BFCF
:102590001437BD4690BD00BF000000000067B0408A
:1025A000A829002080B485B000AFF860B9607A60D7
:1025B00000BF1437BD465DF8047B704780B500AF9F
:1025C0000122102102480BF0F7FE00BF80BD00BFC2
:1025D0000008024080B500AF0022102102480BF035
:1025E000EBFE00BF80BD00BF0008024080B500AF19
:1025F0000248FFF7B5FE00BF80BD00BF54000020B9
:1026000080B582B002AF104810F064FC04210E487F
:1026100010F02AFD08210C4810F026FD0C210A4874
:1026200010F022FD0122102108480BF0C5FE084BD6
:10263000019315230093074B074A0849042030F003
:102640008FFF00BFBD4680BDA829002000080240C2
:1026500080EB0308302E040838EB030878EB0308FE
:1026600090B587B000AF87ED010AC7ED000A4FF0C3
:1026700000037B614FF000033B614FF00003FB6000
:102680004FF00003BB60D7ED017AF5EEC07AF1EEB2
:1026900010FA26DDD7ED017AFDEEE77A17EE903AD3
:1026A000002BB8BF5B4207EE903AF8EEE77AB7EE40
:1026B000007AF4EEC77AF1EE10FA02DDF7EE007A56
:1026C0000CE0D7ED017AFDEEE77A17EE903A002B99
:1026D000B8BF5B4207EE903AF8EEE77AC7ED047AAE
:1026E00025E0D7ED017AFDEEE77A17EE903A002B60
:1026F000B8BF5B4207EE903AF8EEE77AB7EE007AA1
:10270000F4EEC77AF1EE10FA02DDF7EE007A0CE093
:10271000D7ED017AFDEEE77A17EE903A002BB8BFBD
:102720005B4207EE903AF8EEE77AC7ED057AD7ED0F
:10273000007AF5EEC07AF1EE10FA26DDD7ED007AD8
:10274000FDEEE77A17EE903A002BB8BF5B4207EE3A
:10275000903AF8EEE77AB7EE007AF4EEC77AF1EE47
:1027600010FA02DDF7EE007A0CE0D7ED007AFDEE0C
:10277000E77A17EE903A002BB8BF5B4207EE903A2B
:10278000F8EEE77AC7ED027A25E0D7ED007AFDEEA4
:10279000E77A17EE903A002BB8BF5B4207EE903A0B
:1027A000F8EEE77AB7EE007AF4EEC77AF1EE10FAB7
:1027B00002DDF7EE007A0CE0D7ED007AFDEEE77A65
:1027C00017EE903A002BB8BF5B4207EE903AF8EE56
:1027D000E77AC7ED037A7869FDF77CFE24A3D3E995
:1027E0000023FDF7CFFE02460B4623490C68104636
:1027F0001946FEF79FF90346A3633869FDF76AFEA1
:102800001BA3D3E90023FDF7BDFE02460B461A4980
:102810000C6810461946FEF78DF90346E363F86825
:10282000FDF758FE12A3D3E90023FDF7ABFE0246E5
:102830000B4611490C6810461946FEF77BF9034612
:10284000E363B868FDF746FE09A3D3E90023FDF76B
:1028500099FE02460B4608490C6810461946FEF7D9
:1028600069F90346E36300BF1C37BD4690BD00BF56
:10287000000000000067B040A829002080B500AF2C
:102880000122102102480BF097FD00BF80BD00BF60
:102890000008024080B500AF0022102102480BF072
:1028A0008BFD00BF80BD00BF0008024080B500AFB7
:1028B0000248FFF765FD00BF80BD00BF6C0000202F
:1028C00080B582B002AF104810F004FB04210E481E
:1028D00010F0CAFB08210C4810F0C6FB0C210A4876
:1028E00010F0C2FB0122102108480BF065FD084BD7
:1028F000019315230093074B074A0849042030F041
:102900002FFE00BFBD4680BDA82900200008024060
:10291000ECEB0308382E0408A4EB0308E4EB0308EF
:1029200090B585B000AF87ED030AC7ED020A87EDC9
:10293000011AF868FDF7CEFD1BA3D3E90023FDF7CC
:1029400021FE02460B461A490C6810461946FEF74E
:10295000F1F80346A363B868FDF7BCFD12A3D3E901
:102960000023FDF70FFE02460B4611490C68104686
:102970001946FEF7DFF80346E3637868FDF7AAFD22
:1029800009A3D3E90023FDF7FDFD02460B460849E4
:102990000C6810461946FEF7CDF80346236400BFC5
:1029A0001437BD4690BD00BF000000000067B04076
:1029B000A829002080B485B000AFF860B9607A60C3
:1029C00000BF1437BD465DF8047B704780B500AF8B
:1029D0000122102102480BF0EFFC00BF80BD00BFB8
:1029E0000008024080B500AF0022102102480BF021
:1029F000E3FC00BF80BD00BF0008024080B500AF0F
:102A00000248FFF7ADFC00BF80BD00BF8000002082
:102A100080B582B000AF78607B681B68184600F014
:102A200019F80346002B08D07B681B681946074835
:102A30002FF000FF4FF0FF3304E079680448FFF700
:102A400031FA002318460837BD4680BD10EC030854
:102A5000800E002090B587B000AF78601848FFF76F
:102A600076FA38610023FB6000237B611CE0796902
:102A70001348FFF74AFAF860FB68002B19D0FB688F
:102A80001C68FB681B681846FEF71AFD03461A46C9
:102A90002146786832F0DCF90346002B01D1FB684F
:102AA00009E07B6901337B617B693A699A42DED830
:102AB00000E000BF002318461C37BD4690BD00BF94
:102AC000800E002080B400AF034B9B681846BD46C3
:102AD0005DF8047B704700BF10E000E080B485B073
:102AE00000AF7860FB8918461437BD465DF8047B5B
:102AF0007047000080B586B002AF7860184B019334
:102B000037230093174B184A1849032030F028FD4B
:102B10007B685B68FB60FB68002B1DD0FB684FF493
:102B200080421A607B689B681846FFF7D7FF034610
:102B30001A46FB68DA607B681B6978689847F0EE94
:102B4000407AFB68C3ED057AFB684FF000021A611A
:102B5000FB6800229A6100E000BF1037BD4680BDCF
:102B600078EC0308402E04082CEC030870EC0308F2
:102B7000B0B584B000AF78607B685B68FB60FB68D1
:102B8000002B02D14FF0000379E07B689B68184668
:102B9000FFF7A4FF03461A46FB685A60FB685A68B1
:102BA000FB68DB68D31A1A46FB689A60FB689B686F
:102BB000002BB8BF5B421846FDF77AFC04460D4671
:102BC000FB681B681846FDF763FC31A3D3E90023BB
:102BD000FDF7D8FC02460B4620462946FDF762FF6A
:102BE0000346002B1CD0FB681B691846FDF772FCDE
:102BF00002460B46F9688968002903DD26A1D1E960
:102C0000000102E026A1D1E90001FDF705FB024623
:102C10000B4610461946FDF7ADFF0246FB681A61E8
:102C2000FB685A68FB68DA60FB681B691846FDF7A9
:102C300051FC04460D46FB685B6807EE903AB8EE1F
:102C4000677AFB681B6807EE903AF8EE677AC7EE82
:102C5000276A16EE900AFDF73DFC11A3D3E9002385
:102C6000FDF790FC02460B4620462946FDF7D4FAB4
:102C700002460B4610461946FDF77CFF034607EE59
:102C8000903AB0EE670A1037BD46B0BDAFF3008092
:102C90009A9999999999E93FEA2E4454FB2119C0D0
:102CA000EA2E4454FB21194080B588B000AF78600B
:102CB0007B685B68BB61BB69002B02D14FF00003EE
:102CC00072E0FFF7FFFE7861BB699B697A699A42FF
:102CD0001DD2BB699A697B69D31A07EE903AF8EE68
:102CE000677AB2EE027AC7EE876A16EE900AFDF7AF
:102CF000F1FB32A3D3E90023FDF744FC02460B4667
:102D000010461946FDF736FF0346FB6120E0BB691C
:102D10009A697B69D31A03F1FF1303F57F4307EE2A
:102D2000903AF8EE677AB2EE027AC7EE876A16EE4C
:102D3000900AFDF7CFFB21A3D3E90023FDF722FC86
:102D400002460B4610461946FDF714FF0346FB6189
:102D5000D7ED077AF5EE407AF1EE10FA08D0D7ED0C
:102D6000077AB6EE007AF4EEC77AF1EE10FA01DDDA
:102D7000114BFB617B681B697868984787ED040AF3
:102D8000BB69D3ED057A97ED047A77EE676A97ED24
:102D9000077AC6EE877AC7ED037ABB693A695A614A
:102DA000BB697A699A61FB6807EE903AB0EE670AF0
:102DB0002037BD4680BD00BF6F12833A8DEDB5A0B0
:102DC000F7C6B03E80B483B000AF786000231846E9
:102DD0000C37BD465DF8047B7047000080B500AF3E
:102DE0000248FFF715FE00BF80BD00BFAC00002009
:102DF00080B400AF034B9B681846BD465DF8047B6A
:102E0000704700BF10E000E080B485B000AF78608C
:102E10000023FB81FB8918461437BD465DF8047B0F
:102E20007047000080B586B002AF7860184B019300
:102E300025230093174B184A1849032030F090FBC4
:102E40007B685B68FB60FB68002B1DD0FB6840F271
:102E5000FF321A607B689B681846FFF7D5FF034670
:102E60001A46FB68DA607B681B6978689847F0EE61
:102E7000407AFB68C3ED057AFB684FF000021A61E7
:102E8000FB6800229A6100E000BF1037BD4680BD9C
:102E9000D8EC0308502E04088CEC0308D0EC03088F
:102EA000B0B584B000AF78607B685B68FB60FB689E
:102EB000002B02D14FF0000379E07B689B68184635
:102EC000FFF7A2FF03461A46FB685A60FB685A6880
:102ED000FB68DB68D31A1A46FB689A60FB689B683C
:102EE000002BB8BF5B421846FDF7E2FA04460D46D8
:102EF000FB681B681846FDF7CBFA31A3D3E9002322
:102F0000FDF740FB02460B4620462946FDF7CAFD69
:102F10000346002B1CD0FB681B691846FDF7DAFA44
:102F200002460B46F9688968002903DD26A1D1E92C
:102F3000000102E026A1D1E90001FDF76DF902468A
:102F40000B4610461946FDF715FE0246FB681A614E
:102F5000FB685A68FB68DA60FB681B691846FDF776
:102F6000B9FA04460D46FB685B6807EE903AB8EE86
:102F7000677AFB681B6807EE903AF8EE677AC7EE4F
:102F8000276A16EE900AFDF7A5FA11A3D3E90023EC
:102F9000FDF7F8FA02460B4620462946FDF73CF9B4
:102FA00002460B4610461946FDF7E4FD034607EEC0
:102FB000903AB0EE670A1037BD46B0BDAFF300805F
:102FC0009A9999999999E93FEA2E4454FB2119C09D
:102FD000EA2E4454FB21194080B588B000AF7860D8
:102FE0007B685B68BB61BB69002B02D14FF00003BB
:102FF00072E0FFF7FDFE7861BB699B697A699A42CE
:103000001DD2BB699A697B69D31A07EE903AF8EE34
:10301000677AB2EE027AC7EE876A16EE900AFDF77B
:1030200059FA32A3D3E90023FDF7ACFA02460B4666
:1030300010461946FDF79EFD0346FB6120E0BB6983
:103040009A697B69D31A03F1FF1303F57F4307EEF7
:10305000903AF8EE677AB2EE027AC7EE876A16EE19
:10306000900AFDF737FA21A3D3E90023FDF78AFA86
:1030700002460B4610461946FDF77CFD0346FB61F0
:10308000D7ED077AF5EE407AF1EE10FA08D0D7EDD9
:10309000077AB6EE007AF4EEC77AF1EE10FA01DDA7
:1030A000114BFB617B681B697868984787ED040AC0
:1030B000BB69D3ED057A97ED047A77EE676A97EDF1
:1030C000077AC6EE877AC7ED037ABB693A695A6117
:1030D000BB697A699A61FB6807EE903AB0EE670ABD
:1030E0002037BD4680BD00BF6F12833A8DEDB5A07D
:1030F000F7C6B03E80B483B000AF786000231846B6
:103100000C37BD465DF8047B7047000080B500AF0A
:103110000248FFF77DFC00BF80BD00BFDC0000203F
:1031200080B400AF034B9B681846BD465DF8047B36
:10313000704700BF10E000E080B586B002AF786055
:103140000C23FB730023BB817B685B68D8B27B6870
:103150009B689BB25B0099B27B68DB6807F10F024A
:10316000009301231AF062F97B685B68D8B27B6830
:103170009B689BB25B0099B27B68DB6807F10C022D
:10318000009302231AF092F93B7B9BB21B029AB286
:103190007B7B9BB213449BB218461037BD4680BD63
:1031A00080B588B002AF78601D4B0193282300934F
:1031B0001C4B1D4A1D49032030F0D2F97B685B6827
:1031C0007B617B69002B27D000233B73184B3B614D
:1031D00007F10C03194600201AF0E8F87B694FF458
:1031E00080521A607B689B681846FFF7A5FF03466C
:1031F0001A467B69DA607B681B6978689847F0EE4D
:10320000407A7B69C3ED057A7B694FF000021A6151
:103210007B6900229A6100E000BF1837BD4680BD7F
:1032200040ED0308602E0408F8EC030838ED0308AD
:10323000A086010000000000B0B58CB008AF786037
:103240007B685B68FB60FB68002B02D14FF00003DA
:1032500092E07B689B681846FFF76EFF03461A46AC
:10326000FB685A60FB685A68FB68DB68D31A1A4629
:10327000FB689A60FB689B681846FDF719F90246DF
:103280000B46144623F00045FB681B681846FDF703
:10329000FFF845A3D3E90023FDF774F902460B4676
:1032A00020462946FDF7FEFB0346002B35D0FB6880
:1032B0009C68FB681B691846FDF70CF902460B4633
:1032C000F96849680691CDE904230294324B0193D1
:1032D00048230093314B324A3249042030F040F900
:1032E000FB681B691846FDF7F5F802460B46F968BE
:1032F0008968002903DD24A1D1E9000102E024A1AD
:10330000D1E90001FCF788FF02460B46104619463A
:10331000FDF730FC0246FB681A61FB685A68FB68DF
:10332000DA60FB681B691846FDF7D4F804460D46C1
:10333000FB685B6807EE903AB8EE677AFB681B683B
:1033400007EE903AF8EE677AC7EE276A16EE900A13
:10335000FDF7C0F80EA3D3E90023FDF713F90246E9
:103360000B4620462946FCF757FF02460B461046FF
:103370001946FDF7FFFB034607EE903AB0EE670AE9
:103380001037BD46B0BD00BFEA2E4454FB2119C022
:10339000EA2E4454FB2119404CED03086C2E04081E
:1033A000F8EC030838ED03089A9999999999E93F3F
:1033B00080B588B000AF78607B685B68BB61BB6933
:1033C000002B02D14FF0000372E0FFF7A9FE7861F5
:1033D000BB699B697A699A421DD2BB699A697B690C
:1033E000D31A07EE903AF8EE677AB2EE027AC7EE99
:1033F000876A16EE900AFDF76DF832A3D3E9002331
:10340000FDF7C0F802460B4610461946FDF7B2FB21
:103410000346FB6120E0BB699A697B69D31A03F11B
:10342000FF1303F57F4307EE903AF8EE677AB2EEAA
:10343000027AC7EE876A16EE900AFDF74BF821A3D1
:10344000D3E90023FDF79EF802460B4610461946C5
:10345000FDF790FB0346FB61D7ED077AF5EE407A66
:10346000F1EE10FA08D0D7ED077AB6EE007AF4EE56
:10347000C77AF1EE10FA01DD114BFB617B681B6925
:103480007868984787ED040ABB69D3ED057A97ED14
:10349000047A77EE676A97ED077AC6EE877AC7ED0A
:1034A000037ABB693A695A61BB697A699A61FB68B8
:1034B00007EE903AB0EE670A2037BD4680BD00BFE8
:1034C0006F12833A8DEDB5A0F7C6B03E80B483B0DD
:1034D00000AF7860002318460C37BD465DF8047BCA
:1034E0007047000080B500AF0348FFF791FA03482A
:1034F000FFF78EFA00BF80BD200100203C010020B4
:1035000080B400AF034B9B681846BD465DF8047B52
:10351000704700BF10E000E080B584B000AF786075
:103520007B689B68DBB20A221946002019F0CAFAB0
:103530000346FB81FB8918461037BD4680BD00005D
:1035400080B586B002AF78601A4B019323230093B5
:10355000194B1A4A1A49032030F002F8002019F0DA
:1035600075FA7B685B68FB60FB68002B1DD0FB680D
:1035700040F2FF321A607B689B681846FFF7CCFF69
:1035800003461A46FB68DA607B681B6978689847CF
:10359000F0EE407AFB68C3ED057AFB684FF000025D
:1035A0001A61FB6800229A6100E000BF1037BD4637
:1035B00080BD00BFECED03087C2E04089CED0308E1
:1035C000E4ED030800000000B0B584B000AF7860FF
:1035D0007B685B68FB60FB68002B02D14FF0000347
:1035E00079E07B689B681846FFF796FF03461A460A
:1035F000FB685A60FB685A68FB68DB68D31A1A4696
:10360000FB689A60FB689B681846FCF751FF02460E
:103610000B46144623F00045FB681B681846FCF770
:1036200037FF31A3D3E90023FCF7ACFF02460B467A
:1036300020462946FDF736FA0346002B1CD0FB68CE
:103640001B691846FCF746FF02460B46F968896875
:10365000002903DD26A1D1E9000102E026A1D1E97C
:103660000001FCF7D9FD02460B4610461946FDF74E
:1036700081FA0246FB681A61FB685A68FB68DA60E7
:10368000FB681B691846FCF725FF04460D46FB68DE
:103690005B6807EE903AB8EE677AFB681B6807EE46
:1036A000903AF8EE677AC7EE276A16EE900AFCF7B2
:1036B00011FF11A3D3E90023FCF764FF02460B4678
:1036C00020462946FCF7A8FD02460B46104619463F
:1036D000FDF750FA034607EE903AB0EE670A10374E
:1036E000BD46B0BDAFF300809A9999999999E93F89
:1036F000EA2E4454FB2119C0EA2E4454FB21194000
:1037000080B588B000AF78607B685B68BB61BB69DF
:10371000002B02D14FF0000372E0FFF7F1FE786159
:10372000BB699B697A699A421DD2BB699A697B69B8
:10373000D31A07EE903AF8EE677AB2EE027AC7EE45
:10374000876A16EE900AFCF7C5FE32A3D3E9002380
:10375000FCF718FF02460B4610461946FDF70AFA19
:103760000346FB6120E0BB699A697B69D31A03F1C8
:10377000FF1303F57F4307EE903AF8EE677AB2EE57
:10378000027AC7EE876A16EE900AFCF7A3FE21A321
:10379000D3E90023FCF7F6FE02460B461046194615
:1037A000FDF7E8F90346FB61D7ED077AF5EE407ABD
:1037B000F1EE10FA08D0D7ED077AB6EE007AF4EE03
:1037C000C77AF1EE10FA01DD114BFB617B681B69D2
:1037D0007868984787ED040ABB69D3ED057A97EDC1
:1037E000047A77EE676A97ED077AC6EE877AC7EDB7
:1037F000037ABB693A695A61BB697A699A61FB6865
:1038000007EE903AB0EE670A2037BD4680BD00BF94
:103810006F12833A8DEDB5A0F7C6B03E80B483B089
:1038200000AF7860002318460C37BD465DF8047B76
:103830007047000080B500AF0248FFF7E9F800BF0D
:1038400080BD00BF6C01002080B400AF034B9B68BB
:103850001846BD465DF8047B704700BF10E000E0ED
:1038600080B586B002AF78600023BB817B685B685F
:10387000DBB24FF47A72012118461AF0DDF87B684A
:103880005B68DBB218461AF029F97B685B68D8B22E
:103890007B68DB6807F10E0207F10C01009302233D
:1038A0001AF06EF97B685B68DBB218461AF050F9C3
:1038B0007B685B68DBB218461AF0F9F8FB8918469A
:1038C0001037BD4680BD000080B588B002AF78607B
:1038D0001F4B01932C2300931E4B1F4A1F490320AB
:1038E0002FF03EFE7B685B687B617B69002B2BD0F1
:1038F00000233B7300237B730023BB73184B3B6196
:1039000007F10C03194601201AF05EF87B694FF4A9
:1039100080321A607B689B681846FFF7A1FF034658
:103920001A467B69DA607B681B6978689847F0EE15
:10393000407A7B69C3ED057A7B694FF000021A611A
:103940007B6900229A6100E000BF1837BD4680BD48
:103950005CEE0308882E040814EE030854EE0308F6
:1039600040420F0000000000B0B584B000AF7860A6
:103970007B685B68FB60FB68002B02D14FF00003A3
:1039800079E07B689B681846FFF76AFF03461A4692
:10399000FB685A60FB685A68FB68DB68D31A1A46F2
:1039A000FB689A60FB689B68002BB8BF5B421846B7
:1039B000FCF77EFD04460D46FB681B681846FCF7C5
:1039C00067FD31A3D3E90023FCF7DCFD02460B467B
:1039D00020462946FDF766F80346002B1CD0FB68FD
:1039E0001B691846FCF776FD02460B46F9688968A4
:1039F000002903DD26A1D1E9000102E026A1D1E9D9
:103A00000001FCF709FC02460B4610461946FDF77B
:103A1000B1F80246FB681A61FB685A68FB68DA6015
:103A2000FB681B691846FCF755FD04460D46FB680C
:103A30005B6807EE903AB8EE677AFB681B6807EEA2
:103A4000903AF8EE677AC7EE276A16EE900AFCF70E
:103A500041FD11A3D3E90023FCF794FD02460B4678
:103A600020462946FCF7D8FB02460B46104619466D
:103A7000FDF780F8034607EE903AB0EE670A10377C
:103A8000BD46B0BDAFF300809A9999999999E93FE5
:103A9000EA2E4454FB2119C0EA2E4454FB2119405C
:103AA00080B588B000AF78607B685B68BB61BB693C
:103AB000002B02D14FF0000372E0FFF7C5FE7861E2
:103AC000BB699B697A699A421DD2BB699A697B6915
:103AD000D31A07EE903AF8EE677AB2EE027AC7EEA2
:103AE000876A16EE900AFCF7F5FC32A3D3E90023AF
:103AF000FCF748FD02460B4610461946FDF73AF81A
:103B00000346FB6120E0BB699A697B69D31A03F124
:103B1000FF1303F57F4307EE903AF8EE677AB2EEB3
:103B2000027AC7EE876A16EE900AFCF7D3FC21A34F
:103B3000D3E90023FCF726FD02460B461046194642
:103B4000FDF718F80346FB61D7ED077AF5EE407AEA
:103B5000F1EE10FA08D0D7ED077AB6EE007AF4EE5F
:103B6000C77AF1EE10FA01DD114BFB617B681B692E
:103B70007868984787ED040ABB69D3ED057A97ED1D
:103B8000047A77EE676A97ED077AC6EE877AC7ED13
:103B9000037ABB693A695A61BB697A699A61FB68C1
:103BA00007EE903AB0EE670A2037BD4680BD00BFF1
:103BB0006F12833A8DEDB5A0F7C6B03E80B483B0E6
:103BC00000AF7860002318460C37BD465DF8047BD3
:103BD0007047000080B500AF0248FEF719FF00BF34
:103BE00080BD00BF9C01002080B400AF034B9B68E8
:103BF0001846BD465DF8047B704700BF10E000E04A
:103C000080B485B000AF78600023FB81FB89184643
:103C10001437BD465DF8047B7047000080B586B060
:103C200002AF7860184B01933B230093174B184A5F
:103C3000184903202FF094FC7B685B68FB60FB68ED
:103C4000002B1DD0FB684FF400421A607B689B6814
:103C50001846FFF7D5FF03461A46FB68DA607B6813
:103C60001B6978689847F0EE407AFB68C3ED057AE7
:103C7000FB684FF000021A61FB6800229A6100E0C5
:103C800000BF1037BD4680BDBCEE0308942E04086B
:103C90006CEE0308B0EE0308B0B584B000AF7860F6
:103CA0007B685B68FB60FB68002B02D14FF0000370
:103CB00079E07B689B681846FFF7A2FF03461A4627
:103CC000FB685A60FB685A68FB68DB68D31A1A46BF
:103CD000FB689A60FB689B681846FCF7E9FB0246A4
:103CE0000B46144623F00045FB681B681846FCF79A
:103CF000CFFB31A3D3E90023FCF744FC02460B467B
:103D000020462946FCF7CEFE0346002B1CD0FB685C
:103D10001B691846FCF7DEFB02460B46F96889680A
:103D2000002903DD26A1D1E9000102E026A1D1E9A5
:103D30000001FCF771FA02460B4610461946FCF7E3
:103D400019FF0246FB681A61FB685A68FB68DA6073
:103D5000FB681B691846FCF7BDFB04460D46FB6873
:103D60005B6807EE903AB8EE677AFB681B6807EE6F
:103D7000903AF8EE677AC7EE276A16EE900AFCF7DB
:103D8000A9FB11A3D3E90023FCF7FCFB02460B4679
:103D900020462946FCF740FA02460B4610461946D3
:103DA000FCF7E8FE034607EE903AB0EE670A1037DC
:103DB000BD46B0BDAFF300809A9999999999E93FB2
:103DC000EA2E4454FB2119C0EA2E4454FB21194029
:103DD00080B588B000AF78607B685B68BB61BB6909
:103DE000002B02D14FF0000372E0FFF7FDFE786177
:103DF000BB699B697A699A421DD2BB699A697B69E2
:103E0000D31A07EE903AF8EE677AB2EE027AC7EE6E
:103E1000876A16EE900AFCF75DFB32A3D3E9002314
:103E2000FCF7B0FB02460B4610461946FCF7A2FE13
:103E30000346FB6120E0BB699A697B69D31A03F1F1
:103E4000FF1303F57F4307EE903AF8EE677AB2EE80
:103E5000027AC7EE876A16EE900AFCF73BFB21A3B5
:103E6000D3E90023FCF78EFB02460B4610461946A9
:103E7000FCF780FE0346FB61D7ED077AF5EE407A4A
:103E8000F1EE10FA08D0D7ED077AB6EE007AF4EE2C
:103E9000C77AF1EE10FA01DD114BFB617B681B69FB
:103EA0007868984787ED040ABB69D3ED057A97EDEA
:103EB000047A77EE676A97ED077AC6EE877AC7EDE0
:103EC000037ABB693A695A61BB697A699A61FB688E
:103ED00007EE903AB0EE670A2037BD4680BD00BFBE
:103EE0006F12833A8DEDB5A0F7C6B03E80B483B0B3
:103EF00000AF7860002318460C37BD465DF8047BA0
:103F00007047000080B500AF0248FEF781FD00BF9A
:103F100080BD00BFCC01002080B400AF034B9B6884
:103F20001846BD465DF8047B704700BF10E000E016
:103F300080B400AF064B5B69B3F1FF3F14BF0123B0
:103F40000023DBB21846BD465DF8047B704700BF16
:103F5000E801002080B500AFFFF7EAFF0346002B21
:103F600006D0054B1B7FDBB2002B01D1012300E003
:103F70000023184680BD00BF340F002080B586B0F6
:103F800002AF7860314B01937B230093304B314A71
:103F9000314903202FF0E4FA7B685B68FB60FB6823
:103FA000002B4FD0FB6800229A60FB680022DA6089
:103FB000FB684FF08A421A60FB6800221A61FB68B6
:103FC00000225A61FB6800229A61FB684FF00002F0
:103FD0001A62FB684FF000025A62FB6800229A6284
:103FE000FFF79AFF03461A46FB68DA62FB68002275
:103FF0001A71FB6800229A60FFF78EFF03461A468B
:10400000FB68DA60FB684FF000021A62FB684FF051
:1040100000025A62FB6800229A62FFF77DFF0346A6
:104020001A46FB68DA62FB681B79002B0BD1FB6830
:10403000D3ED007AB1EE007A67EE877AFB68C3EDC4
:10404000007A00E000BF1037BD4680BD1CEF0308BA
:10405000A42E0408D0EE030814EF030800000000AB
:10406000B0B584B000AF78607B685B68FB60FB68CC
:10407000002B02D14FF000031FE0FB689B6818463D
:10408000FCF716FA10A3D3E90023FCF77BFA0246EB
:104090000B4614461D46FB681B681846FCF71AFAC7
:1040A00002460B4620462946FCF796FB02460B4685
:1040B00010461946FCF75EFD034607EE903AB0EE57
:1040C000670A1037BD46B0BDEA2E4454FB211940A3
:1040D00080B58AB000AF78607B685B683B623B6A02
:1040E000002B02D14FF00003A3E0FFF715FF0346BA
:1040F000FB613B6ADB6AFA69D31A1846FCF7D8F908
:104100004FA3D3E90023FCF73DFA02460B461046C5
:104110001946FCF72FFD03467B62D7ED097AF5EED1
:10412000C07AF1EE10FA08D9D7ED097AB6EE007A26
:10413000F4EEC77AF1EE10FA01DD474B7B623B6A81
:10414000DB68FA69D31A1846FCF7B2F93CA3D3E945
:104150000023FCF717FA02460B4610461946FCF7F7
:1041600009FD0346BB613B6A9A683B6A9B6AD31AA6
:104170007B613B6A93ED087AD7ED097A37EE277AAF
:10418000D7ED067A77EE677AC7ED047A7B69002B64
:1041900016D097ED097AF0EE006AC7EE267A97ED11
:1041A000047AB4EEE77AF1EE10FA09DD7B6907EEE6
:1041B000903AF8EEE76A97ED047AC6EE877A02E065
:1041C0003B6AD3ED097A3B6AC3ED097AB869FCF71B
:1041D00081F91DA3D3E90023FCF764FC0346002BFF
:1041E00003D03B6A4FF000025A623B6A93ED097AB2
:1041F0003B6AD3ED007AC7EE276A16EE900AFCF709
:1042000069F913A3D3E90023FCF7BCF902460B4676
:1042100010461946FCF7AEFC0346FB603B6AFA69A0
:10422000DA623B6ABA691A623B6A9A683B6A9A62C6
:10423000FB6807EE903AB0EE670A2837BD4680BDAE
:104240008DEDB5A0F7C6B03E9A9999999999B93F65
:10425000EA2E4454FB2119406F12833A80B500AF17
:104260000248FEF7D5FB00BF80BD00BF140200204E
:1042700080B400AF034B9B681846BD465DF8047BD5
:10428000704700BF10E000E080B582B000AFFFF7DC
:10429000EFFF03467B60414B5B69DAB23F4B1B6922
:1042A000DBB25B00DBB21344DAB23C4BDB68DBB25F
:1042B0009B00DBB21344DBB2FB70384B1B7F5BB25D
:1042C00097F903209A4265D0344AFB781377334B31
:1042D0001B7F5BB21A46324B9B5CBB7097F9023076
:1042E0002E4A527F52B29B1A032B0CDD2B4BFF221E
:1042F00083F82820294B1B6A284A92F92820134466
:10430000264A136223E097F90230244A527F52B2C0
:104310009B1A13F1030F0CDA204B012283F828209B
:104320001E4B1B6A1D4A92F9282013441B4A136234
:104330000DE01A4B5B7F5BB297F902209A4201DDD8
:10434000012201E04FF0FF32144B83F82820134A7A
:10435000BB785377114B93F92820124B93F9003017
:104360009A4206D10D4B9B687A68D31A0B4A936127
:1043700002E00A4B00229A61084A7B689360074B6F
:104380005B6A0133054A5362044B93F92820054BBD
:104390001A7000E000BF0837BD4680BD640F0020E2
:1043A000B02E0408900F002080B586B002AF786070
:1043B000294B01936E230093284B294A2949032056
:1043C0002FF0CEF87B685B68FB60FB68002B3ED06B
:1043D000FB6808225A60FB685A6813465B00134466
:1043E0005B001A46FB681A60FB6800221A621E4BCB
:1043F0001B681D4A526892B21146184609F0C4FF64
:1044000003461A46FB68DA60174B9B68164AD26867
:1044100092B21146184609F0B7FF03461A46FB68E8
:104420001A61114B1B69104A526992B21146184623
:1044300009F0AAFF03461A46FB685A61FFF724FFFA
:10444000FFF716FF03461A46FB689A6000E000BFBC
:104450001037BD4680BD00BF78EF0308B82E0408B2
:1044600030EF030870EF0308300200200000000066
:1044700080B584B000AF78607B685B68FB60FB68E8
:10448000002B02D14FF000031EE0FB681A6A1346AE
:104490005B0013445B001A46FB685B7F5BB213440E
:1044A0001A46FB681B68B2FBF3F31846FBF7F0FFF4
:1044B00009A3D3E90023FCF765F802460B46104632
:1044C0001946FCF757FB034607EE903AB0EE670A31
:1044D0001037BD4680BD00BFEA2E4454FB21194071
:1044E000B0B584B000AF78607B685B68FB60FB6848
:1044F000002B02D14FF0000345E0FB689B69002BC5
:1045000009D0FFF7B5FE0246FB689B68D31AFA682C
:104510009269934202D94FF0000334E0FB6893F9AB
:1045200028301846FBF7C4FF04460D46FB681B689D
:104530001846FBF7ADFF02460B4617A1D1E9000173
:10454000FCF74AF902460B4620462946FCF71AF8C2
:1045500002460B4614461D46FB689B691846FBF74E
:10456000A7FF0FA3D3E90023FCF736F902460B4659
:1045700020462946FCF730F902460B4610461946FC
:10458000FCF7F8FA034607EE903AB0EE670A1037E8
:10459000BD46B0BDAFF30080EA2E4454FB21194064
:1045A0000000000080842E4180B483B000AF7860AA
:1045B000002318460C37BD465DF8047B70470000A9
:1045C00080B500AF0248FEF723FA00BF80BD00BFF0
:1045D0005C02002080B588B004AF786039607B68E9
:1045E000012B1FDD3B6804331B68184630F01CF8B4
:1045F000F860FB68002B17DBFB68092B14DCFB68F9
:1046000002930B4B0193202300930A4B0A4A0B4958
:1046100003202EF0A5FFFB68DBB219460848FDF722
:1046200017FC02E000BF00E000BF1037BD4680BDB0
:10463000D8EF0308242F0408A0EF0308D0EF0308E5
:10464000940F002080B588B004AF786039607B6833
:10465000012B1FDD3B6804331B6818462FF0E4FF75
:10466000F860FB68002B17DBFB68022B14DCFB688F
:1046700002930B4B0193312300930A4B0A4A0B49D7
:1046800003202EF06DFFFB68DBB219460848FDF7EA
:10469000F4FB02E000BF00E000BF1037BD4680BD64
:1046A000E8EF03083C2F0408A0EF0308D0EF03084D
:1046B000940F002080B588B004AF786039607B68C3
:1046C000012B22DD3B6804331B6818462FF0A8FF3E
:1046D00087ED030AF868FBF7FDFE02460B46CDE9BD
:1046E00002230C4B01933D2300930B4B0B4A0C49C7
:1046F00003202EF035FFD7ED037AFDEEE77A17EEB3
:10470000901A0848FDF790FB00E000BF1037BD4647
:1047100080BD00BF00F00308502F0408A0EF03087D
:10472000D0EF0308940F002080B582B000AF78600E
:10473000084829F0D8FE02467B681A607B681B682F
:10474000002B01D0002301E04FF0FF33184608375B
:10475000BD4680BD7C2F040880B582B000AF786074
:1047600039607B681B683968184629F042FF0346A8
:10477000002B01D1002301E04FF0FF33184608372A
:10478000BD4680BD80B582B000AF78607B681B6895
:10479000184629F079FF0346002B01D1002301E0E0
:1047A0004FF0FF3318460837BD4680BD80B584B052
:1047B00000AF786039600023FB737B68064A1A609B
:1047C0003B6802221A600548FFF7AEFFFB7B1846E4
:1047D0001037BD4680BD00BF642F0408981100202B
:1047E00080B586B000AFF860B9607A600023FB75D1
:1047F00015F0FCF93861BB687A68F968386915F01A
:10480000C5FBFB7D18461837BD4680BD80B584B01A
:1048100000AF786039600023FB730023BB7315F091
:10482000E5F9B8607B68C3F30B03002B00D0FEE70B
:104830003A687968B86815F0C3FC0346BB73BB7B64
:10484000002B01D00123FB73FB7B18461037BD46BC
:1048500080BD80B586B000AFF860B9607A60002393
:10486000FB750023BB7515F0C1F93861BB687A6828
:10487000F968386915F0AEFF0346BB75BB7D002BA8
:1048800001D00323FB75FB7D18461837BD4680BD5C
:1048900080B500AF4FF0FF310248FFF75DFF00BF6A
:1048A00080BD00BF9811002080B500AF0248FFF71F
:1048B00069FF00BF80BD00BF981100200FB480B415
:1048C00000AF00BFBD465DF8047B04B070470FB475
:1048D00080B400AF00BFBD465DF8047B04B07047F4
:1048E00080B584B000AF0023BB600023FB731C4B7A
:1048F0001B78002B01D000232DE007F108023B1D9F
:1049000011461846FFF752FF0346FB73FB7B002B53
:1049100007D17B68BA681146184601F0BFFE03460E
:10492000FB73FB7B002B03D101F00CFF0346FB73F1
:10493000FB7B002B07D10A4B01221A7009490A4858
:10494000FFF7BCFF03E007490848FFF7B7FF084837
:10495000FFF7B4FFFB7B18461037BD4680BD00BF94
:104960009C1100202CF0030834F003085CF00308CD
:1049700080F0030880B586B000AFF860B9607A6057
:104980004FF0FF337B61BB680733DB081A46FF211A
:10499000F86830F03BF87B68002B1AD07B68013B4D
:1049A000DB087B61FA687B6913441A787B68013BFA
:1049B00003F00703802141FA03F3DBB2DB43DBB2F0
:1049C0001340DAB2F9687B690B4402F07F02D2B27D
:1049D0001A707B6918461837BD4680BD80B485B013
:1049E00000AF786039600023FB603B68013B3B60AF
:1049F0003B68BB6011E03B68DB087A6813441B78B6
:104A000019463B6803F00703802242FA03F30B4088
:104A1000002B08D0FB680133FB603B685A1E3A60EC
:104A2000002BE8D100E000BFBA68FB68D31A184633
:104A30001437BD465DF8047B704780B586B000AF83
:104A4000F860B9607A603B600023FB753A687B6868
:104A50009A4200D3FEE7BB68002B00D1FEE73A681C
:104A60007968B868FFF786FF38613B69B3F1FF3FAB
:104A700001D100230CE0FA683B69D018BA683B69A1
:104A8000134401221946FFF7E4FE0346FB75FB7D44
:104A900018461837BD4680BD80B584B000AFF860B9
:104AA000B9607A60BB68002B00D1FEE77B680733F2
:104AB000DB081A46B968F868FFF792FE7968B868AB
:104AC000FFF78CFF034618461037BD4680BD000037
:104AD00080B485B000AF786039600423BB600023E8
:104AE000FB603BE03A687B689A4225D97B6803F516
:104AF00080533A689A421FD2234AFB6852F83330F7
:104B00007A689A420BD12049FB687A6841F83320D1
:104B10001D4AFB68DB0013443A685A602FE01A4ACA
:104B2000FB6852F83330B3F1FF3F13D1BB68042B5D
:104B300010D1FB68BB600DE0134AFB6852F83330BC
:104B40007A689A4207D1104AFB684FF0FF3142F869
:104B5000331014E000BFFB680133FB60FB68032BDC
:104B6000C0D9BB68032B0AD80749BB687A6841F8EB
:104B70003320054ABB68DB0013443A685A60143797
:104B8000BD465DF8047B70473012002080B485B0CC
:104B900000AF786039600023FB6015E00F4AFB68C6
:104BA00052F833307A689A420BD13B68002B06D01A
:104BB0000A4AFB68DB0013445A683B681A60012309
:104BC00006E0FB680133FB60FB68032BE6D900239A
:104BD00018461437BD465DF8047B7047301200203C
:104BE00080B588B000AFF860B9607A601023BB610F
:104BF00010237B61BA68F968002002F0C3FA03460B
:104C00001B0C3B824FF6FF737B820023FB6164E049
:104C10007B68B3F1FF3F48D0474AFB6932F8333035
:104C20003A8A9A4206D1444AFB69DB0013447A6807
:104C30005A607EE0404AFB69DB0013445B68B3F1D5
:104C4000FF3F05D1BB69102B02D1FB69BB6141E07D
:104C5000394AFB69DB0013445B68B3F1FF3F39D08D
:104C6000354AFB69DB0013445B88002B0CD0324AC9
:104C7000FB69DB0013445B88013B99B22E4AFB6958
:104C8000DB0013440A465A802B4AFB69DB001344BD
:104C90005B887A8A9A421DD9FB697B61264AFB6947
:104CA000DB0013445B887B8214E0234AFB6932F803
:104CB00033303A8A9A420DD11F4AFB69DB00134414
:104CC0004FF0FF325A601C4AFB69DB00134400229C
:104CD0005A802EE0FB690133FB61FB690F2B97D9EA
:104CE000BB690F2B11D8144ABB69DB0013447A68E7
:104CF0005A601149BB693A8A21F833200E4ABB69D0
:104D0000DB00134400225A8013E07B690F2B10D87C
:104D1000094A7B69DB0013447A685A6006497B695B
:104D20003A8A21F83320044A7B69DB0013440022CD
:104D30005A802037BD4680BDB011002080B58EB0AE
:104D400000AFF860B9607A60BA68F968002002F0D4
:104D500019FA03461B0C7B8600237B634EE02B4A2B
:104D60007B6BDB0013445B68B3F1FF3F43D0274A02
:104D70007B6B32F833307A8E9A423CD1234A7B6B7C
:104D8000DB0013445B68183307F11001202218463A
:104D9000FFF726FD07F11003BA681946F86830F0EE
:104DA00057F80346002B26D1184A7B6BDB001344CF
:104DB0005A687B681A60154A7B6BDB0013445B887A
:104DC0004FF6EE72934207D9104A7B6BDB00134417
:104DD0004FF6FF725A800CE00C4A7B6BDB001344E9
:104DE0005B88103399B2094A7B6BDB0013440A4697
:104DF0005A80012306E07B6B01337B637B6B0F2BB7
:104E0000ADD9002318463837BD4680BDB01100200B
:104E100080B58EB000AF78603960002387F83730F6
:104E20007B68FB6235E07B6820333A689A4202D99E
:104E30002023BB6203E03A687B68D31ABB6207F1A8
:104E40000803BA6A19467868FFF7CAFC00233B6377
:104E500018E097F83730FF2B0AD007F108023B6BB8
:104E600013441B78FF2B03D17A683B6B1344FB621E
:104E700007F108023B6B13441B7887F837303B6B14
:104E800001333B633A6BBB6A9A42E2D37B682033BF
:104E90007B607A683B689A42C5D397F83730FF2B1E
:104EA00001D1FB6A00E03B6818463837BD4680BD3B
:104EB00080B58EB000AF786039607B683B637B68FB
:104EC00023F47F6323F00F0307F10802114618460D
:104ED000FFF75CFE0346002B4ED0BB687A689A420F
:104EE0004AD14FF0FF334DE007F10C032022194661
:104EF0007868FFF775FC00237B6331E007F10C0253
:104F00007B6B13441B781A467B6B013338333B446D
:104F100013F82C3C1B021A447B6B023338333B449E
:104F200013F82C3C1B041A447B6B033338333B448B
:104F300013F82C3C1B061344FB62FB6A134A934292
:104F40000BD17A687B6B1344043B3A6B9A4204D8CA
:104F50007A687B6B1344043B14E07B6B01337B6307
:104F60007B6B1B2B05D87A687B6B13443A689A429B
:104F7000C4D87B681C337B607A683B689A42B3D3A1
:104F80004FF0FF3318463837BD4680BD4B5634309E
:104F900080B584B000AF786039604FF0FF33FB60BC
:104FA0007B685B78012B02D14FF0FF333BE03B681D
:104FB0001B6BB3F1FF3F04D17B685B681033FB6070
:104FC00030E03B681A6B7B685B6803F580539A425C
:104FD00025D83B685B78002B06D03B681A6B3B6892
:104FE0009B681344FB6003E03B681B6B0133FB6071
:104FF0007B685B6803F57F631946F868FFF758FF25
:10500000F8607B685B6803F58053FA689A4203D8BE
:105010003B689B68002B05D14FF0FF3303E04FF056
:10502000FF3300E0FB6818461037BD4680BD80B5F1
:1050300096B000AF786000237B65002387F853307B
:105040007B681B6B07F1280118221846FFF7C8FB85
:1050500007F1280306211846FFF7C0FC0346DAB221
:105060007B681A703A6B7B689A607B689B68B3F1C7
:10507000FF3F08D07B689B68B3F5005F03D87B686F
:105080009B680F2B16D87B6818229A607B681B7868
:10509000052B0AD07B6805221A707B68186B07F114
:1050A000280105230622FFF7C8FC7B6800225A70FE
:1050B000022364E07B689B68B3F57F6F05D97B684A
:1050C0009B68B3F5005F00D2FEE77B689B68103BEE
:1050D0007B640023FB640023BB6422E0FB6C203371
:1050E0007A6C9A4202D92023BB6403E07A6CFB6C91
:1050F000D31ABB647B681A6BFB6C1344103307F143
:105100000801BA6C1846FFF76BFB07F10803BA6C8D
:105110001946786D02F036F87865FA6CBB6C13446A
:10512000FB64FA6C7B6C9A42D8D37B6B7A6D9A42A3
:1051300006D07B6800225A70022387F853301CE0A7
:105140007B6801225A707B681B6B18333B647B6859
:10515000103397F838201946386CFFF741FB97F861
:1051600038301A463B6C1A447B685A63FA6B7B688A
:10517000DA6097F838207B689A7097F853301846B1
:105180005837BD4680BD000080B598B000AFF860CC
:10519000B9601346FB71002387F85F30FB68C3F3E7
:1051A0000B03002B00D0FEE7BB68002B00D1FEE70D
:1051B00007F1480310221946F868FFF711FBBB6896
:1051C000FA685A60FA6CBB689A60BB689B685E4A72
:1051D000934208D0BB6800221A70BB684FF0FF32C0
:1051E000DA600723ABE0BB6801221A703A6DBB6836
:1051F000DA6007F1480304211846FFF7EFFB034686
:10520000DAB2BB685A7007F148030133042118462B
:10521000FFF7E4FB0346DAB2BB689A70FB79002B18
:1052200000F08B80BB6800221A61BB685B6803F1E9
:105230001002BB685A61BB685B78012B04D1BB6864
:105240004FF47F621A6178E0BB685B78022B74D1FF
:10525000BB6814331946F868FFF798FC0346002B27
:105260000BD0BB685A68BB685B69D31A03F58052E0
:10527000BB681A6197F85F3061E0BB684FF47F62EA
:105280001A614FF0FF333B6428E007F11003184622
:10529000FFF7CDFE7B7C83F00103DBB2002B11D046
:1052A0003B7C012B0ED03B7C052B0BD03B6C194675
:1052B0002648FFF703FBBB6800221A61022387F828
:1052C0005F3017E0BB685A69BB691A44BB685A6112
:1052D000BB681A69BB69D21ABB681A6107F110036F
:1052E0001946B868FFF754FE03463B643B6CB3F1C4
:1052F000FF3FCAD1BB685A69BB685B6803F580533E
:1053000019461046FFF784FDB865BB685B69BA6D46
:105310009A420AD0BB68BA6D5A61BB685A68BB6DC5
:10532000D31A03F58052BB681A61BB685A68BB6820
:105330005B6919461046FFF7CBFB97F85F301846BC
:105340006037BD4680BD00BF45463430CCF0030811
:1053500080B485B000AF78607B685B68B3F1FF3FD5
:1053600002D1134B1B681CE07B68DB68B3F1FF3F85
:1053700005D17B685B6803F58053FB6006E07B68C2
:105380005A687B68DB681B031344FB60084B1B688F
:1053900003F50053FA689A4201D2FB6801E04FF02E
:1053A000FF3318461437BD465DF8047B704700BFD5
:1053B000A011002080B58CB000AFF860B9607A60B1
:1053C0003B604FF0FF33BB6132E007F11403002272
:1053D0001946F86AFFF7D8FE0346002B00D027E0F5
:1053E0003B68002B00D123E07B7D022B02D07B7D2C
:1053F000032B1DD1FB684FF0FF321A630AE0F868F7
:10540000FFF715FE3B687A68B968F8689847034665
:10541000002B18D107F11403F9681846FFF7B8FDFF
:105420000246FB681A63FB681B6BB3F1FF3FE6D1D2
:1054300007F114031846FFF78BFFF862FB6AB3F11C
:10544000FF3FC2D100E000BF3037BD4680BD80B510
:1054500088B000AFF860B9607A60BB68FB617B68B8
:10546000BB61F869FCF72CF87861FB689B781A46F9
:105470007B69934201D0002317E0FB685B78002B27
:1054800012D0FB681B78022B0ED1FB6810337A69AF
:10549000F96918462FF0DCFC0346002B04D1BB69E8
:1054A00001221A70012300E0002318462037BD4670
:1054B00080BD000080B584B000AF78603960002303
:1054C000FB7307F10F02054B79683868FFF772FF2D
:1054D000FB7B18461037BD4680BD00BF4F54000807
:1054E00080B584B000AF786039600023FB737868C2
:1054F000FBF7E6FFB8603B6830331A46B968786856
:10550000FFF71CFC0346002B04D03868FFF78FFD23
:10551000012310E039687868FFF7CCFF0346FB737E
:10552000FB7B002B06D03B681B6B1A46B96878687A
:10553000FFF756FBFB7B18461037BD4680BD80B495
:1055400085B000AF786039600023FB600BE07A68BB
:10555000FB6813441B78203B5E2B01D9002307E036
:10556000FB680133FB60FA683B689A42EFD3012382
:1055700018461437BD465DF8047B704780B594B07B
:1055800000AFF860B9607A603B600023FB6407F10C
:1055900010031946F868FFF7A3FF0346002B2AD033
:1055A0003B68002B02D0FA693B681A60FB697A6895
:1055B0009A4202D9FB69FB6401E07B68FB64BB682B
:1055C000002B1ED0F86C2FF0DFF90346BB64FA6C99
:1055D0000021B86C2FF01AFA7B6CFA6CB96C184683
:1055E000FFF7FEF8FA6CB96CB868FBF749FDB86CC8
:1055F0002FF0D2F905E03B68002B02D03B68002277
:105600001A60FB6C18465037BD4680BD80B586B029
:1056100000AFF860B9607A603B6000237B610E4B9D
:105620001B7883F00103DBB2002B04D00B48FFF79B
:1056300045F900230BE0FFF72BF93B687A68B9685E
:10564000F868FFF79BFF7861FFF72EF97B69184632
:105650001837BD4680BD00BFAC110020FCF0030828
:1056600080B584B000AF786000238022114978684B
:10567000FFF7CCFFF860FB68002B15D0F9680D48E8
:10568000FFF75DFF0346002B09D00A4AFB6813446D
:1056900000221A7007482FF0BFFB034605E00648BA
:1056A000FFF70CF9002300E0002318461037BD4631
:1056B00080BD00BF5012002018F1030880B584B0EF
:1056C00000AF786039600023FB733968012306223C
:1056D0007868FFF7B2F90346FB73FB7B002B01D020
:1056E000FB7B0AE07B68181D3B68043314221946D3
:1056F000FFF7AFF80346FB73FB7B18461037BD4638
:1057000080BD000080B588B000AF786039600023AC
:10571000FB777B68C3F30B03002B00D0FEE74FF44D
:1057200080517868FFF772F80346FB77FB7F002B08
:105730002CD107F10C031022FF2118462FF066F937
:1057400007F10C03012204211846FFF713F907F1B2
:105750000C030133012204211846FFF70BF90E4B0D
:105760003B613B687B614FF0FF33BB6107F10C038A
:10577000102219467868FFF76CF80346FB777B68C0
:1057800003F5805319467868FFF7A2F9FB7F1846A6
:105790002037BD4680BD00BF4546343080B586B059
:1057A00000AFF860B9607A600023FB75FB685B7836
:1057B000012B0AD1FB68586807F114010223042267
:1057C000FFF73BF90346FB752EE0FB685B78022B85
:1057D0002AD1FB681B69372B05D9FB681A69BB689E
:1057E000D31A372B1AD8FB68586807F11401032322
:1057F0000422FFF722F90346FB75FB685A68FB6831
:105800005B6803F5805319461046FFF761F97B6822
:10581000002B09D07B6801221A7005E07B68002B01
:1058200002D07B6800221A70FB7D18461837BD46EF
:1058300080BD80B586B000AFF8607A603B600B46F3
:10584000FB72FB684FF0FF325A6022E00022F968D9
:105850007869FFF799FCFB7A002B04D0FB685B7832
:10586000FA7A9A4215D197F82430002B06D097F88F
:1058700024301A46F9687869FFF786FC3B6A002BEA
:1058800007D03B6A3A687968F86898470346002B66
:1058900008D1F868FFF75CFD78617B69B3F1FF3FE1
:1058A000D4D100E000BF1837BD4680BD80B487B0BA
:1058B00000AFF860B9607A60BB687B617B683B6170
:1058C000FB681B78002B09D0FB685B78012B05D1A6
:1058D0007B691B685A1C7B691A600CE0FB681B78AB
:1058E000002B08D0FB685B78022B04D13B691B6856
:1058F0005A1C3B691A60002318461C37BD465DF8E8
:10590000047B704780B487B000AFF860B9607A60FC
:10591000BB687B617B683B61FB681B78002B1AD0FE
:10592000FB681A697B691B689A4214D9FB689B78EB
:10593000012B0AD0FB689B78022B0CD1094B1B78FA
:1059400083F00103DBB2002B05D0FB685A693B6989
:105950001A60012300E0002318461C37BD465DF89D
:10596000047B7047AD11002080B588B002AF78602D
:1059700039604FF0FF337B6100233B610023FB6004
:1059800007F10C0307F11002002101911A4900915F
:1059900000217868FFF74DFFFB68002B0AD007F164
:1059A00014033A46012101911449009102217868BB
:1059B000FFF73FFF3B69002B19D07B69B3F1FF3F35
:1059C00015D13B69012B03D80D4B1B78002B0BD055
:1059D00007F114033A460121019108490091012180
:1059E0007868FFF726FF02E0054B01221A707B69F9
:1059F00018461837BD4680BDAD5800080559000847
:105A0000AD11002080B596B000AFF860B9601346C4
:105A1000FB71002387F85730BB68002B0ED107F1CC
:105A200014031946F868FFF75BFD0346002B03D00B
:105A300007F11403BB6001E004236AE0FB7983F003
:105A40000103DBB2002B0ED0BB68186B07F14C01D1
:105A500003230622FEF7F1FF034687F857302F4B4A
:105A600001221A7033E0BB68186B07F14C01042364
:105A70000622FEF7E2FF034687F85730274B1B78D4
:105A800083F00103DBB2002B1ED097F85730002BB8
:105A90001AD1FB68002B0AD0F868FBF711FD03460A
:105AA0004FF0FF321946F868FFF79AF80CE0BB6830
:105AB000002B09D0BB6803F11000BB689B784FF046
:105AC000FF321946FFF78CF8144B00221A70BB689E
:105AD0001B6B23F47F6323F00F0301333B6597F8BF
:105AE0005730002B13D107F14C0304221946386DAF
:105AF000FEF7D2FF0346012B09D107F14C01022327
:105B00000422386DFEF799FF034687F8573097F85F
