:020000040800F2
:10000000000002207D290008E1210008010200080B
:10001000E7210008ED210008F3210008000000009E
:1000200000000000000000000000000081530108F3
:10003000F921000800000000D1550108072200083E
:10004000CD290008CD290008CD290008CD290008B8
:10005000CD290008CD290008CD290008CD290008A8
:10006000CD290008CD290008CD290008CD29000898
:10007000CD290008CD290008CD290008CD29000888
:10008000CD290008CD290008CD290008CD29000878
:10009000CD290008CD290008CD290008CD29000868
:1000A000CD290008CD290008CD290008CD29000858
:1000B000CD290008CD2900081D220008CD290008FF
:1000C000CD290008CD290008CD290008CD29000838
:1000D000CD29000831220008CD290008CD290008CB
:1000E000CD290008CD290008CD290008CD29000818
:1000F000CD290008CD290008CD290008CD29000808
:10010000CD29000845220008CD290008CD29000886
:10011000CD290008CD290008CD290008CD290008E7
:10012000CD290008CD290008CD2900085922000852
:10013000CD2900080000000000000000CD290008C3
:10014000CD290008CD290008CD2900086D2200081E
:10015000CD29000881220008CD290008CD290008FA
:10016000CD290008CD290008CD290008CD29000897
:10017000CD290008CD290008000000000000000083
:08018000CD290008CD2900087B
:1001C00010B5054C237833B9044B13B10448AFF391
:1001D00000800123237010BD0012002000000000E9
:1001E000647B030808B5034B1BB103490348AFF315
:1001F000008008BD0000000004120020647B03089A
:10020000704669461FF064F8FFF7FEFF81F0004179
:1002100002E000BF83F0004330B54FEA41044FEAEB
:10022000430594EA050F08BF90EA020F1FBF54EA86
:10023000000C55EA020C7FEA645C7FEA655C00F022
:10024000E2804FEA5454D4EB5555B8BF6D420CDDF3
:100250002C4480EA020281EA030382EA000083EA76
:10026000010180EA020281EA0303362D88BF30BD16
:1002700011F0004F4FEA01314FF4801C4CEA11316C
:1002800002D0404261EB410113F0004F4FEA0333CB
:100290004CEA133302D0524263EB430394EA050F56
:1002A00000F0A780A4F10104D5F1200E0DDB02FAC5
:1002B0000EFC22FA05F2801841F1000103FA0EF259
:1002C000801843FA05F359410EE0A5F120050EF11F
:1002D000200E012A03FA0EFC28BF4CF0020C43FA50
:1002E00005F3C01851EBE37101F0004507D54FF05D
:1002F000000EDCF1000C7EEB00006EEB0101B1F5AD
:10030000801F1BD3B1F5001F0CD349085FEA3000F2
:100310004FEA3C0C04F101044FEA445212F5800FFD
:1003200080F09A80BCF1004F08BF5FEA500C50F19A
:10033000000041EB045141EA050130BD5FEA4C0C7D
:10034000404141EB0101013C28BFB1F5801FE9D2DA
:1003500091F0000F04BF01460020B1FA81F308BFFD
:100360002033A3F10B03B3F120020CDA0C3208DDC9
:1003700002F1140CC2F10C0201FA0CF021FA02F1A4
:100380000CE002F11402D8BFC2F1200C01FA02F114
:1003900020FA0CFCDCBF41EA0C019040E41AA2BF39
:1003A00001EB0451294330BD6FEA04041F3C1CDA01
:1003B0000C340EDC04F11404C4F1200220FA04F021
:1003C00001FA02F340EA030021FA04F345EA0301CB
:1003D00030BDC4F10C04C4F1200220FA02F001FA8D
:1003E00004F340EA0300294630BD21FA04F029460F
:1003F00030BD94F0000F83F4801306BF81F48011A8
:100400000134013D4EE77FEA645C18BF7FEA655C1A
:1004100029D094EA050F08BF90EA020F05D054EAEC
:10042000000C04BF1946104630BD91EA030F1EBFF1
:100430000021002030BD5FEA545C05D140004941F5
:1004400028BF41F0004130BD14F580043CBF01F5E8
:10045000801130BD01F0004545F0FE4141F47001CE
:100460004FF0000030BD7FEA645C1ABF19461046A9
:100470007FEA655C1CBF0B46024650EA013406BFAA
:1004800052EA033591EA030F41F4002130BD00BF69
:1004900090F0000F04BF0021704730B54FF4806426
:1004A00004F132044FF000054FF0000150E700BFA7
:1004B00090F0000F04BF0021704730B54FF4806406
:1004C00004F1320410F0004548BF40424FF00001F3
:1004D0003EE700BF42004FEAE2014FEA31014FEA36
:1004E00002701FBF12F07F4393F07F4F81F0605185
:1004F000704732F07F4208BF704793F07F4F04BFD0
:1005000041F40021704730B54FF4607401F00045AC
:1005100021F000411CE700BF50EA010208BF70470C
:1005200030B54FF000050AE050EA010208BF7047FD
:1005300030B511F0004502D5404261EB41014FF466
:10054000806404F132045FEA915C3FF4D8AE4FF06E
:1005500003025FEADC0C18BF03325FEADC0C18BF51
:10056000033202EBDC02C2F1200300FA03FC20FAA2
:1005700002F001FA03FE40EA0E0021FA02F11444EF
:10058000BDE600BF70B54FF0FF0C4CF4E06C1CEA08
:1005900011541DBF1CEA135594EA0C0F95EA0C0F79
:1005A00000F0DEF82C4481EA030621EA4C5123EAEC
:1005B0004C5350EA013518BF52EA033541F480111B
:1005C00043F4801338D0A0FB02CE4FF00005E1FBCE
:1005D00002E506F00042E0FB03E54FF00006E1FB18
:1005E00003569CF0000F18BF4EF0010EA4F1FF045B
:1005F000B6F5007F64F5407404D25FEA4E0E6D419B
:1006000046EB060642EAC62141EA55514FEAC520AB
:1006100040EA5E504FEACE2EB4F1FD0C88BFBCF527
:10062000E06F1ED8BEF1004F08BF5FEA500E50F1D8
:10063000000041EB045170BD06F0004646EA01019E
:1006400040EA020081EA0301B4EB5C04C2BFD4EBD0
:100650000C0541EA045170BD41F480114FF0000EC9
:10066000013C00F3AB8014F1360FDEBF002001F037
:10067000004170BDC4F10004203C35DA0C341BDCB1
:1006800004F11404C4F1200500FA05F320FA04F083
:1006900001FA05F240EA020001F0004221F00041B7
:1006A00010EBD37021FA04F642EB06015EEA430E2A
:1006B00008BF20EAD37070BDC4F10C04C4F120055A
:1006C00000FA04F320FA05F001FA04F240EA02000D
:1006D00001F0004110EBD37041F100015EEA430EDE
:1006E00008BF20EAD37070BDC4F1200500FA05F2FE
:1006F0004EEA020E20FA04F301FA05F243EA02037D
:1007000021FA04F001F0004121FA04F220EA02008B
:1007100000EBD3705EEA430E08BF20EAD37070BDD1
:1007200094F0000F0FD101F00046400041EB0101B1
:1007300011F4801F08BF013CF7D041EA060195F093
:10074000000F18BF704703F00046520043EB03034D
:1007500013F4801F08BF013DF7D043EA060370473A
:1007600094EA0C0F0CEA135518BF95EA0C0F0CD045
:1007700050EA410618BF52EA4306D1D181EA03018B
:1007800001F000414FF0000070BD50EA410606BF85
:100790001046194652EA430619D094EA0C0F02D1CA
:1007A00050EA013613D195EA0C0F05D152EA03360F
:1007B0001CBF104619460AD181EA030101F000412D
:1007C00041F0FE4141F470014FF0000070BD41F076
:1007D000FE4141F4780170BD70B54FF0FF0C4CF450
:1007E000E06C1CEA11541DBF1CEA135594EA0C0F6F
:1007F00095EA0C0F00F0A7F8A4EB050481EA030EBC
:1008000052EA03354FEA013100F088804FEA0333A2
:100810004FF0805545EA131343EA12634FEA022270
:1008200045EA111545EA10654FEA00260EF0004131
:100830009D4208BF964244F1FD0404F5407402D283
:100840005B084FEA3202B61A65EB03055B084FEA14
:1008500032024FF480104FF4002CB6EB020E75EB11
:10086000030E22BFB61A754640EA0C005B084FEA39
:100870003202B6EB020E75EB030E22BFB61A7546B6
:1008800040EA5C005B084FEA3202B6EB020E75EB01
:10089000030E22BFB61A754640EA9C005B084FEA79
:1008A0003202B6EB020E75EB030E22BFB61A754686
:1008B00040EADC0055EA060E18D04FEA051545EA75
:1008C00016754FEA06164FEAC30343EA52734FEA1E
:1008D000C2025FEA1C1CC0D111F4801F0BD141EA97
:1008E00000014FF000004FF0004CB6E711F4801FFC
:1008F00004BF01430020B4F1FD0C88BFBCF5E06FDC
:100900003FF6AFAEB5EB030C04BFB6EB020C5FEAEB
:10091000500C50F1000041EB045170BD0EF0004E40
:100920004EEA113114EB5C04C2BFD4EB0C0541EA72
:10093000045170BD41F480114FF0000E013C90E66F
:1009400045EA060E8DE60CEA135594EA0C0F08BF33
:1009500095EA0C0F3FF43BAF94EA0C0F0AD150EA32
:1009600001347FF434AF95EA0C0F7FF425AF1046C5
:1009700019462CE795EA0C0F06D152EA03353FF4ED
:10098000FDAE1046194622E750EA410618BF52EA6A
:1009900043067FF4C5AE50EA41047FF40DAF52EA3E
:1009A00043057FF4EBAE12E74FF0FF3C06E000BFDB
:1009B0004FF0010C02E000BF4FF0010C4DF804CDE8
:1009C0004FEA410C7FEA6C5C4FEA430C18BF7FEAA8
:1009D0006C5C1BD001B050EA410C0CBF52EA430CD6
:1009E00091EA030F02BF90EA020F0020704710F156
:1009F000000F91EA030F58BF994208BF90422CBFE5
:100A0000D8176FEAE37040F0010070474FEA410CDD
:100A10007FEA6C5C02D150EA013C07D14FEA430CFB
:100A20007FEA6C5CD6D152EA033CD3D05DF8040B6C
:100A3000704700BF8446104662468C46194663469E
:100A400000E000BF01B5FFF7B7FF002848BF10F175
:100A5000000F01BD4DF808EDFFF7F4FF0CBF0120BA
:100A600000205DF808FB00BF4DF808EDFFF7EAFF36
:100A700034BF012000205DF808FB00BF4DF808EDF1
:100A8000FFF7E0FF94BF012000205DF808FB00BFE6
:100A90004DF808EDFFF7CEFF94BF012000205DF870
:100AA00008FB00BF4DF808EDFFF7C4FF34BF01207D
:100AB00000205DF808FB00BF4FEA410C7FEA6C5C48
:100AC00002D150EA013C0AD14FEA430C7FEA6C5C48
:100AD00002D152EA033C02D14FF0000070474FF0C0
:100AE000010070474FEA410212F5001215D211D5EC
:100AF0006FF47873B3EB625212D94FEAC12343F01B
:100B0000004343EA505311F0004F23FA02F018BF9C
:100B1000404270474FF00000704750EA013005D165
:100B200011F0004008BF6FF0004070474FF0000028
:100B3000704700BF4A0011D212F5001211D20DD534
:100B40006FF47873B3EB62520ED44FEAC12343F0D3
:100B5000004343EA505323FA02F070474FF000007D
:100B6000704750EA013002D14FF0FF3070474FF02C
:100B7000000070474FEA4102B2F1E04324BFB3F5F1
:100B8000001CDCF1FE5C0DD901F0004C4FEAC00204
:100B90004CEA5070B2F1004F40EB830008BF20F0E8
:100BA0000100704711F0804F21D113F13872BCBFA2
:100BB00001F00040704741F480114FEA5252C2F1F7
:100BC0001802C2F1200C10FA0CF320FA02F018BF40
:100BD00040F001004FEAC1234FEAD32303FA0CFC93
:100BE00040EA0C0023FA02F34FEA4303CCE77FEA22
:100BF000625307D150EA01331EBF4FF0FE4040F46C
:100C00004000704701F0004040F0FE4040F400001A
:100C1000704700BF7BB972B90029BEBF00204FF0FA
:100C2000004106E008BF00281CBF6FF000414FF0F4
:100C3000FF3000F0D3B9ADF1080C6DE904CE002906
:100C400009DB002B1ADB00F061F8DDF804E0DDE9D8
:100C5000022304B07047404261EB4101002B1BDBD3
:100C600000F054F8DDF804E0DDE9022304B040426E
:100C700061EB4101524263EB43037047524263EB25
:100C8000430300F043F8DDF804E0DDE9022304B09B
:100C9000404261EB41017047524263EB430300F075
:100CA00035F8DDF804E0DDE9022304B0524263EBDD
:100CB0004303704753B94AB9002908BF00281CBF35
:100CC0004FF0FF314FF0FF3000F088B9ADF1080C64
:100CD0006DE904CE00F01AF8DDF804E0DDE9022346
:100CE00004B07047430803F05533C01A830803F07B
:100CF000333300F03330184400EB101000F00F30A5
:100D000000EB002000EB0040000E70472DE9F0479B
:100D1000089D04468E46002B4DD18A42944669D9DF
:100D2000B2FA82F252B101FA02F3C2F1200120FAC2
:100D300001F10CFA02FC41EA030E94404FEA1C4810
:100D4000210CBEFBF8F61FFA8CF708FB16E341EA0C
:100D5000034306FB07F199420AD91CEB030306F192
:100D6000FF3080F01F81994240F21C81023E6344B3
:100D70005B1AA4B2B3FBF8F008FB103344EA034457
:100D800000FB07F7A7420AD91CEB040400F1FF336C
:100D900080F00A81A74240F207816444023840EAA9
:100DA0000640E41B00261DB1D4400023C5E90043E2
:100DB0003146BDE8F0878B4209D9002D00F0EF8065
:100DC0000026C5E9000130463146BDE8F087B3FA98
:100DD00083F6002E4AD18B4202D3824200F2F98080
:100DE000841A61EB030301209E46002DE0D0C5E983
:100DF000004EDDE702B9FFDEB2FA82F2002A40F0CF
:100E00009280A1EB0C014FEA1C471FFA8CFE0126D1
:100E1000200CB1FBF7F307FB131140EA01410EFB75
:100E200003F0884208D91CEB010103F1FF3802D21C
:100E3000884200F2CB804346091AA4B2B1FBF7F016
:100E400007FB101144EA01440EFB00FEA64508D939
:100E50001CEB040400F1FF3102D2A64500F2BB8076
:100E60000846A4EB0E0440EA03409CE7C6F12007C5
:100E7000B34022FA07FC4CEA030C20FA07F401FA0B
:100E800006F31C43F9404FEA1C4900FA06F3B1FB94
:100E9000F9F8200C1FFA8CFE09FB181140EA0141F9
:100EA00008FB0EF0884202FA06F20BD91CEB010196
:100EB00008F1FF3A80F08880884240F28580A8F1EE
:100EC00002086144091AA4B2B1FBF9F009FB101140
:100ED00044EA014100FB0EFE8E4508D91CEB0101DE
:100EE00000F1FF346CD28E456AD90238614440EA81
:100EF0000840A0FB0294A1EB0E01A142C846A64601
:100F000056D353D05DB1B3EB080261EB0E0101FA89
:100F100007F722FA06F3F1401F43C5E900710026E6
:100F20003146BDE8F087C2F12003D8400CFA02FC3C
:100F300021FA03F3914001434FEA1C471FFA8CFE4C
:100F4000B3FBF7F007FB10360B0C43EA064300FB3C
:100F50000EF69E4204FA02F408D91CEB030300F1DA
:100F6000FF382FD29E422DD9023863449B1B89B291
:100F7000B3FBF7F607FB163341EA034106FB0EF31A
:100F80008B4208D91CEB010106F1FF3816D28B42C7
:100F900014D9023E6144C91A46EA004638E72E4693
:100FA000284605E70646E3E61846F8E64B45A9D28B
:100FB000B9EB020864EB0C0E0138A3E74646EAE7FA
:100FC000204694E74046D1E7D0467BE7023B6144A8
:100FD00032E7304609E76444023842E7704700BF11
:100FE00001F0FF01102A2BDB10F0070F08D010F8DA
:100FF000013B013A8B422DD010F0070F42B3F6D1DE
:10100000F0B441EA012141EA014122F007047FF0F6
:1010100000070023F0E80256083C85EA010586EA4D
:10102000010685FA47F5A3FA87F586FA47F6A5FA89
:1010300087F68EB9EED1F0BC01F0FF0102F0070295
:1010400032B110F8013B013A83EA010313B1F8D140
:101050000020704701387047002D06BF3546033821
:10106000073815F0010F07D1013015F4807F02BF5A
:10107000013015F4C03F0130F0BC0138704700BFAB
:10108000844641EA000313F003036DD1403A41D393
:1010900051F8043B40F8043B51F8043B40F8043B52
:1010A00051F8043B40F8043B51F8043B40F8043B42
:1010B00051F8043B40F8043B51F8043B40F8043B32
:1010C00051F8043B40F8043B51F8043B40F8043B22
:1010D00051F8043B40F8043B51F8043B40F8043B12
:1010E00051F8043B40F8043B51F8043B40F8043B02
:1010F00051F8043B40F8043B51F8043B40F8043BF2
:1011000051F8043B40F8043B51F8043B40F8043BE1
:10111000403ABDD2303211D351F8043B40F8043B81
:1011200051F8043B40F8043B51F8043B40F8043BC1
:1011300051F8043B40F8043B103AEDD20C3205D391
:1011400051F8043B40F8043B043AF9D2043208D089
:10115000D2071CBF11F8013B00F8013B01D30B88FB
:1011600003806046704700BF082A13D38B078DD0D9
:1011700010F003038AD0C3F10403D21ADB071CBFAB
:1011800011F8013B00F8013B80D331F8023B20F815
:10119000023B7BE7043AD9D3013A11F8013B00F84E
:1011A000013BF9D20B7803704B7843708B788370D6
:1011B00060467047000000000000000000000000D2
:1011C000A2EB0300704700BF02780B78012A28BF0A
:1011D0009A42F5D16DE9044540EA0104CDE9026780
:1011E0006FF0000C4FEA447212B380EA010414F06D
:1011F000070F6AD100F0070420F0070004F0030590
:1012000021F007014FEAC505F0E8042314F0040FAC
:10121000F1E804670CFA05F462EA040266EA0406DF
:101220000AD063EA0403624667EA0407664603E0FD
:10123000F0E80423F1E8046782FA4CF582EA060438
:10124000A4FA8CF46CBB83FA4CF583EA0705A5FA83
:101250008CF595B950E9022351E9026782FA4CF501
:1012600082EA0604A4FA8CF483FA4CF583EA0705B3
:10127000A5FA8CF52543DBD09CB92DBAB5FA85F4D7
:1012800024F0070427FA04F1DDE9026723FA04F3E6
:1012900003F0FF0001F0FF01FDE80445A0EB0100B1
:1012A000704724BAB4FA84F424F0070426FA04F14F
:1012B000DDE9026722FA04F202F0FF0001F0FF010B
:1012C000FDE80445A0EB0100704714F0030F3CD18A
:1012D00010F0030428D150F8082B51F8083B82FA8B
:1012E0004CF582EA0305A5FA8CF55DB950F8042C9B
:1012F00051F8043C82FA4CF582EA0305A5FA8CF514
:10130000002DE8D02DBAB5FA85F424F0070423FAAD
:1013100004F122FA04F202F0FF0001F0FF01FDE8FF
:101320000445A0EB010070474FEAC40420F003001D
:1013300050F8082B21F0030151F8083B0CFA04F493
:1013400062EA040263EA0403C9E710F003041AD056
:10135000A1EB040120F00300E40750F8042B06D0B1
:101360000FD28B785FFAA2F4E41A06D12BB1CB78B6
:101370005FFAB2F4E41A00D11BB920465DF8104BB5
:10138000704701F1040150F8042BCC0721F0030150
:1013900051F8043B48D824D222F07F4482FA4CF51D
:1013A00094EA1325A5FA8CF50AD165B951F8043BE6
:1013B00084EA0204B4EB036F0ED150F8042BEBE780
:1013C0004FEA132355E035F07F454DD10878FDE80D
:1013D0000445C0F1000070474FEA126203F0FF03BA
:1013E00047E002EA1C4482FA4CF594EA1345A5FA58
:1013F0008CF50AD165B951F8043B84EA0204B4EBD8
:10140000034F0CD150F8042BEBE74FEA134330E0C5
:1014100015EA1C4528D10B884FEA124229E04FEA11
:10142000124203EA1C4324E002F0FF0482FA4CF566
:1014300094EA1365A5FA8CF50AD165B951F8043B15
:1014400084EA0204B4EB032F09D150F8042BEBE734
:101450004FEA13630DE015F0FF0F05D10B684FEA5B
:10146000122223F07F4304E04FF00000FDE8044522
:10147000704712BA1BBA82FA4CF482EA0304A4FA47
:101480008CF5B5FA85F402FA04F203FA04F34FEA94
:101490001260FDE80445A0EB1360704700000000F7
:1014A000000000000000000000000000000000003C
:1014B000000000000000000000000000000000002C
:1014C00090F800F06DE9024520F007016FF0000C84
:1014D00010F0070491F820F040F049804FF000042C
:1014E0006FF00700D1E9002391F840F000F1080007
:1014F00082FA4CF2A4FA8CF283FA4CF3A2FA8CF33F
:101500004BBBD1E9022382FA4CF200F10800A4FAA5
:101510008CF283FA4CF3A2FA8CF3E3B9D1E90423F9
:1015200082FA4CF200F10800A4FA8CF283FA4CF330
:10153000A2FA8CF37BB9D1E9062301F1200182FAEA
:101540004CF200F10800A4FA8CF283FA4CF3A2FAF0
:101550008CF3002BC6D0002A04BF04301A4612BAFE
:10156000B2FA82F2FDE8024500EBD2007047D1E901
:10157000002304F00305C4F100004FEAC50514F090
:10158000040F91F840F00CFA05F562EA05021CBF61
:1015900063EA050362464FF00004A9E738B500226C
:1015A000002304460D46FFF75FFA28B92046294676
:1015B000BDE8384000F00AB8204605F1004100F0CF
:1015C00005F8404261EB410138BD00BFD0B50C4B7E
:1015D000002206460F46FEF7D5FFFFF7ABFA04469A
:1015E000FEF756FF074B0022FEF7CCFF02460B46E4
:1015F00030463946FEF70EFEFFF79CFA2146D0BD75
:101600000000F03D0000F04180B584B000AF3B46E3
:1016100000221A605A609A60DA60214B214A1A60EF
:101620001F4B4FF480325A601D4B00229A601C4BB6
:1016300000221A611A4B00221A76194B002283F8F5
:101640002020174B0022DA62154B174A9A62144B7E
:101650000022DA60124B0122DA61114B002283F87A
:1016600030200F4B01225A610D4801F06BFA0346FE
:10167000002B01D000F012FB04233B6001237B60B0
:101680000023BB603B461946054801F009FC0346B0
:10169000002B01D000F002FB00BF1037BD4680BD1B
:1016A0001C120020002001400100000F80B58AB00C
:1016B00000AF786007F1140300221A605A609A6044
:1016C000DA601A617B681B68174A934227D10023AE
:1016D0003B61164B5B6C154A43F480735364134BA8
:1016E0005B6C03F480733B613B690023FB600F4B31
:1016F0001B6B0E4A43F0010313630C4B1B6B03F08F
:101700000103FB60FB6810237B610323BB610023A3
:10171000FB6107F114031946054802F01BFB00BFEB
:101720002837BD4680BD00BF002001400038024080
:101730000000024080B588B000AF0346B9607A600F
:10174000FB73FB7B3B6101237B61BB68BB6107F1E2
:1017500010031946094801F0A3FB084801F036FAC6
:101760007B681946054801F003FB044801F08BFB38
:1017700003469BB218462037BD4680BD1C12002090
:1017800080B500AF064B074A1A60054801F0B7FE66
:101790000346002B01D000F081FA00BF80BD00BFDE
:1017A000641200200030024080B485B000AF786041
:1017B0007B681B680B4A93420DD10023FB600A4BE8
:1017C0001B6B094A43F480531363074B1B6B03F4F1
:1017D0008053FB60FB6800BF1437BD465DF8047B97
:1017E000704700BF003002400038024080B582B030
:1017F00000AF00237B60104B1B6B0F4A43F4800348
:1018000013630D4B1B6B03F480037B607B6800222A
:1018100006213B2001F03DFE3B2001F056FE002258
:101820000621452001F035FE452001F04EFE00BFA7
:101830000837BD4680BD00BF0038024080B500AF0C
:10184000044A0021044812F0FAFF0346034A1360D9
:1018500000BF80BDACAE0308611800086C12002008
:1018600080B582B000AF786017F0DCF818F048FD62
:1018700018F070F94FF47A7018F061F9F8E7000089
:1018800080B58AB000AF07F1140300221A605A60D5
:101890009A60DA601A6100233B61504B1B6B4F4A20
:1018A00043F0040313634D4B1B6B03F004033B61D4
:1018B0003B690023FB60494B1B6B484A43F08003A4
:1018C0001363464B1B6B03F08003FB60FB68002334
:1018D000BB60424B1B6B414A43F0010313633F4B18
:1018E0001B6B03F00103BB60BB6800237B603B4BB9
:1018F0001B6B3A4A43F002031363384B1B6B03F034
:1019000002037B607B6800233B60344B1B6B334AD4
:1019100043F008031363314B1B6B03F008033B6078
:101920003B68002242F230012D4802F0C7FB002242
:101930004FF4A0412B4802F0C1FB00224FF480710C
:10194000294802F0BBFB42F230037B610123BB61FB
:101950000023FB6100233B6207F114031946204872
:1019600002F0F8F94FF440437B610023BB61002390
:10197000FB6107F114031946194802F0EBF94FF423
:10198000A0437B610123BB610023FB6100233B6219
:1019900007F114031946134802F0DCF94FF4807381
:1019A0007B610123BB610023FB6100233B6207F1E4
:1019B000140319460C4802F0CDF94FF440737B61D3
:1019C0000023BB610023FB6107F11403194605489E
:1019D00002F0C0F900BF2837BD4680BD0038024084
:1019E00000080240000402400000024080B500AF41
:1019F000124B134A1A60114B124A5A600F4B0022C5
:101A00009A600E4B0022DA600C4B4FF480421A6150
:101A10000A4B00225A61094B00229A61074B0022AF
:101A2000DA61064B00221A62044802F07BFB03468F
:101A3000002B01D000F032F900BF80BD70120020F1
:101A400000540040A086010080B58AB000AF7860E5
:101A500007F1140300221A605A609A60DA601A6172
:101A60007B681B68194A93422BD100233B61184BBA
:101A70001B6B174A43F002031363154B1B6B03F0F8
:101A800002033B613B69C0237B611223BB610023DE
:101A9000FB6103233B6204237B6207F114031946B5
:101AA0000C4802F057F90023FB60094B1B6C084AF5
:101AB00043F400131364064B1B6C03F40013FB6028
:101AC000FB6800BF2837BD4680BD00BF0054004002
:101AD000003802400004024080B582B000AF786058
:101AE0003B1D0121184617F0D3F83B1D0122194672
:101AF000012000F01BFF034618460837BD4680BD95
:101B000080B586B000AF3B1D00221A605A609A6013
:101B1000DA601A6100233B60134B1B6B124A43F0DF
:101B200001031363104B1B6B03F001033B603B6825
:101B300000224FF4C0510D4802F0C0FA4FF4C053D8
:101B40007B600123BB600223FB6003233B613B1DE1
:101B50001946064802F0FEF8142000F0ABFF00BF63
:101B60001837BD4680BD00BF00380240000002406B
:101B700080B500AF00F02CFF00F006FD00F022F869
:101B8000FFF7BEFFFFF77CFEFFF730FEFFF73CFDDF
:101B9000FFF7F6FDFFF72AFF00F086F800F0BAF82D
:101BA00000F0C8F900F0FCF900F062FC00F0F4FD70
:101BB0000BF02AFA12F0C2FDFFF740FE12F004FE0D
:101BC000FEE7000080B594B000AF07F1200330229B
:101BD0000021184628F044FB07F10C0300221A608C
:101BE0005A609A60DA601A610023BB60294B1B6C53
:101BF000284A43F080531364264B1B6C03F0805338
:101C0000BB60BB6800237B60234B1B68224A43F404
:101C100080431360204B1B6803F480437B607B6828
:101C200009233B624FF480337B6201237B630223F1
:101C3000BB634FF48003FB6304233B64A8237B64F2
:101C40000223BB640723FB6407F12003184604F05A
:101C50007BFC0346002B01D000F020F80F23FB6033
:101C600002233B6100237B614FF4A053BB614FF41F
:101C70008053FB6107F10C030521184604F0DCFEDC
:101C80000346002B01D000F009F800BF5037BD46D5
:101C900080BD00BF003802400070004080B400AF3B
:101CA00072B600BFFEE7000080B500AF064B074AE2
:101CB0001A60054805F0E0F80346002B01D0FFF755
:101CC000EDFF00BF80BD00BFC41200200008065019
:101CD00080B485B000AF78607B681B680B4A934284
:101CE0000DD10023FB600A4B5B6B094A43F04003B4
:101CF0005363074B5B6B03F04003FB60FB6800BF63
:101D00001437BD465DF8047B704700BF00080650DD
:101D10000038024080B400AF0C4B0D4A1A600B4BE8
:101D200000225A60094B00229A60084B0022DA60B8
:101D3000064B00221A61054B00225A61034B002218
:101D40009A6100BFBD465DF8047B7047D412002045
:101D5000002C014080B58AB000AF786007F1140311
:101D600000221A605A609A60DA601A617B681B6808
:101D7000684A934240F0C98000233B61664B5B6C2C
:101D8000654A43F400635364634B5B6C03F4006384
:101D90003B613B690023FB605F4B1B6B5E4A43F07A
:101DA000040313635C4B1B6B03F00403FB60FB68D1
:101DB0000023BB60584B1B6B574A43F00803136367
:101DC000554B1B6B03F00803BB60BB684FF4F85323
:101DD0007B610223BB610023FB6103233B620C2375
:101DE0007B6207F1140319464C4801F0B3FF04234A
:101DF0007B610223BB610023FB6103233B620C2355
:101E00007B6207F114031946454801F0A3FF454BD7
:101E1000454A1A60434B4FF000625A60414B002222
:101E20009A60404B0022DA603E4B4FF480621A61A8
:101E30003C4B4FF480525A613A4B4FF480429A61C6
:101E4000384B2022DA61374B00221A62354B0422CC
:101E50005A62344B03229A62324B4FF40002DA6228
:101E6000304B4FF400121A632E4801F065FB034615
:101E7000002B01D0FFF712FF7B682A4A1A64294A17
:101E80007B689363294B2A4A1A60284B4FF0006203
:101E90005A60264B40229A60244B0022DA60234B82
:101EA0004FF480621A61214B4FF480525A611F4BEC
:101EB0004FF480429A611D4B2022DA611B4B0022B5
:101EC0001A621A4B04225A62184B03229A62174B69
:101ED0004FF40002DA62154B4FF400121A631348F4
:101EE00001F02AFB0346002B01D0FFF7D7FE7B68E9
:101EF0000E4ADA630D4A7B68936300220521312084
:101F000001F0C7FA312001F0E0FA00BF2837BD46E2
:101F100080BD00BF002C0140003802400008024094
:101F2000000C02405813002058640240B8130020EF
:101F3000A064024080B500AF174B184A1A60164BD8
:101F40004FF482725A60144B00229A60124B0022A6
:101F5000DA60114B00221A610F4B00225A610E4BBE
:101F60004FF480229A610C4B0022DA610A4B002266
:101F70001A62094B00225A62074B00229A62064BF2
:101F80000A22DA62044806F0D4FA0346002B01D094
:101F9000FFF784FE00BF80BD181400200030014010
:101FA00080B500AF174B184A1A60164B4FF4827277
:101FB0005A60144B00229A60124B0022DA60114BD7
:101FC00000221A610F4B00225A610E4B4FF400722F
:101FD0009A610C4B0022DA610A4B00221A62094B0B
:101FE00000225A62074B00229A62064B0A22DA62EA
:101FF000044806F09EFA0346002B01D0FFF74EFE80
:1020000000BF80BD701400200038004080B58EB045
:1020100000AF786007F1240300221A605A609A60CA
:10202000DA601A617B681B68514A93424BD10023E6
:102030003B62504B5B6C4F4A43F4805353644D4BAF
:102040005B6C03F480533B623B6A0023FB61494BAA
:102050001B6B484A43F001031363464B1B6B03F0B1
:102060000103FB61FB690023BB61424B1B6B414ACF
:1020700043F0020313633F4B1B6B03F00203BB618E
:10208000BB694FF400437B620223BB620023FB6207
:1020900003233B6305237B6307F12403194636487A
:1020A00001F058FE38237B620223BB620023FB62EF
:1020B00003233B6305237B6307F1240319462F4861
:1020C00001F048FE4FE07B681B682D4A93424AD1DD
:1020D00000237B61274B1B6C264A43F48043136427
:1020E000244B1B6C03F480437B617B6900233B61C1
:1020F000204B1B6B1F4A43F0040313631D4B1B6BE8
:1021000003F004033B613B690023FB60194B1B6B2D
:10211000184A43F002031363164B1B6B03F00203D0
:10212000FB60FB680C237B620223BB620023FB6223
:1021300003233B6305237B6307F1240319461148FE
:1021400001F008FE4FF400537B620223BB620023C0
:10215000FB6203233B6305237B6307F124031946DA
:10216000064801F0F7FD00BF3837BD4680BD00BF0F
:1021700000300140003802400000024000040240EC
:10218000003800400008024080B582B000AF002354
:102190007B60124B5B6C114A43F4804353640F4BDA
:1021A0005B6C03F480437B607B6800233B600B4BDC
:1021B0001B6C0A4A43F080531364084B1B6C03F0FA
:1021C00080533B603B6800220F216FF0010001F05B
:1021D00060F900BF0837BD4680BD00BF003802402F
:1021E00080B400AFFEE780B400AFFEE780B400AF7C
:1021F000FEE780B400AFFEE780B400AF00BFBD468D
:102200005DF8047B704780B500AF15F0B1FD034663
:10221000012B01D013F010FA00BF80BD80B500AFD4
:10222000024806F05DFE00BF80BD00BF2015002003
:1022300080B500AF024807F0BDFD00BF80BD00BF04
:10224000C415002080B500AF024805F0B7F800BF04
:1022500080BD00BFD412002080B500AF024801F05D
:1022600003FB00BF80BD00BF5813002080B500AF46
:10227000024803F03CF800BF80BD00BF0CA0002066
:1022800080B500AF024801F0EFFA00BF80BD00BF8B
:10229000B813002080B400AF01231846BD465DF896
:1022A000047B704780B582B000AF7860396027F05A
:1022B000A7F9034616221A604FF0FF331846083775
:1022C000BD4680BD80B582B000AF78604FF0FF3171
:1022D0007868FFF7E7FFFEE780B586B000AFF860EB
:1022E000B9607A6000237B610AE0AFF300800146A9
:1022F000BB685A1CBA60CAB21A707B6901337B6131
:102300007A697B689A42F0DB7B6818461837BD46CD
:1023100080BD80B586B000AFF860B9607A600023F8
:102320007B6109E0BB685A1CBA601B781846FFF74E
:10233000D3FB7B6901337B617A697B689A42F1DB6D
:102340007B6818461837BD4680BD80B483B000AFA7
:1023500078604FF0FF3318460C37BD465DF8047BBC
:10236000704780B483B000AF786039603B684FF449
:1023700000525A60002318460C37BD465DF8047BB6
:10238000704780B483B000AF7860012318460C37E3
:10239000BD465DF8047B704780B485B000AFF8603F
:1023A000B9607A60002318461437BD465DF8047B97
:1023B0007047000080B586B000AF7860144A154BB6
:1023C000D31A7B617B693B61134B1B68002B02D1E5
:1023D000114B124A1A60104B1A687B6813443A6911
:1023E0009A4207D227F00CF903460C221A604FF0EC
:1023F000FF3309E0084B1B68FB60074B1A687B68DA
:102400001344054A1360FB6818461837BD4680BD63
:102410000000022000080000CC140020105A012007
:1024200080B400AF074B1B68002B02D1054B064A56
:102430001A60044B1B6803F160431846BD465DF803
:10244000047B7047CC140020105A012080B400AFE8
:10245000064BD3F88830054A43F47003C2F888303D
:1024600000BFBD465DF8047B704700BF00ED00E093
:1024700080B58EB000AF07F1280300221A605A60C1
:102480009A60DA6007F1200300221A605A603B1D4F
:1024900000221A605A609A60DA601A615A619A6181
:1024A000384B4FF080421A60364B00225A60354B51
:1024B00040229A60334B41F26702DA60314B0022CE
:1024C0001A61304B00229A612E4806F027FB034622
:1024D000002B01D0FFF7E2FB4FF48053BB6207F102
:1024E00028031946274806F0C5FE0346002B01D0F5
:1024F000FFF7D4FB234806F0D1FB0346002B01D0A5
:10250000FFF7CCFB00233B6200237B6207F1200333
:1025100019461C4807F0AEFA0346002B01D0FFF71E
:10252000BDFB60237B600023BB600023FB600023B6
:102530007B613B1D04221946124806F0D9FD034673
:10254000002B01D0FFF7AAFB3B1D082219460D48BE
:1025500006F0CEFD0346002B01D0FFF79FFB3B1D8D
:102560000C221946074806F0C3FD0346002B01D094
:10257000FFF794FB034800F093F800BF3837BD46DF
:1025800080BD00BFD814002080B586B000AF07F131
:10259000080300221A605A609A60DA603B46002203
:1025A0001A605A601E4B1F4A1A601D4B53225A6014
:1025B0001B4B00229A601A4B3122DA60184B002222
:1025C0001A61174B80229A61154806F0A7FA034654
:1025D000002B01D0FFF762FB4FF48053BB6007F183
:1025E000080319460E4806F045FE0346002B01D0AD
:1025F000FFF754FB00233B6000237B603B461946FA
:10260000074807F037FA0346002B01D0FFF746FBD7
:10261000034806F0D3FA00BF1837BD4680BD00BF9F
:10262000201500200008004080B584B000AF78601D
:102630007B681B68B3F1804F0ED10023FB60164B03
:102640001B6C154A43F001031364134B1B6C03F01E
:102650000103FB60FB681AE07B681B680F4A93422A
:1026600015D10023BB600C4B1B6C0B4A43F00403D9
:102670001364094B1B6C03F00403BB60BB680022AE
:1026800003211E2000F005FF1E2000F01EFF00BFEA
:102690001037BD4680BD00BF003802400008004032
:1026A00080B588B000AF786007F10C0300221A6093
:1026B0005A609A60DA601A617B681B68B3F1804FD8
:1026C0001DD10023BB60104B1B6B0F4A43F001036D
:1026D00013630D4B1B6B03F00103BB60BB680E2340
:1026E000FB6002233B6100237B610023BB6101236C
:1026F000FB6107F10C031946044801F02BFB00BFF6
:102700002037BD4680BD00BF0038024000000240B7
:10271000B0B582B000AF78607B681B680E4A934208
:1027200016D10E4BD3E90023541C43F100050B4B8B
:10273000C3E900450A4B1B680133094A1360084B83
:102740001B68132B04DD064B00221A6000F092F97F
:1027500000BF0837BD46B0BD00080040D0140020BF
:102760006815002080B400AF05494FF000024FF01B
:102770000003C1E9002300BFBD465DF8047B70473C
:10278000D014002080B400AF024B1846BD465DF85F
:10279000047B70477015002080B500AF164B174AB8
:1027A0001A60154B4FF4E1325A60134B00229A60C5
:1027B000114B0022DA60104B00221A610E4B0C22E2
:1027C0005A610D4B00229A610B4B0022DA610A48D4
:1027D00007F0E0F90346002B01D0FFF75FFA402233
:1027E0000749084824F075FA01220749024807F012
:1027F000B0FA00BF80BD00BFC4150020001001402A
:1028000084150020701500206C15002080B58AB05A
:1028100000AF786007F1140300221A605A609A60D2
:10282000DA601A617B681B681D4A934234D1002329
:102830003B611C4B5B6C1B4A43F010035364194B08
:102840005B6C03F010033B613B690023FB60154B9D
:102850001B6B144A43F001031363124B1B6B03F011
:102860000103FB60FB684FF4C0637B610223BB6123
:102870000023FB6103233B6207237B6207F1140300
:102880001946094801F066FA00220521252000F0CA
:1028900000FE252000F019FE00BF2837BD4680BD90
:1028A00000100140003802400000024080B582B0B4
:1028B00000AF78607B681B68094A93420BD17B6844
:1028C0009B8D1A460749084824F024FA012205493D
:1028D000786807F03EFA00BF0837BD4680BD00BFEC
:1028E000001001406C1500207015002080B586B0E6
:1028F00000AFF860B9601346FB8000237B61FB6882
:10290000012B02D1084B7B6101E0074B7B61FB8807
:102910001A46B968786924F074FA03461BB218465F
:102920001837BD4680BD00BF7015002080B586B049
:1029300000AFF860B9601346FB8000237B61FB6841
:10294000012B02D10C4B7B6101E00B4B7B61FA88C0
:102950006423B968786907F06AF90346FB74FB7C65
:10296000002B02D04FF0FF3301E0B7F906301846D4
:102970001837BD4680BD00BFC4150020DFF834D035
:102980000D480E490E4A002302E0D458C4500433C7
:10299000C4188C42F9D30B4A0B4C002301E013609E
:1029A0000432A242FBD3FFF751FD26F099FFFFF757
:1029B000DFF8704700000220000000200012002015
:1029C000F875060800120020105A0120FEE70000EA
:1029D00080B500AF0E4B1B680D4A43F400731360C3
:1029E0000B4B1B680A4A43F480631360084B1B6857
:1029F000074A43F480731360032000F03FFD0F206B
:102A000000F008F8FFF7C0FB0023184680BD00BFA8
:102A1000003C024080B582B000AF7860124B1A686B
:102A2000124B1B7819464FF47A73B3FBF1F3B2FBE8
:102A3000F3F3184600F057FD0346002B01D00123A5
:102A40000EE07B680F2B0AD8002279684FF0FF3028
:102A500000F01FFD064A7B681360002300E001239D
:102A600018460837BD4680BD040000200C00002039
:102A70000800002080B400AF064B1B781A46064BB6
:102A80001B681344044A136000BFBD465DF8047B15
:102A9000704700BF0C0000200816002080B400AF73
:102AA000034B1B681846BD465DF8047B704700BFAA
:102AB0000816002080B584B000AF7860FFF7EEFF05
:102AC000B8607B68FB60FB68B3F1FF3F05D00A4B41
:102AD0001B781A46FB681344FB6000BFFFF7DEFF5C
:102AE0000246BB68D31AFA689A42F7D800BF00BF03
:102AF0001037BD4680BD00BF0C00002080B400AF81
:102B0000034B1B681846BD465DF8047B704700BF49
:102B1000107AFF1F80B400AF034B1B681846BD46F8
:102B20005DF8047B704700BF147AFF1F80B400AFCC
:102B3000034B1B681846BD465DF8047B704700BF19
:102B4000187AFF1F80B584B000AF78600023FB7354
:102B50007B68002B01D1012333E07B681B6C002BC9
:102B600009D17868FEF7A2FD7B6800225A647B6871
:102B7000002283F83C207B681B6C03F01003002BC1
:102B800018D17B681B6C23F4885323F0020343F0B5
:102B900002027B681A64786800F0A4FA7B6800225D
:102BA0005A647B681B6C23F0030343F001027B68CB
:102BB0001A6401E00123FB737B68002283F83C2048
:102BC000FB7B18461037BD4680BD000080B485B041
:102BD00000AF78600023BB607B6893F83C30012B2A
:102BE00001D10223B2E07B68012283F83C207B689C
:102BF0001B689B6803F00103012B18D07B681B68DE
:102C00009A687B681B6842F001029A60524B1B680D
:102C1000524AA2FB03239A0C13465B001344BB6089
:102C200002E0BB68013BBB60BB68002BF9D17B684D
:102C30001B689B6803F00103012B7AD17B681B6C36
:102C400023F4E06323F0010343F480727B681A6489
:102C50007B681B685B6803F48063002B07D07B688C
:102C60001B6C23F4405343F480527B681A647B68E6
:102C70001B6C03F48053B3F5805F06D17B685B6CFB
:102C800023F006027B685A6402E07B6800225A64E3
:102C90007B68002283F83C20314BFB607B681B681B
:102CA0006FF022021A60FB685B6803F01F03002BC1
:102CB0002AD17B681B682B4A934215D07B681B681E
:102CC000294A934205D1264B5B6803F01F03002B72
:102CD0000AD07B681B68254A934236D1204B5B683B
:102CE00003F01003002B30D17B681B689B6803F056
:102CF0004053002B29D17B681B689A687B681B684E
:102D000042F080429A6020E07B681B68154A93423B
:102D10001BD17B681B689B6803F04053002B14D1C8
:102D20007B681B689A687B681B6842F080429A60E7
:102D30000BE07B681B6C43F010027B681A647B68B5
:102D40005B6C43F001027B685A6400231846143719
:102D5000BD465DF8047B70470400002083DE1B4302
:102D600000230140002001400021014000220140D9
:102D700080B584B000AF786039600023FB607B6869
:102D80001B689B6803F48063B3F5806F13D17B6885
:102D90001B689B6803F48073B3F5807F0BD17B685D
:102DA0001B6C43F020027B681A647B68002283F866
:102DB0003C20012363E0FFF771FEF86021E03B68EF
:102DC000B3F1FF3F1DD03B68002B07D0FFF766FE35
:102DD0000246FB68D31A3A689A4212D27B681B6893
:102DE0001B6803F00203022B0BD07B681B6C43F0C3
:102DF00004027B681A647B68002283F83C2003236A
:102E00003DE07B681B681B6803F00203022BD6D1F0
:102E10007B681B686FF012021A607B681B6C43F4BE
:102E200000727B681A647B681B689B6803F04053E0
:102E3000002B23D17B681B7E002B1FD17B681B6876
:102E4000DB6A03F47003002B06D07B681B689B6869
:102E500003F48063002B11D17B681B6C23F4807218
:102E60007B681A647B681B6C03F48053002B05D1CC
:102E70007B681B6C43F001027B681A6400231846D0
:102E80001037BD4680BD80B483B000AF78607B68EA
:102E90001B68DB6C18460C37BD465DF8047B704739
:102EA00080B485B000AF786039600023BB607B6878
:102EB00093F83C30012B01D1022305E17B6801220C
:102EC00083F83C203B681B68092B25D97B681B686D
:102ED000D9683B681B689BB21A4613465B001344D3
:102EE0001E3B072202FA03F3DA437B681B680A40A1
:102EF000DA607B681B68D9683B689A683B681B6826
:102F00009BB2184603465B0003441E3B9A407B6815
:102F10001B680A43DA6022E07B681B6819693B681A
:102F20001B689BB21A4613465B001344072202FA41
:102F300003F3DA437B681B680A401A617B681B68ED
:102F400019693B689A683B681B689BB21846034640
:102F50005B0003449A407B681B680A431A613B6824
:102F60005B68062B24D87B681B68596B3B685A68E2
:102F700013469B001344053B1F2202FA03F3DA4376
:102F80007B681B680A405A637B681B68596B3B6807
:102F90001B689BB218463B685A6813469B00134453
:102FA000053B00FA03F27B681B680A435A634CE056
:102FB0003B685B680C2B24D87B681B68196B3B68EB
:102FC0005A6813469B001344233B1F2202FA03F363
:102FD000DA437B681B680A401A637B681B68196BBD
:102FE0003B681B689BB218463B685A6813469B00B7
:102FF0001344233B00FA03F27B681B680A431A63FD
:1030000023E07B681B68D96A3B685A6813469B00BB
:103010001344413B1F2202FA03F3DA437B681B6827
:103020000A40DA627B681B68D96A3B681B689BB2FE
:1030300018463B685A6813469B001344413B00FA0C
:1030400003F27B681B680A43DA62224BFB607B68F1
:103050001B68214A934209D13B681B68122B05D19A
:10306000FB685B6843F48002FB685A607B681B68FE
:10307000194A934223D13B681B68102B03D03B684D
:103080001B68112B1BD1FB685B6843F40002FB68D3
:103090005A603B681B68102B11D1104B1B68104AFB
:1030A000A2FB03239A0C13469B0013445B00BB60F6
:1030B00002E0BB68013BBB60BB68002BF9D17B68B9
:1030C000002283F83C20002318461437BD465DF8E3
:1030D000047B7047002301400020014004000020D1
:1030E00083DE1B4380B485B000AF7860794BFB6012
:1030F000FB685B6823F44032FB685A60FB685A68DF
:103100007B685B681A43FB685A607B681B685A6877
:103110007B681B6822F480725A607B681B68596860
:103120007B681B691A027B681B680A435A607B68CC
:103130001B685A687B681B6822F040725A607B6883
:103140001B6859687B689A687B681B680A435A60E9
:103150007B681B689A687B681B6822F400629A602F
:103160007B681B6899687B68DA687B681B680A4320
:103170009A607B689B6A584A934222D07B681B689E
:103180009A687B681B6822F070629A607B681B6893
:1031900099687B689A6A7B681B680A439A607B68B7
:1031A0001B689A687B681B6822F040529A607B68B3
:1031B0001B6899687B68DA6A7B681B680A439A60B7
:1031C0000FE07B681B689A687B681B6822F070625E
:1031D0009A607B681B689A687B681B6822F0405283
:1031E0009A607B681B689A687B681B6822F0020201
:1031F0009A607B681B6899687B681B7E5A007B68B5
:103200001B680A439A607B6893F82030002B1BD020
:103210007B681B685A687B681B6842F400625A60CE
:103220007B681B685A687B681B6822F460425A609E
:103230007B681B6859687B685B6A013B5A037B6843
:103240001B680A435A6007E07B681B685A687B6802
:103250001B6822F400625A607B681B68DA6A7B682C
:103260001B6822F47002DA627B681B68D96A7B688B
:10327000DB69013B1A057B681B680A43DA627B68DD
:103280001B689A687B681B6822F400729A607B68EE
:103290001B6899687B6893F830305A027B681B681A
:1032A0000A439A607B681B689A687B681B6822F4F3
:1032B00080629A607B681B6899687B685B699A0288
:1032C0007B681B680A439A6000BF1437BD465DF8EF
:1032D000047B7047002301400100000F80B485B0DB
:1032E00000AF78607B6803F00703FB600C4BDB6882
:1032F000BB60BA684FF6FF031340BB60FB681A025D
:10330000BB68134343F0BF6343F40033BB60044A1C
:10331000BB68D36000BF1437BD465DF8047B7047BF
:1033200000ED00E080B400AF044BDB681B0A03F043
:1033300007031846BD465DF8047B704700ED00E0CA
:1033400080B483B000AF0346FB7197F90730002BC0
:103350000BDBFB7903F01F02074997F907305B0984
:10336000012000FA02F241F8232000BF0C37BD46CD
:103370005DF8047B704700BF00E100E080B483B0DB
:1033800000AF03463960FB7197F90730002B0ADB69
:103390003B68DAB20C4997F907301201D2B20B44FC
:1033A00083F800230AE03B68DAB20849FB7903F0AE
:1033B0000F03043B1201D2B20B441A7600BF0C3744
:1033C000BD465DF8047B704700E100E000ED00E0E1
:1033D00080B489B000AFF860B9607A60FB6803F030
:1033E0000703FB61FB69C3F10703042B28BF042318
:1033F000BB61FB690433062B02D9FB69033B00E088
:1034000000237B614FF0FF32BB6902FA03F3DA431A
:10341000BB681A407B699A404FF0FF317B6901FA23
:1034200003F3D9437B680B40134318462437BD464A
:103430005DF8047B7047000080B582B000AF786013
:103440007B68013BB3F1807F01D301230FE00A4A7F
:103450007B68013B53600F214FF0FF30FFF78EFF79
:10346000054B00229A60044B07221A60002318467D
:103470000837BD4680BD00BF10E000E080B582B0D7
:1034800000AF78607868FFF729FF00BF0837BD46B6
:1034900080BD80B586B000AF0346B9607A60FB732B
:1034A00000237B61FFF73EFF78617A68B96878692D
:1034B000FFF78EFF024697F90F3011461846FFF7C7
:1034C0005DFF00BF1837BD4680BD80B582B000AF3C
:1034D0000346FB7197F907301846FFF731FF00BF2D
:1034E0000837BD4680BD80B582B000AF786078688F
:1034F000FFF7A2FF034618460837BD4680BD80B5DA
:1035000082B000AF78607B68002B01D101230EE010
:103510007B685B79DBB2002B05D17B6800221A71D6
:103520007868FEF741F97B6801225A71002318463A
:103530000837BD4680BD000080B586B000AF78601A
:1035400000237B61FFF7AAFA38617B68002B01D169
:10355000012399E07B68022283F835207B680022F2
:1035600083F834207B681B681A687B681B6822F02C
:1035700001021A600FE0FFF791FA02463B69D31A85
:10358000052B08D97B6820225A657B68032283F8C3
:103590003520032378E07B681B681B6803F0010378
:1035A000002BE8D17B681B681B687B617A69384B0C
:1035B00013407B617B685A687B689B681A437B6811
:1035C000DB681A437B681B691A437B685B691A4393
:1035D0007B689B691A437B68DB691A437B681B6ABB
:1035E00013437A6913437B617B685B6A042B07D1C1
:1035F0007B68DA6A7B681B6B13437A6913437B61D0
:103600007B681B687A691A607B681B685B697B61F1
:103610007B6923F007037B617B685B6A7A691343EC
:103620007B617B685B6A042B17D17B689B6A7A6934
:1036300013437B617B68DB6A002B0ED0786800F057
:103640000DFB0346002B08D07B6840225A657B683F
:10365000012283F83520012316E07B681B687A6914
:103660005A61786800F0C4FA0346FB607B68DB6D42
:103670003F229A40FB689A607B6800225A657B680B
:10368000012283F83520002318461837BD4680BD37
:103690003F8010F080B586B000AFF860B9607A6006
:1036A0003B600023FB75FB689B6D3B61FB6893F8F7
:1036B0003430012B01D1022340E0FB68012283F862
:1036C0003420FB6893F83530DBB2012B2FD1FB6837
:1036D000022283F83520FB6800225A653B687A682D
:1036E000B968F86800F056FAFB68DB6D3F229A4033
:1036F0003B699A60FB681B681A68FB681B6842F0AC
:1037000016021A60FB681B6C002B07D0FB681B6855
:103710001A68FB681B6842F008021A60FB681B68A5
:103720001A68FB681B6842F001021A6005E0FB683A
:10373000002283F834200223FB75FB7D18461837DE
:10374000BD4680BD80B584B000AF78607B689B6D5E
:10375000FB60FFF7A3F9B8607B6893F83530DBB204
:10376000022B08D07B6880225A657B68002283F890
:103770003420012352E07B681B681A687B681B6851
:1037800022F016021A607B681B685A697B681B6806
:1037900022F080025A617B681B6C002B03D17B688E
:1037A0009B6C002B07D07B681B681A687B681B68C2
:1037B00022F008021A607B681B681A687B681B6825
:1037C00022F001021A6013E0FFF768F90246BB68B5
:1037D000D31A052B0CD97B6820225A657B680322FB
:1037E00083F835207B68002283F83420032315E01A
:1037F0007B681B681B6803F00103002BE4D17B6826
:10380000DB6D3F229A40FB689A607B68012283F857
:1038100035207B68002283F83420002318461037B7
:10382000BD4680BD80B483B000AF78607B6893F8FC
:103830003530DBB2022B04D07B6880225A6501232D
:103840000CE07B68052283F835207B681B681A68CA
:103850007B681B6822F001021A60002318460C37AF
:10386000BD465DF8047B704780B586B000AF7860D8
:103870000023BB608E4B1B688E4AA2FB03239B0A6E
:103880007B617B689B6D3B613B691B68FB607B6870
:10389000DB6D08229A40FB681340002B1AD07B682E
:1038A0001B681B6803F00403002B13D07B681B68A4
:1038B0001A687B681B6822F004021A607B68DB6D63
:1038C00008229A403B699A607B685B6D43F0010275
:1038D0007B685A657B68DB6D01229A40FB68134068
:1038E000002B12D07B681B685B6903F08003002B00
:1038F0000BD07B68DB6D01229A403B699A607B6844
:103900005B6D43F002027B685A657B68DB6D0422C5
:103910009A40FB681340002B12D07B681B681B6821
:1039200003F00203002B0BD07B68DB6D04229A406E
:103930003B699A607B685B6D43F004027B685A6563
:103940007B68DB6D10229A40FB681340002B43D04C
:103950007B681B681B6803F00803002B3CD07B6866
:10396000DB6D10229A403B699A607B681B681B687C
:1039700003F48023002B18D07B681B681B6803F4BA
:103980000023002B08D17B681B6C002B24D07B68A4
:103990001B6C786898471FE07B689B6C002B1BD0E2
:1039A0007B689B6C7868984716E07B681B681B688F
:1039B00003F48073002B07D17B681B681A687B684F
:1039C0001B6822F008021A607B681B6C002B03D076
:1039D0007B681B6C786898477B68DB6D20229A4077
:1039E000FB681340002B00F08F807B681B681B680E
:1039F00003F01003002B00F087807B68DB6D202232
:103A00009A403B699A607B6893F83530DBB2052BAE
:103A100036D17B681B681A687B681B6822F0160227
:103A20001A607B681B685A697B681B6822F08002F9
:103A30005A617B681B6C002B03D17B689B6C002B4D
:103A400007D07B681B681A687B681B6822F0080235
:103A50001A607B68DB6D3F229A403B699A607B6805
:103A6000012283F835207B68002283F834207B68AC
:103A70001B6D002B7ED07B681B6D7868984779E0C2
:103A80007B681B681B6803F48023002B1DD07B68B8
:103A90001B681B6803F40023002B0DD17B685B6C53
:103AA000002B31D07B685B6C786898472CE000BFB6
:103AB00004000020B5814E1B7B68DB6B002B23D0FC
:103AC0007B68DB6B786898471EE07B681B681B6827
:103AD00003F48073002B0FD17B681B681A687B6826
:103AE0001B6822F010021A607B68012283F83520DF
:103AF0007B68002283F834207B68DB6B002B03D0CB
:103B00007B68DB6B786898477B685B6D002B32D0F5
:103B10007B685B6D03F00103002B22D07B680522DC
:103B200083F835207B681B681A687B681B6822F065
:103B300001021A60BB680133BB607A699A4207D3FD
:103B40007B681B681B6803F00103002BF2D100E0C7
:103B500000BF7B68012283F835207B68002283F850
:103B600034207B68DB6C002B05D07B68DB6C7868CD
:103B7000984700E000BF1837BD4680BD80B483B0D1
:103B800000AF78607B685B6D18460C37BD465DF80A
:103B9000047B704780B485B000AFF860B9607A608C
:103BA0003B60FB681B681A68FB681B6822F4802274
:103BB0001A60FB681B683A685A60FB689B68402B78
:103BC00008D1FB681B687A689A60FB681B68BA6852
:103BD000DA6007E0FB681B68BA689A60FB681B68DC
:103BE0007A68DA6000BF1437BD465DF8047B704721
:103BF00080B485B000AF78607B681B68DBB2103B97
:103C0000144AA2FB03231B09FB60134AFB681344FD
:103C10001B781A467B68DA65FB68032B09D97B6839
:103C20001B6823F47F7323F003031A1D7B689A65D6
:103C300007E07B681B6823F47F7323F003037A6833
:103C400093657B689B6D18461437BD465DF8047B11
:103C5000704700BFABAAAAAAE8AE030880B485B03B
:103C600000AF78600023FB737B689B6ABB607B6856
:103C70009B69002B1FD1BB68032B56D801A252F8B9
:103C800023F000BF953C0008A73C0008953C0008C5
:103C90002B3D00087B68DB6A03F08073002B46D065
:103CA0000123FB7343E07B68DB6AB3F1C07F40D143
:103CB0000123FB733DE07B689B69B3F5005F21D175
:103CC000BB68032B37D801A252F823F0DD3C000873
:103CD000E33C0008DD3C0008F53C00080123FB73D1
:103CE00030E07B68DB6A03F08073002B25D0012372
:103CF000FB7322E07B68DB6AB3F1C07F1FD1012335
:103D0000FB731CE0BB68022B03D9BB68032B03D0F9
:103D100018E00123FB7315E07B68DB6A03F0807316
:103D2000002B0ED00123FB730BE000BF0AE000BFA5
:103D300008E000BF06E000BF04E000BF02E000BFF3
:103D400000E000BFFB7B18461437BD465DF8047BDE
:103D5000704700BF80B489B000AF7860396000233D
:103D60007B6100233B610023BB610023FB616BE1AE
:103D70000122FB6902FA03F37B613B681B687A69E5
:103D800013403B613A697B699A4240F05A813B6833
:103D90005B6803F00303012B05D03B685B6803F00D
:103DA0000303022B30D17B689B68BB61FB695B001E
:103DB000032202FA03F3DB43BA691340BB613B6899
:103DC000DA68FB695B0002FA03F3BA691343BB616B
:103DD0007B68BA699A607B685B68BB610122FB699A
:103DE00002FA03F3DB43BA691340BB613B685B68CB
:103DF0001B0903F00102FB6902FA03F3BA691343DA
:103E0000BB617B68BA695A603B685B6803F0030377
:103E1000032B17D07B68DB68BB61FB695B00032267
:103E200002FA03F3DB43BA691340BB613B689A684B
:103E3000FB695B0002FA03F3BA691343BB617B6859
:103E4000BA69DA603B685B6803F00303022B23D195
:103E5000FB69DA087B68083253F82230BB61FB69E2
:103E600003F007039B000F2202FA03F3DB43BA6956
:103E70001340BB613B681A69FB6903F007039B00B1
:103E800002FA03F3BA691343BB61FB69DA087B6882
:103E90000832B96943F822107B681B68BB61FB6973
:103EA0005B00032202FA03F3DB43BA691340BB61F0
:103EB0003B685B6803F00302FB695B0002FA03F3F3
:103EC000BA691343BB617B68BA691A603B685B6877
:103ED00003F44033002B00F0B4800023FB60604B00
:103EE0005B6C5F4A43F4804353645D4B5B6C03F44B
:103EF0008043FB60FB685B4AFB699B08023352F816
:103F00002330BB61FB6903F003039B000F2202FA1D
:103F100003F3DB43BA691340BB617B68524A9342A7
:103F20002BD07B68514A934225D07B68504A9342FC
:103F30001FD07B684F4A934219D07B684E4A934208
:103F400013D07B684D4A93420DD07B684C4A934214
:103F500007D07B684B4A934201D107230EE0082328
:103F60000CE006230AE0052308E0042306E003230F
:103F700004E0022302E0012300E00023FA6902F0DA
:103F8000030292009340BA691343BB613549FB6950
:103F90009B080233BA6941F823203B4B9B68BB6105
:103FA0003B69DB43BA691340BB613B685B6803F460
:103FB0008013002B03D0BA693B691343BB61324ABB
:103FC000BB699360304BDB68BB613B69DB43BA691B
:103FD0001340BB613B685B6803F40013002B03D004
:103FE000BA693B691343BB61274ABB69D360264B5F
:103FF0005B68BB613B69DB43BA691340BB613B68EB
:104000005B6803F40033002B03D0BA693B691343A8
:10401000BB611D4ABB6953601B4B1B68BB613B699D
:10402000DB43BA691340BB613B685B6803F48033D0
:10403000002B03D0BA693B691343BB61124ABB69C9
:104040001360FB690133FB61FB690F2B7FF690AEB8
:1040500000BF00BF2437BD465DF8047B704700BF3A
:1040600000380240003801400000024000040240D5
:1040700000080240000C0240001002400014024000
:1040800000180240001C0240003C014080B485B092
:1040900000AF78600B467B807B681A697B88134091
:1040A000002B02D00123FB7301E00023FB73FB7B99
:1040B00018461437BD465DF8047B704780B483B062
:1040C00000AF78600B467B8013467B707B78002BBB
:1040D00003D07A887B689A6103E07B881A047B6846
:1040E0009A6100BF0C37BD465DF8047B704780B411
:1040F00085B000AF78600B467B807B685B69FB60B6
:104100007A88FB6813401A04FB68D9437B880B400C
:104110001A437B689A6100BF1437BD465DF8047B83
:104120007047000080B584B000AF78607B68002BDA
:1041300001D101232BE17B6893F83D30DBB2002BEA
:1041400006D17B68002283F83C207868FDF77CFC70
:104150007B68242283F83D207B681B681A687B6893
:104160001B6822F001021A607B681B681A687B6872
:104170001B6842F400421A607B681B681A687B68FF
:104180001B6822F400421A6002F04EFEF8607B6861
:104190005B68814A934207D8FB68804A934294BF88
:1041A00001230023DBB206E0FB687D4A934294BF03
:1041B00001230023DBB2002B01D00123E7E0FB68E1
:1041C000784AA2FB03239B0CBB607B681B685B687F
:1041D00023F03F017B681B68BA680A435A607B681A
:1041E0001B681B6A23F03F017B685B686A4A934245
:1041F00002D8BB68013309E0BB684FF4967202FB3A
:1042000003F3694AA2FB03239B0901337A6812680E
:104210000B4313627B681B68DB6923F44F4222F077
:10422000FF027B685B685C498B4219D8FB68591EAA
:104230007B685B685B00B1FBF3F3591C40F6FC73D1
:104240000B40002B0AD0FB68591E7B685B685B0043
:10425000B1FBF3F30133C3F30B0351E004234FE04D
:104260007B689B68002B11D1FB68581E7B685968DE
:104270000B465B000B44B0FBF3F30133C3F30B03BA
:10428000002B0CBF01230023DBB212E0FB68581E99
:104290007B6859680B469B000B4499000B44B0FBAC
:1042A000F3F30133C3F30B03002B0CBF01230023F3
:1042B000DBB2002B01D0012322E07B689B68002B3E
:1042C0000ED1FB68581E7B6859680B465B000B4497
:1042D000B0FBF3F30133C3F30B0343F400430FE0EC
:1042E000FB68581E7B6859680B469B000B4499007D
:1042F0000B44B0FBF3F30133C3F30B0343F440432C
:10430000796809681343CB617B681B681B6823F0DD
:10431000C0017B68DA697B681B6A1A437B681B688B
:104320000A431A607B681B689B6823F4034323F0ED
:10433000FF037A6811697A68D26811437A68126853
:104340000B4393607B681B68DB6823F0FF017B688D
:104350005A697B689B691A437B681B680A43DA6069
:104360007B681B681A687B681B6842F001021A6050
:104370007B6800221A647B68202283F83D207B68DA
:1043800000221A637B68002283F83E20002318462F
:104390001037BD4680BD00BFA08601007F841E008F
:1043A000FF083D0083DE1B43D34D621080B588B00B
:1043B00002AFF8607A601A460B467B8113463B8158
:1043C000FEF76CFB7861FB6893F83D30DBB2202B85
:1043D00040F0E0807B690093192301227049F8685E
:1043E00000F058FC0346002B01D00223D3E0FB6809
:1043F00093F83C30012B01D10223CCE0FB68012271
:1044000083F83C20FB681B681B6803F00103012B49
:1044100007D0FB681B681A68FB681B6842F0010242
:104420001A60FB681B681A68FB681B6822F400624C
:104430001A60FB68212283F83D20FB68102283F874
:104440003E20FB6800221A64FB687A685A62FB68A7
:104450003A895A85FB685B8D9AB2FB681A85FB68BE
:10446000504ADA6279897B693A6AF86800F0C2FAE0
:104470000346002B01D001238DE000233B61FB6844
:104480001B685B693B61FB681B689B693B613B691F
:1044900066E07A69396AF86800F0D2FC0346002BBE
:1044A0000DD0FB681B6C042B07D1FB681B681A68D6
:1044B000FB681B6842F400721A6001236BE0FB6822
:1044C0005B6A1A78FB681B681A61FB685B6A5A1C96
:1044D000FB685A62FB685B8D9BB2013B9AB2FB683A
:1044E0005A85FB681B8D013B9AB2FB681A85FB68F5
:1044F0001B685B6903F00403042B1BD1FB681B8D55
:10450000002B17D0FB685B6A1A78FB681B681A617E
:10451000FB685B6A5A1CFB685A62FB685B8D9BB246
:10452000013B9AB2FB685A85FB681B8D013B9AB22E
:10453000FB681A857A69396AF86800F0C2FC03469C
:10454000002B0DD0FB681B6C042B07D1FB681B688C
:104550001A68FB681B6842F400721A6001231AE0B3
:10456000FB681B8D002B94D1FB681B681A68FB68E5
:104570001B6842F400721A60FB68202283F83D2019
:10458000FB68002283F83E20FB68002283F83C2071
:10459000002300E0022318461837BD4680BD00BF47
:1045A000020010000000FFFF80B58CB002AFF86081
:1045B0007A601A460B467B8113463B81FEF76EFA02
:1045C0007862FB6893F83D30DBB2202B40F00B8221
:1045D0007B6A0093192301227C49F86800F05AFB9A
:1045E0000346002B01D00223FEE1FB6893F83C3028
:1045F000012B01D10223F7E1FB68012283F83C2063
:10460000FB681B681B6803F00103012B07D0FB68E4
:104610001B681A68FB681B6842F001021A60FB689D
:104620001B681A68FB681B6822F400621A60FB684A
:10463000222283F83D20FB68102283F83E20FB688D
:1046400000221A64FB687A685A62FB683A895A85C4
:10465000FB685B8D9AB2FB681A85FB685C4ADA627C
:1046600079897B6A3A6BF86800F046FA0346002BBA
:1046700001D00123B8E1FB681B8D002B13D100236F
:104680003B62FB681B685B693B62FB681B689B695C
:104690003B623B6AFB681B681A68FB681B6842F454
:1046A00000721A608CE1FB681B8D012B1BD1FB682B
:1046B0001B681A68FB681B6822F480621A6000237A
:1046C000FB61FB681B685B69FB61FB681B689B699E
:1046D000FB61FB69FB681B681A68FB681B6842F496
:1046E00000721A606CE1FB681B8D022B1BD1FB680A
:1046F0001B681A68FB681B6822F480621A60FB68FA
:104700001B681A68FB681B6842F400621A60002389
:10471000BB61FB681B685B69BB61FB681B689B69CD
:10472000BB61BB694CE1FB681B681A68FB681B68CE
:1047300042F480621A6000237B61FB681B685B693E
:104740007B61FB681B689B697B617B6938E1FB6867
:104750001B8D032B00F2F180FB681B8D012B23D1F5
:104760007A6A396BF86800F0EDFB0346002B01D044
:10477000012339E1FB681B681A69FB685B6AD2B2E6
:104780001A70FB685B6A5A1CFB685A62FB681B8DD7
:10479000013B9AB2FB681A85FB685B8D9BB2013BBB
:1047A0009AB2FB685A850BE1FB681B8D022B4ED138
:1047B0007B6A00933B6B00220649F86800F06AFAB6
:1047C0000346002B08D001230EE100BF02001000B9
:1047D0000000FFFF04000100FB681B681A68FB680B
:1047E0001B6842F400721A60FB681B681A69FB6858
:1047F0005B6AD2B21A70FB685B6A5A1CFB685A6229
:10480000FB681B8D013B9AB2FB681A85FB685B8DC8
:104810009BB2013B9AB2FB685A85FB681B681A6918
:10482000FB685B6AD2B21A70FB685B6A5A1CFB6851
:104830005A62FB681B8D013B9AB2FB681A85FB68C4
:104840005B8D9BB2013B9AB2FB685A85B8E07B6AEC
:1048500000933B6B00226649F86800F01BFA0346A0
:10486000002B01D00123BFE0FB681B681A68FB68BE
:104870001B6822F480621A60FB681B681A69FB6877
:104880005B6AD2B21A70FB685B6A5A1CFB685A6298
:10489000FB681B8D013B9AB2FB681A85FB685B8D38
:1048A0009BB2013B9AB2FB685A857B6A00933B6BD3
:1048B00000224F49F86800F0EDF90346002B01D0C3
:1048C000012391E0FB681B681A68FB681B6842F4CF
:1048D00000721A60FB681B681A69FB685B6AD2B2D7
:1048E0001A70FB685B6A5A1CFB685A62FB681B8D76
:1048F000013B9AB2FB681A85FB685B8D9BB2013B5A
:104900009AB2FB685A85FB681B681A69FB685B6A88
:10491000D2B21A70FB685B6A5A1CFB685A62FB6869
:104920001B8D013B9AB2FB681A85FB685B8D9BB2BD
:10493000013B9AB2FB685A8542E07A6A396BF868A3
:1049400000F000FB0346002B01D001234CE0FB6884
:104950001B681A69FB685B6AD2B21A70FB685B6AF3
:104960005A1CFB685A62FB681B8D013B9AB2FB68BC
:104970001A85FB685B8D9BB2013B9AB2FB685A8536
:10498000FB681B685B6903F00403042B18D1FB6808
:104990001B681A69FB685B6AD2B21A70FB685B6AB3
:1049A0005A1CFB685A62FB681B8D013B9AB2FB687C
:1049B0001A85FB685B8D9BB2013B9AB2FB685A85F6
:1049C000FB681B8D002B7FF4C2AEFB68202283F8AE
:1049D0003D20FB68002283F83E20FB68002283F81C
:1049E0003C20002300E0022318462837BD4680BD46
:1049F0000400010080B588B002AFF8607A603B60C7
:104A00000B467B81FB68DB6A7B617B69082B06D0E8
:104A10007B69012B03D07B6913F5803F08D1FB68CC
:104A20001B681A68FB681B6842F480721A600BE00E
:104A3000FB681B6B122B07D1FB681B681A68FB68AD
:104A40001B6842F480721A603B6800937B68002206
:104A50004FF00111F86800F01DF90346002B0DD04E
:104A6000FB681B681B6803F48073B3F5807F03D178
:104A7000FB684FF400721A64032335E0FB681B697E
:104A8000B3F5804F08D17B89DBB21A46FB681B68FF
:104A900002F0FE021A611BE07B89DB11DBB203F03E
:104AA0000603DBB263F00F03DAB2FB681B681A611E
:104AB0003B687A680E49F86800F043F90346002B1A
:104AC00001D0012310E07B89DAB2FB681B681A6110
:104AD0003B687A680749F86800F033F90346002B11
:104AE00001D0012300E0002318461837BD4680BDE1
:104AF000080001000200010080B588B002AFF86034
:104B00007A603B600B467B81FB68DB6A7B61FB68FC
:104B10001B681A68FB681B6842F480621A607B6934
:104B2000082B06D07B69012B03D07B6913F5803FEE
:104B300008D1FB681B681A68FB681B6842F4807226
:104B40001A600BE0FB681B6B112B07D1FB681B681D
:104B50001A68FB681B6842F480721A603B68009315
:104B60007B6800224FF00111F86800F093F80346CB
:104B7000002B0DD0FB681B681B6803F48073B3F532
:104B8000807F03D1FB684FF400721A64032379E03D
:104B9000FB681B69B3F5804F08D17B89DBB243F01A
:104BA0000103DAB2FB681B681A615FE07B89DB11E5
:104BB000DBB203F00603DBB263F00F03DAB2FB688B
:104BC0001B681A613B687A683049F86800F0B9F8E8
:104BD0000346002B01D0012354E07B89DAB2FB6845
:104BE0001B681A613B687A682949F86800F0A9F8DF
:104BF0000346002B01D0012344E000233B61FB6806
:104C00001B685B693B61FB681B689B693B613B6997
:104C1000FB681B681A68FB681B6842F480721A60A4
:104C20003B6800937B6800224FF00111F86800F0A8
:104C300031F80346002B0DD0FB681B681B6803F49A
:104C40008073B3F5807F03D1FB684FF400721A6460
:104C5000032317E07B89DB11DBB203F00603DBB231
:104C600063F00E03DAB2FB681B681A613B687A686E
:104C70000749F86800F065F80346002B01D00123CE
:104C800000E0002318461837BD4680BD080001002B
:104C90000200010080B584B000AFF860B9603B60ED
:104CA0001346FB7125E03B68B3F1FF3F21D0FDF7D0
:104CB000F5FE0246BB69D31A3A689A4202D33B68B2
:104CC000002B16D1FB6800221A63FB68202283F8B0
:104CD0003D20FB68002283F83E20FB681B6C43F0FC
:104CE0002002FB681A64FB68002283F83C20012341
:104CF00023E0BB681B0CDBB2012B0DD1FB681B68EA
:104D00005B69DA43BB6813409BB2002B0CBF0123E5
:104D10000023DBB21A460CE0FB681B689B69DA4390
:104D2000BB6813409BB2002B0CBF01230023DBB2F6
:104D30001A46FB799A42B6D0002318461037BD4672
:104D400080BD80B584B000AFF860B9607A603B6028
:104D500051E0FB681B685B6903F48063B3F5806F07
:104D600023D1FB681B681A68FB681B6842F4007259
:104D70001A60FB681B686FF480625A61FB6800224E
:104D80001A63FB68202283F83D20FB68002283F829
:104D90003E20FB681B6C43F00402FB681A64FB684E
:104DA000002283F83C20012346E07B68B3F1FF3FFB
:104DB00021D0FDF773FE02463B68D31A7A689A4207
:104DC00002D37B68002B16D1FB6800221A63FB68B4
:104DD000202283F83D20FB68002283F83E20FB68F8
:104DE0001B6C43F02002FB681A64FB68002283F806
:104DF0003C20012320E0BB681B0CDBB2012B0CD153
:104E0000FB681B685B69DA43BB6813409BB2002BED
:104E100014BF01230023DBB20BE0FB681B689B6916
:104E2000DA43BB6813409BB2002B14BF012300235D
:104E3000DBB2002B8DD1002318461037BD4680BD54
:104E400080B584B000AFF860B9607A602DE0F86892
:104E500000F0CEF80346002B01D001232DE0BB6803
:104E6000B3F1FF3F21D0FDF719FE02467B68D31A4C
:104E7000BA689A4202D3BB68002B16D1FB680022A5
:104E80001A63FB68202283F83D20FB68002283F828
:104E90003E20FB681B6C43F02002FB681A64FB6831
:104EA000002283F83C20012307E0FB681B685B6954
:104EB00003F08003802BCAD1002318461037BD466B
:104EC00080BD80B584B000AFF860B9607A602DE035
:104ED000F86800F08DF80346002B01D001232DE087
:104EE000BB68B3F1FF3F21D0FDF7D8FD02467B68D8
:104EF000D31ABA689A4202D3BB68002B16D1FB685A
:104F000000221A63FB68202283F83D20FB68002200
:104F100083F83E20FB681B6C43F02002FB681A6498
:104F2000FB68002283F83C20012307E0FB681B6834
:104F30005B6903F00403042BCAD100231846103721
:104F4000BD4680BD80B584B000AFF860B9607A60BE
:104F500042E0FB681B685B6903F01003102B19D15A
:104F6000FB681B686FF010025A61FB6800221A632D
:104F7000FB68202283F83D20FB68002283F83E2056
:104F8000FB681A6CFB681A64FB68002283F83C20FB
:104F9000012329E0FDF782FD02467B68D31ABA6837
:104FA0009A4202D3BB68002B16D1FB6800221A6319
:104FB000FB68202283F83D20FB68002283F83E2016
:104FC000FB681B6C43F02002FB681A64FB6800223C
:104FD00083F83C20012307E0FB681B685B6903F052
:104FE0004003402BB5D1002318461037BD4680BD85
:104FF00080B483B000AF78607B681B685B6903F4A2
:105000008063B3F5806F1BD17B681B686FF480628F
:105010005A617B6800221A637B68202283F83D2056
:105020007B68002283F83E207B681B6C43F00402FF
:105030007B681A647B68002283F83C20012300E02F
:10504000002318460C37BD465DF8047B7047F0B569
:105050008FB00AAF78607B68002B01D101230FE18C
:105060007B681B68BB607B6893F8BD34DBB2002BA8
:1050700006D17B68002283F8BC24786814F054F9C8
:105080007B68032283F8BD24BB68DB6B03F4807369
:10509000002B02D17B6800221A617B681B681846CE
:1050A00006F079FC7B681B683B607E686D4606F104
:1050B00010040FCC0FC50FCC0FC594E8030085E892
:1050C0000300331D0ECB386806F050FB0346002B5F
:1050D00005D07B68022283F8BD240123D0E07B68E1
:1050E0001B680021184606F067FC0023FB734AE0AA
:1050F000FA7B79681346DB0013449B000B443D3375
:1051000001221A70FA7B79681346DB0013449B0076
:105110000B443C33FA7B1A70FA7BFB7B98B27968BC
:105120001346DB0013449B000B44443302461A80B1
:10513000FA7B79681346DB0013449B000B44403331
:1051400000221A70FA7B79681346DB0013449B0037
:105150000B44483300221A60FA7B79681346DB005F
:1051600013449B000B444C3300221A60FA7B79688D
:105170001346DB0013449B000B44543300221A6097
:10518000FB7B0133FB73FA7B7B685B689A42AFD38E
:105190000023FB7344E0FA7B79681346DB00134479
:1051A0009B000B4403F27D2300221A70FA7B79687E
:1051B0001346DB0013449B000B4403F51F73FA7B7B
:1051C0001A70FA7B79681346DB0013449B000B448A
:1051D00003F5207300221A70FA7B79681346DB000E
:1051E00013449B000B4403F5227300221A60FA7BE0
:1051F00079681346DB0013449B000B4403F52373CB
:1052000000221A60FA7B79681346DB0013449B0086
:105210000B4403F5257300221A60FB7B0133FB73FB
:10522000FA7B7B685B689A42B5D37B681B683B60FE
:105230007E686D4606F110040FCC0FC50FCC0FC56C
:1052400094E8030085E80300331D0ECB386806F0B0
:10525000FFFB0346002B05D07B68022283F8BD24A8
:1052600001230DE07B68002283F838207B6801224F
:1052700083F8BD247B681B68184607F04EFD0023A9
:1052800018461437BD46F0BD80B584B000AF7860D5
:105290007B681B68FB607B6893F8BC34012B01D1F1
:1052A000022320E07B68012283F8BC247B689B6A90
:1052B000012B09D17B689B69012B05D0FB689B6B97
:1052C00043F48032FB689A637B681B68184606F0DB
:1052D00051FB7B681B68184607F0FEFC7B680022C8
:1052E00083F8BC24002318461037BD4680BD90B516
:1052F0008DB000AF78607B681B683B623B6AFB61E6
:105300007B681B68184607F0BCFD0346002B40F085
:105310008A847B681B68184607F020FD0346002B33
:1053200000F08084FB6903F500639B681B0AC3F3EC
:105330000D027B68C3F8FC247B681B68184607F0E5
:105340000DFD034603F00203022B07D17B681B68A7
:105350005A697B681B6802F002025A617B681B680D
:10536000184607F0FBFC034603F01003102B61D135
:105370007B681B689A697B681B6822F010029A613F
:105380003B6A1B6ABB61BB6903F00F021346DB007B
:1053900013449B0003F51E737A68134404337B6146
:1053A000BB695B0C03F00F03022B24D1BA6947F6EB
:1053B000F0731340002B35D07B691969BB691B0959
:1053C0009BB2C3F30A039BB21A46386A07F032FB5A
:1053D0007B691A69BB691B09C3F30A031A447B6919
:1053E0001A617B691A6ABB691B09C3F30A031A4471
:1053F0007B691A6216E0BB695B0C03F00F03062B96
:1054000010D17B6803F2C44308221946386A07F0BA
:1054100011FB7B691A6ABB691B09C3F30A031A44AF
:105420007B691A627B681B689A697B681B6842F01B
:1054300010029A617B681B68184607F08FFC0346D0
:1054400003F40023B3F5002F40F0A78000237B6214
:105450007B681B68184607F094FCB86299E0BB6A49
:1054600003F00103002B00F08E807B681B687A6AD2
:10547000D2B21146184607F0B8FC38613B6903F018
:105480000103002B0CD07B6A5A01FB69134403F51E
:1054900030631A4601239360796A786800F0C2FE8F
:1054A0003B6903F00803002B0CD07B6A5A01FB69AF
:1054B000134403F530631A4608239360796A7868C9
:1054C00000F098FF3B6903F01003002B08D07B6AC3
:1054D0005A01FB69134403F530631A4610239360A5
:1054E0003B6903F00203002B30D03B6A5B6903F099
:1054F0008003802B09D1FB6903F500635B68FA69BF
:1055000002F5006243F4806353607A6A1346DB005D
:1055100013449B0003F51E737A68134404337B61C4
:105520007B69DB78012B08D17B690022DA707B6A0A
:10553000DBB21946786813F0FDFF7B6A5A01FB69FC
:10554000134403F530631A46022393603B6903F06A
:105550002003002B08D07B6A5A01FB69134403F532
:1055600030631A46202393603B6903F40053002BF9
:1055700009D07B6A5A01FB69134403F530631A466C
:105580004FF4005393607B6A01337B62BB6A5B0814
:10559000BB62BB6A002B7FF462AF7B681B68184656
:1055A00007F0DCFB034603F48023B3F5802F40F0C3
:1055B000DB807B681B68184607F0FDFBB8620023A0
:1055C0007B62CDE0BB6A03F00103002B00F0C280D8
:1055D0007B681B687A6AD2B21146184607F023FC32
:1055E00038613B6903F00103002B57D07B6A03F05D
:1055F0000F03012202FA03F3FB60FB6903F500636A
:105600005A6BFB68DB43F96901F5006113404B639A
:105610007B6A5A01FB69134403F510631A460123A0
:1056200093607B681B69012B32D179687A6A1346D3
:10563000DB0013449B000B444C33196878687A6A8A
:105640001346DB0013449B00034448331B68194492
:1056500078687A6A1346DB0013449B0003444C339A
:1056600019607B6A002B13D179687A6A1346DB00D4
:1056700013449B000B4454331B68002B08D17B68F8
:1056800018687B6803F2C4431A46012107F02AFC1C
:105690007B6ADBB21946786813F0C7FE3B6903F0FA
:1056A0000803002B08D07B6A5A01FB69134403F5F9
:1056B00010631A46082393603B6903F01003002B24
:1056C00008D07B6A5A01FB69134403F510631A463C
:1056D000102393603B6903F04003002B08D07B6AE2
:1056E0005A01FB69134403F510631A464023936083
:1056F0003B6903F00203002B23D0796A386A06F075
:105700000BFB7A6A1346DB0013449B0038337A683C
:10571000134404337B617B69DB78012B08D17B69FF
:105720000022DA707B6ADBB21946786813F014FF46
:105730007B6A5A01FB69134403F510631A4602237E
:1057400093603B6903F08003002B03D0796A78688B
:1057500000F0DBFC7B6A01337B62BB6A5B08BB62E7
:10576000BB6A002B7FF42EAF7B681B68184607F0DE
:10577000F5FA034603F00043B3F1004F22D1FB6971
:1057800003F500635B68FA6902F5006223F0010328
:1057900053607B6893F8F434012B08D17B680022B6
:1057A00083F8F4240021786800F0C2FE02E07868F3
:1057B00013F0B2FE7B681B685A697B681B6802F0B5
:1057C00000425A617B681B68184607F0C7FA034617
:1057D00003F40063B3F5006F12D1FB6903F50063B6
:1057E0009B6803F00103012B02D1786813F06EFE71
:1057F0007B681B685A697B681B6802F400625A6107
:105800007B681B68184607F0A9FA034603F4805327
:10581000B3F5805F40F0B780FB6903F500635B6818
:10582000FA6902F5006223F0010353607B681B688C
:105830001021184606F070FA0023FB6246E0FB6A6E
:105840005A01FB69134403F510631A464FF67F3380
:105850009360FB6A5A01FB69134403F510631B68EC
:10586000FA6A5101FA690A4402F5106223F400133E
:105870001360FB6A5A01FB69134403F530631A464F
:105880004FF67F339360FB6A5A01FB69134403F5BB
:1058900030631B68FA6A5101FA690A4402F5306202
:1058A00023F400131360FB6A5A01FB69134403F5E8
:1058B00030631B68FA6A5101FA690A4402F53062E2
:1058C00043F000631360FB6A0133FB627B685B6833
:1058D000FA6A9A42B3D3FB6903F50063DB69FA699C
:1058E00002F5006243F00113D3617B681B6B002B50
:1058F00016D0FB6903F50063D3F88430FA6902F52A
:10590000006243F00B03C2F88430FB6903F50063C7
:105910005B6CFA6902F5006243F00B03536415E017
:10592000FB6903F500635B69FA6902F5006243F401
:10593000005343F02B035361FB6903F500631B69BC
:10594000FA6902F5006243F00B031361FB6903F58A
:1059500000631B68FA6902F5006223F4FE631360BA
:105960007B6818687B681B69D9B27B6803F2C44303
:105970001A4607F0B7FA7B681B685A697B681B6890
:1059800002F480525A617B681B68184607F0E6F9FA
:10599000034603F40053B3F5005F24D17B681B6812
:1059A000184607F07CFA7B681B68184606F031FA47
:1059B00003461A467B68DA607B681C6801F028FAA7
:1059C00001467B68DB68DBB21A46204605F030FFF3
:1059D000786813F052FD7B681B685A697B681B6806
:1059E00002F400525A617B681B68184607F0B6F94A
:1059F000034603F00803082B0AD1786813F02FFD43
:105A00007B681B685A697B681B6802F008025A6150
:105A10007B681B68184607F0A1F9034603F0800372
:105A2000802B22D13B6A9B6923F080023B6A9A61FA
:105A300001237B6214E079687A6A1346DB00134421
:105A40009B000B4403F27F231B78012B05D17B6A5B
:105A5000DBB21946786800F027FB7B6A01337B6272
:105A60007B685B687A6A9A42E5D37B681B68184654
:105A700007F074F9034603F48013B3F5801F3BD19C
:105A800001237B622BE07B6A5A01FB69134403F517
:105A900010631B68BB6179687A6A1346DB001344A4
:105AA0009B000B4440331B78012B15D1BB69002BA5
:105AB00012DA79687A6A1346DB0013449B000B44C0
:105AC0003F3301221A707B6ADBB263F07F03DBB2E3
:105AD0001946786800F0E8FA7B6A01337B627B68DC
:105AE0005B687A6A9A42CED37B681B685A697B6886
:105AF0001B6802F480125A617B681B68184607F025
:105B00002DF9034603F40013B3F5001F55D101230B
