:020000040800F2
:10000000000002201D240008111F00080102000842
:10001000151F0008191F00081D1F00080000000020
:10002000000000000000000000000000C1080108FE
:10003000211F00080000000051090108251F0008C9
:100040006D2400086D2400086D2400086D2400084C
:100050006D2400086D2400086D2400086D2400083C
:100060006D2400086D2400086D2400086D2400082C
:100070006D2400086D2400086D2400086D2400081C
:100080006D2400086D2400086D2400086D2400080C
:100090006D2400086D2400086D2400086D240008FC
:1000A0006D2400086D2400086D2400086D240008EC
:1000B0006D2400086D240008391F00086D24000815
:1000C0006D2400086D2400086D2400086D240008CC
:1000D0006D240008451F00086D2400086D240008E9
:1000E0006D2400086D2400086D2400086D240008AC
:1000F0006D2400086D2400086D2400086D2400089C
:100100006D240008511F00086D2400086D240008AC
:100110006D2400086D2400086D2400086D2400087B
:100120006D2400086D2400086D2400085D1F000880
:100130006D24000800000000000000006D2400088D
:100140006D2400086D2400086D240008691F000854
:100150006D240008751F00086D2400086D24000838
:100160006D2400086D2400086D2400086D2400082B
:100170006D2400086D24000800000000000000004D
:080180006D2400086D24000845
:1001C00010B5054C237833B9044B13B10448AFF391
:1001D00000800123237010BD80110020000000006A
:1001E00054F2020808B5034B1BB103490348AFF3AF
:1001F000008008BD000000008411002054F20208B5
:100200007046694617F0A4F9FFF7FEFF81F0004140
:1002100002E000BF83F0004330B54FEA41044FEAEB
:10022000430594EA050F08BF90EA020F1FBF54EA86
:10023000000C55EA020C7FEA645C7FEA655C00F022
:10024000E2804FEA5454D4EB5555B8BF6D420CDDF3
:100250002C4480EA020281EA030382EA000083EA76
:10026000010180EA020281EA0303362D88BF30BD16
:1002700011F0004F4FEA01314FF4801C4CEA11316C
:1002800002D0404261EB410113F0004F4FEA0333CB
:100290004CEA133302D0524263EB430394EA050F56
:1002A00000F0A780A4F10104D5F1200E0DDB02FAC5
:1002B0000EFC22FA05F2801841F1000103FA0EF259
:1002C000801843FA05F359410EE0A5F120050EF11F
:1002D000200E012A03FA0EFC28BF4CF0020C43FA50
:1002E00005F3C01851EBE37101F0004507D54FF05D
:1002F000000EDCF1000C7EEB00006EEB0101B1F5AD
:10030000801F1BD3B1F5001F0CD349085FEA3000F2
:100310004FEA3C0C04F101044FEA445212F5800FFD
:1003200080F09A80BCF1004F08BF5FEA500C50F19A
:10033000000041EB045141EA050130BD5FEA4C0C7D
:10034000404141EB0101013C28BFB1F5801FE9D2DA
:1003500091F0000F04BF01460020B1FA81F308BFFD
:100360002033A3F10B03B3F120020CDA0C3208DDC9
:1003700002F1140CC2F10C0201FA0CF021FA02F1A4
:100380000CE002F11402D8BFC2F1200C01FA02F114
:1003900020FA0CFCDCBF41EA0C019040E41AA2BF39
:1003A00001EB0451294330BD6FEA04041F3C1CDA01
:1003B0000C340EDC04F11404C4F1200220FA04F021
:1003C00001FA02F340EA030021FA04F345EA0301CB
:1003D00030BDC4F10C04C4F1200220FA02F001FA8D
:1003E00004F340EA0300294630BD21FA04F029460F
:1003F00030BD94F0000F83F4801306BF81F48011A8
:100400000134013D4EE77FEA645C18BF7FEA655C1A
:1004100029D094EA050F08BF90EA020F05D054EAEC
:10042000000C04BF1946104630BD91EA030F1EBFF1
:100430000021002030BD5FEA545C05D140004941F5
:1004400028BF41F0004130BD14F580043CBF01F5E8
:10045000801130BD01F0004545F0FE4141F47001CE
:100460004FF0000030BD7FEA645C1ABF19461046A9
:100470007FEA655C1CBF0B46024650EA013406BFAA
:1004800052EA033591EA030F41F4002130BD00BF69
:1004900090F0000F04BF0021704730B54FF4806426
:1004A00004F132044FF000054FF0000150E700BFA7
:1004B00090F0000F04BF0021704730B54FF4806406
:1004C00004F1320410F0004548BF40424FF00001F3
:1004D0003EE700BF42004FEAE2014FEA31014FEA36
:1004E00002701FBF12F07F4393F07F4F81F0605185
:1004F000704732F07F4208BF704793F07F4F04BFD0
:1005000041F40021704730B54FF4607401F00045AC
:1005100021F000411CE700BF50EA010208BF70470C
:1005200030B54FF000050AE050EA010208BF7047FD
:1005300030B511F0004502D5404261EB41014FF466
:10054000806404F132045FEA915C3FF4D8AE4FF06E
:1005500003025FEADC0C18BF03325FEADC0C18BF51
:10056000033202EBDC02C2F1200300FA03FC20FAA2
:1005700002F001FA03FE40EA0E0021FA02F11444EF
:10058000BDE600BF70B54FF0FF0C4CF4E06C1CEA08
:1005900011541DBF1CEA135594EA0C0F95EA0C0F79
:1005A00000F0DEF82C4481EA030621EA4C5123EAEC
:1005B0004C5350EA013518BF52EA033541F480111B
:1005C00043F4801338D0A0FB02CE4FF00005E1FBCE
:1005D00002E506F00042E0FB03E54FF00006E1FB18
:1005E00003569CF0000F18BF4EF0010EA4F1FF045B
:1005F000B6F5007F64F5407404D25FEA4E0E6D419B
:1006000046EB060642EAC62141EA55514FEAC520AB
:1006100040EA5E504FEACE2EB4F1FD0C88BFBCF527
:10062000E06F1ED8BEF1004F08BF5FEA500E50F1D8
:10063000000041EB045170BD06F0004646EA01019E
:1006400040EA020081EA0301B4EB5C04C2BFD4EBD0
:100650000C0541EA045170BD41F480114FF0000EC9
:10066000013C00F3AB8014F1360FDEBF002001F037
:10067000004170BDC4F10004203C35DA0C341BDCB1
:1006800004F11404C4F1200500FA05F320FA04F083
:1006900001FA05F240EA020001F0004221F00041B7
:1006A00010EBD37021FA04F642EB06015EEA430E2A
:1006B00008BF20EAD37070BDC4F10C04C4F120055A
:1006C00000FA04F320FA05F001FA04F240EA02000D
:1006D00001F0004110EBD37041F100015EEA430EDE
:1006E00008BF20EAD37070BDC4F1200500FA05F2FE
:1006F0004EEA020E20FA04F301FA05F243EA02037D
:1007000021FA04F001F0004121FA04F220EA02008B
:1007100000EBD3705EEA430E08BF20EAD37070BDD1
:1007200094F0000F0FD101F00046400041EB0101B1
:1007300011F4801F08BF013CF7D041EA060195F093
:10074000000F18BF704703F00046520043EB03034D
:1007500013F4801F08BF013DF7D043EA060370473A
:1007600094EA0C0F0CEA135518BF95EA0C0F0CD045
:1007700050EA410618BF52EA4306D1D181EA03018B
:1007800001F000414FF0000070BD50EA410606BF85
:100790001046194652EA430619D094EA0C0F02D1CA
:1007A00050EA013613D195EA0C0F05D152EA03360F
:1007B0001CBF104619460AD181EA030101F000412D
:1007C00041F0FE4141F470014FF0000070BD41F076
:1007D000FE4141F4780170BD70B54FF0FF0C4CF450
:1007E000E06C1CEA11541DBF1CEA135594EA0C0F6F
:1007F00095EA0C0F00F0A7F8A4EB050481EA030EBC
:1008000052EA03354FEA013100F088804FEA0333A2
:100810004FF0805545EA131343EA12634FEA022270
:1008200045EA111545EA10654FEA00260EF0004131
:100830009D4208BF964244F1FD0404F5407402D283
:100840005B084FEA3202B61A65EB03055B084FEA14
:1008500032024FF480104FF4002CB6EB020E75EB11
:10086000030E22BFB61A754640EA0C005B084FEA39
:100870003202B6EB020E75EB030E22BFB61A7546B6
:1008800040EA5C005B084FEA3202B6EB020E75EB01
:10089000030E22BFB61A754640EA9C005B084FEA79
:1008A0003202B6EB020E75EB030E22BFB61A754686
:1008B00040EADC0055EA060E18D04FEA051545EA75
:1008C00016754FEA06164FEAC30343EA52734FEA1E
:1008D000C2025FEA1C1CC0D111F4801F0BD141EA97
:1008E00000014FF000004FF0004CB6E711F4801FFC
:1008F00004BF01430020B4F1FD0C88BFBCF5E06FDC
:100900003FF6AFAEB5EB030C04BFB6EB020C5FEAEB
:10091000500C50F1000041EB045170BD0EF0004E40
:100920004EEA113114EB5C04C2BFD4EB0C0541EA72
:10093000045170BD41F480114FF0000E013C90E66F
:1009400045EA060E8DE60CEA135594EA0C0F08BF33
:1009500095EA0C0F3FF43BAF94EA0C0F0AD150EA32
:1009600001347FF434AF95EA0C0F7FF425AF1046C5
:1009700019462CE795EA0C0F06D152EA03353FF4ED
:10098000FDAE1046194622E750EA410618BF52EA6A
:1009900043067FF4C5AE50EA41047FF40DAF52EA3E
:1009A00043057FF4EBAE12E74FF0FF3C06E000BFDB
:1009B0004FF0010C02E000BF4FF0010C4DF804CDE8
:1009C0004FEA410C7FEA6C5C4FEA430C18BF7FEAA8
:1009D0006C5C1BD001B050EA410C0CBF52EA430CD6
:1009E00091EA030F02BF90EA020F0020704710F156
:1009F000000F91EA030F58BF994208BF90422CBFE5
:100A0000D8176FEAE37040F0010070474FEA410CDD
:100A10007FEA6C5C02D150EA013C07D14FEA430CFB
:100A20007FEA6C5CD6D152EA033CD3D05DF8040B6C
:100A3000704700BF8446104662468C46194663469E
:100A400000E000BF01B5FFF7B7FF002848BF10F175
:100A5000000F01BD4DF808EDFFF7F4FF0CBF0120BA
:100A600000205DF808FB00BF4DF808EDFFF7EAFF36
:100A700034BF012000205DF808FB00BF4DF808EDF1
:100A8000FFF7E0FF94BF012000205DF808FB00BFE6
:100A90004DF808EDFFF7CEFF94BF012000205DF870
:100AA00008FB00BF4DF808EDFFF7C4FF34BF01207D
:100AB00000205DF808FB00BF4FEA410C7FEA6C5C48
:100AC00002D150EA013C0AD14FEA430C7FEA6C5C48
:100AD00002D152EA033C02D14FF0000070474FF0C0
:100AE000010070474FEA410212F5001215D211D5EC
:100AF0006FF47873B3EB625212D94FEAC12343F01B
:100B0000004343EA505311F0004F23FA02F018BF9C
:100B1000404270474FF00000704750EA013005D165
:100B200011F0004008BF6FF0004070474FF0000028
:100B3000704700BF4A0011D212F5001211D20DD534
:100B40006FF47873B3EB62520ED44FEAC12343F0D3
:100B5000004343EA505323FA02F070474FF000007D
:100B6000704750EA013002D14FF0FF3070474FF02C
:100B7000000070474FEA4102B2F1E04324BFB3F5F1
:100B8000001CDCF1FE5C0DD901F0004C4FEAC00204
:100B90004CEA5070B2F1004F40EB830008BF20F0E8
:100BA0000100704711F0804F21D113F13872BCBFA2
:100BB00001F00040704741F480114FEA5252C2F1F7
:100BC0001802C2F1200C10FA0CF320FA02F018BF40
:100BD00040F001004FEAC1234FEAD32303FA0CFC93
:100BE00040EA0C0023FA02F34FEA4303CCE77FEA22
:100BF000625307D150EA01331EBF4FF0FE4040F46C
:100C00004000704701F0004040F0FE4040F400001A
:100C1000704700BF7BB972B90029BEBF00204FF0FA
:100C2000004106E008BF00281CBF6FF000414FF0F4
:100C3000FF3000F0D3B9ADF1080C6DE904CE002906
:100C400009DB002B1ADB00F061F8DDF804E0DDE9D8
:100C5000022304B07047404261EB4101002B1BDBD3
:100C600000F054F8DDF804E0DDE9022304B040426E
:100C700061EB4101524263EB43037047524263EB25
:100C8000430300F043F8DDF804E0DDE9022304B09B
:100C9000404261EB41017047524263EB430300F075
:100CA00035F8DDF804E0DDE9022304B0524263EBDD
:100CB0004303704753B94AB9002908BF00281CBF35
:100CC0004FF0FF314FF0FF3000F088B9ADF1080C64
:100CD0006DE904CE00F01AF8DDF804E0DDE9022346
:100CE00004B07047430803F05533C01A830803F07B
:100CF000333300F03330184400EB101000F00F30A5
:100D000000EB002000EB0040000E70472DE9F0479B
:100D1000089D04468E46002B4DD18A42944669D9DF
:100D2000B2FA82F252B101FA02F3C2F1200120FAC2
:100D300001F10CFA02FC41EA030E94404FEA1C4810
:100D4000210CBEFBF8F61FFA8CF708FB16E341EA0C
:100D5000034306FB07F199420AD91CEB030306F192
:100D6000FF3080F01F81994240F21C81023E6344B3
:100D70005B1AA4B2B3FBF8F008FB103344EA034457
:100D800000FB07F7A7420AD91CEB040400F1FF336C
:100D900080F00A81A74240F207816444023840EAA9
:100DA0000640E41B00261DB1D4400023C5E90043E2
:100DB0003146BDE8F0878B4209D9002D00F0EF8065
:100DC0000026C5E9000130463146BDE8F087B3FA98
:100DD00083F6002E4AD18B4202D3824200F2F98080
:100DE000841A61EB030301209E46002DE0D0C5E983
:100DF000004EDDE702B9FFDEB2FA82F2002A40F0CF
:100E00009280A1EB0C014FEA1C471FFA8CFE0126D1
:100E1000200CB1FBF7F307FB131140EA01410EFB75
:100E200003F0884208D91CEB010103F1FF3802D21C
:100E3000884200F2CB804346091AA4B2B1FBF7F016
:100E400007FB101144EA01440EFB00FEA64508D939
:100E50001CEB040400F1FF3102D2A64500F2BB8076
:100E60000846A4EB0E0440EA03409CE7C6F12007C5
:100E7000B34022FA07FC4CEA030C20FA07F401FA0B
:100E800006F31C43F9404FEA1C4900FA06F3B1FB94
:100E9000F9F8200C1FFA8CFE09FB181140EA0141F9
:100EA00008FB0EF0884202FA06F20BD91CEB010196
:100EB00008F1FF3A80F08880884240F28580A8F1EE
:100EC00002086144091AA4B2B1FBF9F009FB101140
:100ED00044EA014100FB0EFE8E4508D91CEB0101DE
:100EE00000F1FF346CD28E456AD90238614440EA81
:100EF0000840A0FB0294A1EB0E01A142C846A64601
:100F000056D353D05DB1B3EB080261EB0E0101FA89
:100F100007F722FA06F3F1401F43C5E900710026E6
:100F20003146BDE8F087C2F12003D8400CFA02FC3C
:100F300021FA03F3914001434FEA1C471FFA8CFE4C
:100F4000B3FBF7F007FB10360B0C43EA064300FB3C
:100F50000EF69E4204FA02F408D91CEB030300F1DA
:100F6000FF382FD29E422DD9023863449B1B89B291
:100F7000B3FBF7F607FB163341EA034106FB0EF31A
:100F80008B4208D91CEB010106F1FF3816D28B42C7
:100F900014D9023E6144C91A46EA004638E72E4693
:100FA000284605E70646E3E61846F8E64B45A9D28B
:100FB000B9EB020864EB0C0E0138A3E74646EAE7FA
:100FC000204694E74046D1E7D0467BE7023B6144A8
:100FD00032E7304609E76444023842E7704700BF11
:100FE00001F0FF01102A2BDB10F0070F08D010F8DA
:100FF000013B013A8B422DD010F0070F42B3F6D1DE
:10100000F0B441EA012141EA014122F007047FF0F6
:1010100000070023F0E80256083C85EA010586EA4D
:10102000010685FA47F5A3FA87F586FA47F6A5FA89
:1010300087F68EB9EED1F0BC01F0FF0102F0070295
:1010400032B110F8013B013A83EA010313B1F8D140
:101050000020704701387047002D06BF3546033821
:10106000073815F0010F07D1013015F4807F02BF5A
:10107000013015F4C03F0130F0BC0138704700BFAB
:10108000844641EA000313F003036DD1403A41D393
:1010900051F8043B40F8043B51F8043B40F8043B52
:1010A00051F8043B40F8043B51F8043B40F8043B42
:1010B00051F8043B40F8043B51F8043B40F8043B32
:1010C00051F8043B40F8043B51F8043B40F8043B22
:1010D00051F8043B40F8043B51F8043B40F8043B12
:1010E00051F8043B40F8043B51F8043B40F8043B02
:1010F00051F8043B40F8043B51F8043B40F8043BF2
:1011000051F8043B40F8043B51F8043B40F8043BE1
:10111000403ABDD2303211D351F8043B40F8043B81
:1011200051F8043B40F8043B51F8043B40F8043BC1
:1011300051F8043B40F8043B103AEDD20C3205D391
:1011400051F8043B40F8043B043AF9D2043208D089
:10115000D2071CBF11F8013B00F8013B01D30B88FB
:1011600003806046704700BF082A13D38B078DD0D9
:1011700010F003038AD0C3F10403D21ADB071CBFAB
:1011800011F8013B00F8013B80D331F8023B20F815
:10119000023B7BE7043AD9D3013A11F8013B00F84E
:1011A000013BF9D20B7803704B7843708B788370D6
:1011B00060467047000000000000000000000000D2
:1011C000A2EB0300704700BF02780B78012A28BF0A
:1011D0009A42F5D16DE9044540EA0104CDE9026780
:1011E0006FF0000C4FEA447212B380EA010414F06D
:1011F000070F6AD100F0070420F0070004F0030590
:1012000021F007014FEAC505F0E8042314F0040FAC
:10121000F1E804670CFA05F462EA040266EA0406DF
:101220000AD063EA0403624667EA0407664603E0FD
:10123000F0E80423F1E8046782FA4CF582EA060438
:10124000A4FA8CF46CBB83FA4CF583EA0705A5FA83
:101250008CF595B950E9022351E9026782FA4CF501
:1012600082EA0604A4FA8CF483FA4CF583EA0705B3
:10127000A5FA8CF52543DBD09CB92DBAB5FA85F4D7
:1012800024F0070427FA04F1DDE9026723FA04F3E6
:1012900003F0FF0001F0FF01FDE80445A0EB0100B1
:1012A000704724BAB4FA84F424F0070426FA04F14F
:1012B000DDE9026722FA04F202F0FF0001F0FF010B
:1012C000FDE80445A0EB0100704714F0030F3CD18A
:1012D00010F0030428D150F8082B51F8083B82FA8B
:1012E0004CF582EA0305A5FA8CF55DB950F8042C9B
:1012F00051F8043C82FA4CF582EA0305A5FA8CF514
:10130000002DE8D02DBAB5FA85F424F0070423FAAD
:1013100004F122FA04F202F0FF0001F0FF01FDE8FF
:101320000445A0EB010070474FEAC40420F003001D
:1013300050F8082B21F0030151F8083B0CFA04F493
:1013400062EA040263EA0403C9E710F003041AD056
:10135000A1EB040120F00300E40750F8042B06D0B1
:101360000FD28B785FFAA2F4E41A06D12BB1CB78B6
:101370005FFAB2F4E41A00D11BB920465DF8104BB5
:10138000704701F1040150F8042BCC0721F0030150
:1013900051F8043B48D824D222F07F4482FA4CF51D
:1013A00094EA1325A5FA8CF50AD165B951F8043BE6
:1013B00084EA0204B4EB036F0ED150F8042BEBE780
:1013C0004FEA132355E035F07F454DD10878FDE80D
:1013D0000445C0F1000070474FEA126203F0FF03BA
:1013E00047E002EA1C4482FA4CF594EA1345A5FA58
:1013F0008CF50AD165B951F8043B84EA0204B4EBD8
:10140000034F0CD150F8042BEBE74FEA134330E0C5
:1014100015EA1C4528D10B884FEA124229E04FEA11
:10142000124203EA1C4324E002F0FF0482FA4CF566
:1014300094EA1365A5FA8CF50AD165B951F8043B15
:1014400084EA0204B4EB032F09D150F8042BEBE734
:101450004FEA13630DE015F0FF0F05D10B684FEA5B
:10146000122223F07F4304E04FF00000FDE8044522
:10147000704712BA1BBA82FA4CF482EA0304A4FA47
:101480008CF5B5FA85F402FA04F203FA04F34FEA94
:101490001260FDE80445A0EB1360704700000000F7
:1014A000000000000000000000000000000000003C
:1014B000000000000000000000000000000000002C
:1014C00090F800F06DE9024520F007016FF0000C84
:1014D00010F0070491F820F040F049804FF000042C
:1014E0006FF00700D1E9002391F840F000F1080007
:1014F00082FA4CF2A4FA8CF283FA4CF3A2FA8CF33F
:101500004BBBD1E9022382FA4CF200F10800A4FAA5
:101510008CF283FA4CF3A2FA8CF3E3B9D1E90423F9
:1015200082FA4CF200F10800A4FA8CF283FA4CF330
:10153000A2FA8CF37BB9D1E9062301F1200182FAEA
:101540004CF200F10800A4FA8CF283FA4CF3A2FAF0
:101550008CF3002BC6D0002A04BF04301A4612BAFE
:10156000B2FA82F2FDE8024500EBD2007047D1E901
:10157000002304F00305C4F100004FEAC50514F090
:10158000040F91F840F00CFA05F562EA05021CBF61
:1015900063EA050362464FF00004A9E738B500226C
:1015A000002304460D46FFF75FFA28B92046294676
:1015B000BDE8384000F00AB8204605F1004100F0CF
:1015C00005F8404261EB410138BD00BFD0B50C4B7E
:1015D000002206460F46FEF7D5FFFFF7ABFA04469A
:1015E000FEF756FF074B0022FEF7CCFF02460B46E4
:1015F00030463946FEF70EFEFFF79CFA2146D0BD75
:101600000000F03D0000F04100B59FED1B7B1E483F
:101610001E494FF48032002385B0C0E9001280EDEE
:101620000A7B0122CDE90033CDE9023383600361F7
:10163000037680F82030C360C26180F830304261A8
:1016400000F08AFF68B99FED0E7B00230E480293DD
:1016500069468DED007B01F01FF928B905B05DF8F2
:1016600004FB00F07BFAEEE700F078FA05B05DF8D5
:1016700004FB00BFAFF300800100000F000000007A
:101680000400000001000000A01100200020014023
:1016900000B5194A016889B000239142CDE90233AF
:1016A000CDE90433069302D009B05DF804FB02F5DE
:1016B0008C320093506C40F480705064506C00F495
:1016C0008070009000980193136B0C4843F0010365
:1016D0001363136B9FED067B03F00103019302A9D3
:1016E0008DED027B019B01F035FC09B05DF804FB38
:1016F0001000000003000000002001400000024034
:1017000070B50C4C84B00B4600906946012620460B
:101710001546CDE9016301F0BFF8204600F0CAFF8D
:101720002946204601F05AF8204601F0B1F880B26F
:1017300004B070BDA0110020054808B5054B03603A
:1017400001F0D0F900B908BDBDE8084000F006BAC4
:10175000E8110020003002400B4B02689A4200D092
:10176000704782B000220192D3F8302842F48052B0
:10177000C3F8302803F500631B6B03F48053019317
:10178000019B02B0704700BF0030024000B583B03B
:1017900000220E4B0192186B40F4800018631B6B03
:1017A00003F48003062101933B20019B01F034F9EF
:1017B0003B2001F06FF900224520062101F02CF9B1
:1017C000452003B05DF804EB01F064B90038024035
:1017D00008B511F0B9FE12F0ABFC12F0D5FA4FF4D7
:1017E0007A7012F0CFFAF8E708B5044A04480021ED
:1017F0000EF048FD034B186008BD00BFBCF20208A4
:10180000D1170008F01100202DE9F04300248DB01D
:10181000CDE90644CDE90844424B01940A941A6B81
:10182000DFF80881404DDFF8089142F004021A63A6
:101830001A6B02F004020192019A02941A6B42F0B0
:1018400080021A631A6B02F080020292029A0394D9
:101850001A6B42F001021A631A6B02F00102039242
:10186000039A04941A6B42F002021A631A6B02F094
:1018700002020492049A05941A6B42F008021A6359
:101880001B6B03F0080305932246404642F23001E9
:10189000059B01F085FC224628464FF4A04101F04B
:1018A0007FFC224648464FF4807101F079FC002607
:1018B000002706A9404642F230020123CDE9062363
:1018C000CDE9086701F046FB404606A94FF44042C7
:1018D0000023CDE90623089401F03CFB06A9284625
:1018E0004FF4A0420123CDE90623CDE9086701F0BA
:1018F00031FB06A948464FF480720123CDE9062347
:10190000CDE9086701F026FB4FF44072002306A9D9
:101910002846CDE90623089401F01CFB0DB0BDE874
:10192000F08300BF0038024000040240000802407B
:101930000000024010B50B480B4C0C4900234FF43B
:101940008042C0E90041C0E90233C0E90423C0E994
:101950000633036201F032FC00B910BDBDE810404F
:1019600000F0FCB8F411002000540040A0860100F3
:1019700030B5184B026889B000249A42CDE9024480
:10198000CDE90444069401D009B030BD124D009455
:101990002B6B124843F002032B632B6B03F0020303
:1019A0000093C0221223CDE902230323059302A949
:1019B00004230693009A01F0CDFA01942B6C43F4B2
:1019C00000132B642B6C03F400130193019B09B0EB
:1019D00030BD00BF00540040003802400004024007
:1019E00000B583B00122019001A9104600F008FD66
:1019F00001A8012111F018FE03B05DF804FB00BF3F
:101A000010B5002394B0CDE90A33CDE90233CDE916
:101A10000433274900930C930693086C254A40F041
:101A200080500864096C01F0805100910099019385
:101A3000136843F4804313601368022103F4804366
:101A400001229FED177B019304204FF48003CDE921
:101A50000D21A822CDE910020F9308A807238DEDD0
:101A6000087BCDE91213019C03F032F808B172B67D
:101A7000FEE79FED0D7B4FF4A0530022CDE9042338
:101A800002A84FF4805305218DED027B069303F0ED
:101A900037FA08B172B6FEE714B010BDAFF300809C
:101AA00009000000000001000F000000020000001B
:101AB000003802400070004000B589B000F0FCFC26
:101AC00000F06AFBFFF79CFF0022CDE90222CDE97E
:101AD0000422204B01920692196B1F4841F001012C
:101AE00019631B6B03F001034FF4C0510193019B79
:101AF00001F056FB4FF4C052012302A9CDE90223A5
:101B0000154802220323CDE9042301F023FA14200F
:101B100000F0FEFCFFF778FEFFF738FEFFF774FDDC
:101B2000FFF70AFEFFF706FF00F01AF800F040F892
:101B300000F004F900F024F900F09AFA00F0D2FB6A
:101B400007F0B0FA0EF058FBFFF74EFE0EF078FBF0
:101B5000FEE700BF003802400000024072B6FEE718
:101B6000054808B5054B036003F08EFA00B908BDBF
:101B7000BDE80840FFF7F2BF4812002000080650F9
:101B8000094B02689A4200D0704782B0074B00228E
:101B900001925A6B42F040025A635B6B03F04003C0
:101BA0000193019B02B070470008065000380240C4
:101BB000054B06490022C3E90012C3E90222C3E92A
:101BC00004229A61704700BF18130020002C0140C6
:101BD0002DE9F041524B02688AB000249A42CDE9C7
:101BE0000444CDE90644089402D00AB0BDE8F0816F
:101BF00003F5863301945A6C4A4E42F400625A64EB
:101C00005A6C02F400620192019A02941A6B42F03B
:101C100004021A631A6B02F004020292029A0394FD
:101C20001A6B42F008021A631B6B03F0080303935C
:101C30004FF4F852022303274FF00C0804A905467D
:101C40003948CDE90423CDE90778039B01F082F9F7
:101C500004220223CDE904233448CDF82080002259
:101C6000032304A9CDE9062301F074F9304A4FF0AB
:101C70000063C6E900234FF4806333614FF4805161
:101C80004FF48043C6E905132023F3610423C6E91A
:101C900008434FF400024FF400133046C6E90244F3
:101CA000C6E90A72336300F031FF90BB214C224930
:101CB0002E644FF000620023C4E9001240214FF46B
:101CC0008062C4E9021322614FF480514FF48042D4
:101CD000C4E905122022C4E9072304210323C4E92F
:101CE00009134FF400024FF400132046C4E90B23FC
:101CF000B56300F00BFF78B9002205213120EC63B9
:101D0000A56300F089FE312000F0C4FE0AB0BDE8F2
:101D1000F081FFF723FFC9E7FFF720FFECE700BFE3
:101D2000002C01405812002000080240000C024024
:101D300058640240B8120020A064024010B50E485A
:101D40000E4C4FF482720023C0E900424FF4802110
:101D50000A22C0E90233C0E90433C0E90613C0E92E
:101D60000833C0E90A3204F081F800B910BDBDE8BB
:101D70001040FFF7F3BE00BF9C130020003001406D
:101D800010B50E480E4C4FF482720023C0E9004299
:101D90004FF400710A22C0E90233C0E90433C0E9FC
:101DA0000613C0E90833C0E90A3204F05FF800B94D
:101DB00010BDBDE81040FFF7D1BE00BFF4130020F6
:101DC0000038004010B502683B498CB000238A42BD
:101DD000CDE90633CDE908330A9304D037498A4266
:101DE0003CD00CB010BD364A0093516C354841F4DC
:101DF00080515164516C01F480510091009901931C
:101E0000116B41F001011163116B01F001010191AE
:101E100001990293136B43F002031363136B03F0F6
:101E2000020302934FF400420223CDE90623052466
:101E3000032306A9029ACDE9093401F08BF8382270
:101E40000223CDE9062320480A940022032306A991
:101E5000CDE9082301F07EF80CB010BD184A0393B9
:101E6000116C1A4841F480411164116C01F48041F5
:101E7000039103990493116B41F004011163116BF9
:101E800001F00401049104990593136B43F00203DC
:101E90001363136B03F0020305930C220223CDE9B5
:101EA00006230524032306A9059ACDE9093401F088
:101EB00051F84FF40052C3E70030014000380040B1
:101EC00000380240000002400004024000080240C6
:101ED00082B00E4B00220092596C41F4804159644B
:101EE000586C00F48040009000980192186C40F00B
:101EF000805018641B6C03F080530193019B0F21E9
:101F00006FF0010002B000F087BD00BF0038024052
:101F1000FEE700BFFEE700BFFEE700BFFEE700BF31
:101F2000704700BF08B510F099FF012800D108BD27
:101F3000BDE808400EF03EBD014804F0D7BC00BF2C
:101F4000A8140020014804F0A7BF00BFF41400202B
:101F5000014803F00DBB00BF18130020014800F03A
:101F600007BF00BF58120020014801F09FBE00BF0C
:101F7000909F0020014800F0FBBE00BFB812002077
:101F80000120704708B51EF091FE162303604FF044
:101F9000FF3008BD08B51EF089FE16230360FEE77A
:101FA00070B5161E07DD0C468D19AFF3008004F8DE
:101FB000010BA542F9D1304670BD00BF70B5161EA9
:101FC00007DD0C468D1914F8010BFFF709FDAC4233
:101FD000F9D1304670BD00BF4FF0FF30704700BFF1
:101FE0004FF400534B600020704700BF0120704742
:101FF0000020704710B50C4C0C4B0D492268591A43
:102000002AB11044884207D82060104610BD094A02
:10201000226010448842F7D91EF048FE0C234FF08E
:10202000FF320360104610BD501400200000022053
:102030000008000098590120054B186810B100F104
:10204000604070470348186000F16040704700BF6F
:102050005014002098590120034AD2F8883043F4E4
:102060007003C2F88830704700ED00E00000000007
:1020700010B5474C96B00023CDE90433CDE90633C3
:10208000CDE90233CDE90E33CDE91033CDE912337A
:10209000149363602361A3614FF080432360402168
:1020A00041F267032046C4E9021304F08BF80028CC
:1020B0003BD14FF480533648049304A904F05EFBEF
:1020C000002844D1324804F049F900283CD10022CC
:1020D00000232F4802A9CDE9022304F0B1FC80BB04
:1020E00060200021CDE90E0100232948109304222D
:1020F0000EA9129304F032FA00BB254808220EA95B
:1021000004F02CFAB8B922480C220EA904F026FAE1
:1021100070B922680023B2F1804FCDE90833CDE9D0
:102120000A330C9316D016B010BDFFF717FDC0E7A9
:10213000FFF714FDEDE7FFF711FDE4E7FFF70EFDF4
:10214000DBE7FFF70BFDCBE7FFF708FDBFE7FFF786
:1021500005FDB7E702F50E320193136B0D4843F00E
:1021600001031363136B9FED087B03F001030193DD
:1021700008A901238DED087B019A0C9300F0EAFE7B
:1021800016B010BDAFF300800E000000020000008A
:10219000601400200000024000B51D481D4A026086
:1021A000532200234260312287B0C0E902328022EC
:1021B000CDE90233CDE90433CDE900330361826117
:1021C00004F000F8B0B94FF480531148029302A90B
:1021D00004F0D4FAC8B9002200230D486946CDE9BD
:1021E000002304F02DFC40B9094804F079F807B049
:1021F0005DF804FBFFF7B2FCE5E7FFF7AFFC04482E
:1022000004F06EF807B05DF804FBFFF7A7FCE2E707
:10221000A81400200008004000B50368B3F1804F07
:1022200083B005D0154A934212D003B05DF804FB89
:1022300003F50E33002200921A6C42F001021A6478
:102240001B6C03F001030093009B03B05DF804FBDB
:102250000B4B00220192196C41F0040119641B6CB4
:1022600003F0040301931E200321019B00F0D4FB23
:102270001E2003B05DF804EB00F00CBC0008004029
:10228000003802400E4B02689A4200D0704710B4EA
:102290000C4CD4E90023501C0B4A43F10001136895
:1022A0000133132BC4E9000103DC5DF8044B136018
:1022B000704700235DF8044B136000F017B900BFAE
:1022C0000008004058140020F0140020024B0020A9
:1022D0000021C3E9000170475814002000487047EE
:1022E0007C15002010B51048104C00234FF4E1314C
:1022F0000C22C0E90041C0E90233C0E90432C0E960
:10230000063304F0E1FB58B909490A4840221CF0A1
:1023100045FEBDE8104008490348012204F01CBDF9
:10232000FFF71CFCF0E700BFF41400200010014090
:102330003C1500207C1500203815002030B51D4BC1
:10234000026889B000249A42CDE90244CDE90444F0
:10235000069401D009B030BD03F5943300945A6C53
:10236000154842F010025A645A6C02F010020092B2
:10237000009A01941A6B42F001021A631B6B03F07E
:10238000010301934FF4C0620223CDE9022302A9A5
:1023900007230322CDE90523019D00F0DBFD224642
:1023A0000521252000F038FB252000F073FB09B043
:1023B00030BD00BF0010014000000240094B026820
:1023C0009A4200D0704710B5828D074904460748ED
:1023D0001CF0F4FD20460449BDE81040012204F041
:1023E000BBBC00BF00100140381500207C15002048
:1023F00008B502481CF040FE00B208BD7C15002064
:1024000010B505486423144604F0F8FB08B920B25F
:1024100010BD4FF0FF3010BDF4140020DFF834D0B1
:102420000D480E490E4A002302E0D458C45004332C
:10243000C4188C42F9D30B4A0B4C002301E0136003
:102440000432A242FBD3FFF707FE1EF08BFDFFF71D
:1024500033FB7047000002200000002080110020A4
:10246000C0E805088011002094590120FEE7000013
:1024700038B50E4A0E4B12781B6805464FF47A7039
:10248000B0FBF2F0B3FBF0F000F012FB08B90F2D37
:1024900001D9012038BD0446024629464FF0FF30DD
:1024A00000F0BAFA034B20461D6038BD080000203A
:1024B000040000200C00002008B50B4B1A6842F401
:1024C00000721A601A6842F480621A601A6842F454
:1024D00080721A60032000F08DFA0F20FFF7C8FF0A
:1024E000FFF7F6FC002008BD003C0240034A044B05
:1024F00011681B780B441360704700BF90150020D3
:1025000008000020014B1868704700BF901500209C
:1025100038B50446FFF7F6FF631C054602D0044BAE
:102520001B781C44FFF7EEFF431BA342FAD338BDD0
:1025300008000020014BD3F8100A70470070FF1FFD
:10254000014BD3F8140A70470070FF1F014BD3F8FA
:10255000180A70470070FF1F002800F09F8038B5F0
:10256000056C04463DB1236CDB060CD5002384F8D2
:102570003C30012038BDFFF78BF86564236C84F88C
:102580003C50DB06F2D4236C484A23F4885323F0F2
:10259000020343F0020323645168236821F44031AD
:1025A000516051686068014351605A682569A068AC
:1025B00022F480725A60596841EA052159605968CD
:1025C00021F0407159605A6802435A609968E06886
:1025D00021F4006199609A68A16A02439A60344AC2
:1025E000914252D09868E56A20F0706098609A68CD
:1025F00011439960996821F0405199609A682A4383
:102600009A609A6822F002029A609A68217E42EAF1
:1026100041029A6094F82020002A41D05968626AE9
:1026200041F400615960586820F460405860511EC0
:102630005A6842EA41325A60DA6AE169656922F40D
:102640007002DA62DA6A013942EA0152DA629968A2
:1026500021F400719960996894F8302041EA422190
:102660009960996821F4806199609A68002042EA33
:1026700085229A606064236C23F0030343F0010316
:102680002364002384F83C3038BD9A6822F07062DD
:102690009A609A6822F040529A60B2E7012070472F
:1026A0005A6822F400625A60C6E700BF0023014066
:1026B0000100000F10B490F83C3083B00021012BD2
:1026C000019177D00123016880F83C308B68DC07EA
:1026D000024614D43C4B3D4C1B688868A4FB034362
:1026E0009B0C03EB430340F0010088600193019BC6
:1026F0002BB1019B013B0193019B002BF9D1886811
:10270000136C10F0010031D023F4E06323F00103D7
:1027100043F4807313644B68580505D5136C23F498
:10272000405343F480531364136C294C13F48053C7
:102730001CBF536C23F00603536400206FF0220388
:1027400082F83C000B60636813F01F0319D1214A23
:10275000914226D002F5807291421FD01E4A9142CA
:102760002DD0002003B05DF8044B704743F01003F8
:102770001364536C43F00103536403B05DF8044BDE
:102780007047144B9942F8D18B6813F04053F4D141
:102790008A6842F0804218468A60EEE76268D20694
:1027A000DFD1886810F04050DBD18B6843F0804364
:1027B0008B60E2E7022003B05DF8044B704762686B
:1027C000D306CED4EDE700BF0400002083DE1B4318
:1027D00000230140002001400022014003689A6864
:1027E00070B50D465105044602D59B68DA0545D4FF
:1027F000FFF788FE226806466B1C24D113689807F1
:10280000FCD56FF012031360236C43F40073236450
:10281000936813F0405F14D1207E90B9D36A13F40B
:10282000700F02D093685A050BD4236C23F4807385
:102830002364236CDB0404D4236C43F0010323647E
:1028400070BD002070BD13689907DAD45DB91368B4
:1028500013F00203D0D1226C84F83C3042F0040221
:102860002264032070BDFFF74DFE801BA842226842
:10287000C2D9136813F00203BED1ECE7036C002247
:1028800043F0200380F83C200364012070BD00BFAA
:102890000368D86C704700BF30B590F83C3083B007
:1028A0000022012B019200F09C80012380F83C3033
:1028B0000C680368092C2DD81D698A6804EB440E46
:1028C0004FF0070C0CFA0EFC25EA0C051D611D6982
:1028D00002FA0EF22A431A614A68062AA4462FD841
:1028E00002EB8202596B053A4FF01F0E0CFA02FC04
:1028F0000EFA02F221EA02025A635A6B4CEA020211
:102900005A63394A934230D0002380F83C3018464D
:1029100003B030BD1FFA84FC0CEB4C02DD68A2F161
:102920001E0E072202FA0EF225EA0202DA608A6817
:10293000DD6802FA0EF22A43DA604A68062ACFD925
:102940000C2A02EB820236D8196B233A1F250CFAA7
:1029500002FC05FA02F221EA02021A631A6B4CEA3F
:1029600002021A63204A9342CED1122C32D0A4F133
:102970001003012BC8D81D4A5368102C43F40003E0
:102980005360C1D11A4B02F146721B6802F52E3218
:1029900002F28332A2FB03239B0C03EB83035B0055
:1029A0000193019B002BAFD0019B013B0193019B45
:1029B000002BF9D1A8E7D96A413A1F250CFA02FC8D
:1029C00005FA02F221EA0202DA62DA6A4CEA02024B
:1029D000DA6296E7D2F8043343F48003C2F8043392
:1029E00092E7022003B030BD0020014000230140E7
:1029F000040000200749CA6803024FF6FF0003F4F1
:102A0000E0630240134343F0BF6343F40033CB6001
:102A1000704700BF00ED00E01C4BDB68C3F30223EE
:102A200000B5C3F1070EBEF1040F03F1040C28BF7B
:102A30004FF0040EBCF1060F1BD9033B4FF0FF3CD7
:102A40000CFA03FC22EA0C024FF0FF3C0CFA0EFCDD
:102A500021EA0C019940002841EA02010CDB00F157
:102A60006040090100F56140C9B280F800135DF8CB
:102A700004FB00221346E7E7054B00F00F000901B5
:102A80000344C9B219765DF804FB00BF00ED00E015
:102A9000FCEC00E0002808DB4109044A00F01F00BC
:102AA000012303FA00F042F82100704700E100E042
:102AB0000138B0F1807F10D210B44FF0E023084C01
:102AC00058614FF0F00C84F823C000220721104613
:102AD0009A615DF8044B196170470120704700BF8F
:102AE00000ED00E080B110B54379044603F0FF0229
:102AF0001BB101236371002010BD0271FEF72CFE93
:102B000001236371002010BD0120704738B50446D1
:102B1000FFF7F8FC002C52D023680022022184F831
:102B2000351084F834201A6822F0010205461A6034
:102B300005E0FFF7E7FC431B052B39D823681A682B
:102B4000D107F6D4D4E90120E16802430A43D4E96D
:102B50000451A0692A430A43E1691D6802430A43FC
:102B600033492940256A2A430A43616A042928D047
:102B70001A605A6922F007021143D8B22D4A5961EE
:102B80001038A2FB005212092B4923F47F73895C91
:102B9000E16523F003035F2888BF04333F228A40A6
:102BA000A36500209A600123606584F8353038BD44
:102BB00003232022626584F83530184638BD012091
:102BC00038BDD4E90B5129430A431A605969A26AF6
:102BD00021F00701114341F00401002DCDD078B15F
:102BE000B0F5005F16D0022A03D9032AC5D1EA0145
:102BF000C3D501234022626584F83530184638BDBC
:102C0000012A03D032F00202B7D1F0E7B5F1C07F5C
:102C1000B3D1EEE7032AB0D801A050F822F000BFEC
:102C2000F32B0008EF2B0008F32B00080D2C0008F5
:102C30003F8010F0ABAAAAAAF8F2020870B490F88C
:102C40003440856D012C35D090F835404FF0010CA3
:102C5000644580F834C005D0002380F8343070BC5F
:102C600002207047022680F8356004680026466519
:102C7000266826F48026266063608368402B0EBF9A
:102C8000A260A160E260C26D08BFE1603F23934093
:102C9000AB602368026C43F0160323601AB123680B
:102CA00043F008032360236843F0010300202360FE
:102CB00070BC7047022070BC704700BF70B50446FE
:102CC000866DFFF71FFC94F83530022B06D00023E9
:102CD000802284F834306265012070BD23681A6850
:102CE00022F016021A605A6922F080025A61226CA0
:102CF000054632B31A6822F008021A601A6822F0F8
:102D000001021A6005E0FFF7FDFB431B052B0FD8FE
:102D100023681B6813F00103F5D1E16D3F228A405F
:102D20000121B26084F8351084F83430184670BD43
:102D3000032020220023626584F8343084F83500B3
:102D400070BDA26C002AD5D1D8E700BF90F835300D
:102D5000022B03D0802343650120704702680523BE
:102D600080F83530136823F00103002013607047AA
:102D70002DE9F04182B0744A866D156800230193F5
:102D8000C36D346808229A402242804604D001680C
:102D90000F68780700F18A8001229A40224204D00D
:102DA000D8F800104969090678D404229A402242D2
:102DB00004D0D8F8001009688F0767D410229A4011
:102DC000224204D0D8F800100F68380749D42022D6
:102DD0009A40224217D0D8F800100C68E00612D5AD
:102DE000B26098F83520052A73D00B6813F4802F51
:102DF0000B6800F09080190340F19B80D8F83C30BC
:102E00000BB140469847D8F854303BB3D8F854300B
:102E1000DA071BD5D8F800204C49052388F835304F
:102E20001368A1FB051523F00103AD0A136002E04E
:102E30001368DB0704D5019B0133AB420193F7D93B
:102E40000122002388F8352088F83430D8F84C3037
:102E500023B1404602B0BDE8F041184702B0BDE8DA
:102E6000F081B2600A6812F4802F0A682AD1D7056F
:102E700003D40A6822F008020A60D8F84020002A29
:102E8000A5D040469047D8F85C30A0E7B260D8F8AB
:102E9000542042F00402C8F854208FE7B260D8F8FA
:102EA000542042F00202C8F854207EE70F6827F051
:102EB00004070F60B260D8F8542042F00102C8F84D
:102EC000542069E71203D8D5D8F84820002AD8D171
:102ED0007DE70A6822F016020A604A6922F0800241
:102EE0004A61D8F8402052B30A6822F008020A600A
:102EF0003F2202FA03F3D8F85010B36001220023F6
:102F000088F8352088F834300029A7D0404602B030
:102F1000BDE8F041084713F480737FF46FAF0A688F
:102F200022F010020A60012288F8352088F8343037
:102F300064E7D8F84430002B7FF463AF63E7D8F838
:102F40004820002AD0D1D3E704000020B5814E1BD1
:102F5000406D70472DE9F04F00220C68DFF82CA27D
:102F6000834E85B01346894605E00133102B02F1EC
:102F7000020200F089800121994001EA040BA1437B
:102F8000F3D1D9F804C00CF003014D1E012D7ED9F8
:102F9000032940F0BE809140CD4307683D4029435E
:102FA0001CF4403F0160E0D000210391DAF84410A6
:102FB00041F48041CAF84410DAF8441001F4804129
:102FC0000391039923F0030101F1804101F59C3144
:102FD00003F00307D1F808E0BF000F25BD402EEA3B
:102FE0000508644DA84224D005F58065A84200F08C
:102FF0009480614DA84200F09780604DA84200F097
:103000009A805F4DA84200F09D805E4DA84200F07E
:10301000A0805D4DA84200F0A380DFF874E1704508
:103020000CBF4FF0070E4FF0080E0EFA07F748EAF4
:103030000708C1F80880B1686FEA0B071CF4801F0D
:103040000CBF39404BEA0101B160F5681CF4001F68
:103050000CBF3D404BEA0505F56075681CF4003F68
:103060000CBF3D404BEA0505756031681CF4803F9C
:1030700003F101030CBF39404BEA0101102B316011
:1030800002F102027FF477AF05B0BDE8F08FD9F806
:103090000C50876805FA02F8032505FA02FE27EAB4
:1030A0000E0748EA0707876047686FEA0E0527EAB8
:1030B0000B0ECCF300179F4047EA0E074760C76826
:1030C00007EA050ED9F80870974047EA0E0702296B
:1030D000C76001FA02F17FF460AF4FEAD30E00EB54
:1030E0008E0E03F00708DEF820700097D9F81070F4
:1030F0004FEA880807FA08F701970F2707FA08F838
:10310000009F27EA0808019F47EA0807CEF82070C9
:1031100043E703259540ED43D1E74FF0010E0EFA4A
:1031200007F748EA070884E74FF0020E0EFA07F7A0
:1031300048EA07087DE74FF0030E0EFA07F748EA62
:10314000070876E74FF0040E0EFA07F748EA07087B
:103150006FE74FF0050E0EFA07F748EA070868E731
:103160004FF0060E0EFA07F748EA070861E700BFBE
:10317000003C01400000024000080240000C0240F8
:1031800000100240001402400018024000380240C3
:10319000001C02400369194214BF0120002070473F
:1031A00002B9090481617047436901EA030221EA17
:1031B000030141EA02418161704700BF002800F02D
:1031C000B98070B590F83D30044603F0FF02002B43
:1031D00000F098802368242284F83D201A6822F0A9
:1031E00001021A601A6842F400421A601A6822F456
:1031F00000421A6001F028FF63684F498B424FD8A4
:103200004E4A90427CD94E4D5A00A5FB0035431ED4
:10321000B3FBF2F32268506820F03F0040EA95408B
:103220005060A90C01F1010C116A21F03F0141EA43
:103230000C011162D16940F6FC7E013321F44F414B
:1032400013EA0E0F21F0FF0161D104230B43D36178
:10325000D4E907301168034321F0C0010B43136028
:103260009168D4E9030321F40341034321F0FF01F2
:103270000B439360D4E90530D168034321F0FF018B
:103280000B43D3601168002341F00101202011603D
:10329000236484F83D00236384F83E30184670BDF3
:1032A000284A90422CD9264D274EA5FB002C226897
:1032B000556825F03F0545EA9C4555604FEA9C411D
:1032C0004FF4967505FB01F1A6FB0151156A8909BA
:1032D00025F03F05013129431162D169A56821F428
:1032E0004F4121F0FF01ADB9013803EB4303B0FBBF
:1032F000F3F30133C3F30B03D3B143F40043A5E766
:10330000012070BD80F83C20FEF732FB62E7C3F37A
:103310000B039BE703EB8303013803EB8303B0FB51
:10332000F3F30133C3F30B0313B143F440438DE7CD
:1033300001238BE701207047A08601007F841E00D7
:1033400083DE1B43FF083D00D34D62102DE9F04F93
:10335000054683B099460C9F88469246FFF7D2F8FF
:1033600095F83D30202B03D0022003B0BDE8F08F4C
:10337000064605E0FFF7C6F8801B192800F2F58025
:103380002C68A3696FEA030C1CF0020BF2D095F8CD
:103390003C30012BE8D0012385F83C302368D90765
:1033A0006FD52368974A23F400632360212385F8AF
:1033B0003D30102385F83E3000232B64A5F82A9079
:1033C0006B8DEA622B85EB6AC5F824A0082B06D02A
:1033D000012B04D0934202D02B6B122B03D1236814
:1033E00043F4807323607B1C3DD16369D807FCD50F
:1033F0002B69B3F5804F49D108F0FE012161781C9B
:1034000004D0D8E063695A0500F1BD80636999076B
:10341000F8D50023019363690193A36901932B8D70
:10342000019A002B74D0791C7FD163691A0641D4AC
:1034300063695B05F9D5002220236FF48061616127
:103440002A6385F83D3085F83E202B6C85F83C20BA
:1034500043F004032B642B6C042B00F0E480012068
:1034600003B0BDE8F08F6369D907C1D4FFF74AF80C
:10347000801B8742C0F0AF80002F00F0AC802C682A
:10348000B1E7236843F0010323608AE74FEAE813BA
:1034900003F0060343F0F00323617B1C03D0B3E089
:1034A000636959056FD463691807F9D55FFA88F322
:1034B0002361A4E7686AB5F828C001460CF1FF3221
:1034C00011F8013B23616B8D6962013B9BB26B85F7
:1034D000636992B259072A850CD55AB143782361A2
:1034E0006B8D013BACF1020C02309BB2A5F828C0F9
:1034F00068626B85781C28D16369590705D46369B4
:103500005A0598D463695907F9D52B8D002B8AD1B8
:103510002368002043F400732022236085F83D20B7
:1035200085F83C0085F83E001FE763691806C1D4A2
:10353000636958053FF57FAFFEF7E4FF801B8742C4
:1035400078D3002F76D02C686DE763695B07DCD4F5
:1035500063695B053FF56FAFFEF7D4FF801B8742C1
:1035600068D3002F66D02C68C4E72023C5F830B09C
:1035700085F83D3085F83EB02B6C85F83CB043F0C3
:1035800020032B64F0E6236843F4007323600022D9
:103590006FF48061202361612A6385F83D3085F8EE
:1035A0003E202B6C85F83C2043F0040301202B6463
:1035B00003B0BDE8F08F63699B073FF52AAF6369ED
:1035C0005B05E0D4FEF79EFF801B874240D3002FAF
:1035D0003ED02C6813E7002320222B6385F83D2082
:1035E00085F83E302A6C296885F83C3042F020028C
:1035F0002A640B68DA057FF532AF4FF400732B6451
:103600002DE700BF0000FFFF63691A073FF54EAFCB
:1036100063695A05B7D4FEF775FF801B874217D33D
:10362000B7B12C6839E72A68136843F400730120A6
:1036300013609AE6002220232A6385F83D3085F83E
:103640003E202B6C85F83C2043F020032B6402E7DE
:10365000002220232A6385F83D3085F83E202B6C1C
:1036600085F83C2043F020032B6401207DE600BF59
:103670002DE9F04F054687B09946109E8846924640
:10368000FEF740FF95F83D30202B03D0022007B015
:10369000BDE8F08F074605E0FEF734FFC01B192890
:1036A00000F2A7802C68A069C04310F0020BF3D091
:1036B00095F83C30012BE9D0012385F83C30236894
:1036C000DB0760D523688D4A23F40063236022233F
:1036D00085F83D30102385F83E3000232B64A5F893
:1036E0002A906B8DEA62EA6A2B852368C5F824A0CC
:1036F00043F48063082A236007D0012A05D012F51D
:10370000803F02D02B6B112B03D1236843F48073CD
:103710002360701C29D16369D907FCD52B69B3F5E7
:10372000804F35D148F00103DBB22361721C03D016
:1037300007E1636958056AD463699B07F9D52B8D46
:10374000002B7CD1019363690193A3690193019BD1
:10375000236843F4007323600020202385F83D3064
:1037600085F83C0085F83E0091E76369DA07D5D417
:10377000FEF7C8FEC01B8642C0F00C81002E00F090
:1037800009812C68C5E7236843F00103236099E7AA
:103790004FEAE81909F0060949F0F0032361701CAB
:1037A00003D01DE163695A0531D463691907F9D55E
:1037B0005FFA88F32361711C03D0A6E163695B059E
:1037C00025D463699A07F9D50023059363690593A6
:1037D000A3690593059B236843F480732360721CDF
:1037E00040F0A6816369DB07FCD549F0F103236152
:1037F0009CE72023C5F830B085F83D3085F83EB011
:103800002B6C85F83CB043F020032B643EE7236823
:1038100043F40073236000226FF480612023616110
:103820002A6385F83D3085F83E202B6C85F83C20D6
:1038300043F0040301202B6407B0BDE8F08F012B97
:10384000226800F05381022B00F00B8142F4806269
:1038500022600022049262690492A2690492049A8E
:10386000032B48D8012B00F02881022B00F0D480D4
:10387000721C40F0058163695B07FCD523686A6AA6
:1038800023F480632360236913706B8D696A2A8D2A
:10389000013B0131013A9BB269622A856B85711C3B
:1038A0002A6840F0FC8053695B07FCD51368696A9D
:1038B00043F40073136013690B706B8D696A2A8D72
:1038C0002868013B9BB26B850069531E4C1C6C62DF
:1038D0002B8548702B8D6A8D696A013B013A013155
:1038E0009BB292B269622B856A85002B3FF434AF9C
:1038F000032B2C68B6D966B933E000BF0000FFFF88
:103900006369DB065CD4FEF7FDFDC01B864230D345
:103910002C6863695A06F3D56B6A22691A706A8D3E
:1039200028682B8D696A013A92B26A854269013B27
:103930004C1C9BB252076C622B85D6D503694B7029
:1039400083E0636999073FF5FAAE636959053FF56E
:103950005EAFFEF7D7FDC01B86420AD34EB12C687E
:10396000E4E663695906D7D46369D80628D4FEF71C
:10397000C9FD002220232A6385F83D3085F83E20CA
:103980002B6C85F83C2043F0200301202B6407B00A
:10399000BDE8F08F002320222B6385F83D2085F8B9
:1039A0003E302A6C296885F83C3042F020022A64B7
:1039B0000B68D90512D54FF400732B64012066E61D
:1039C000002320226FF0100161612B6385F83D20F8
:1039D00085F83E302A6C2A6485F83C30012056E692
:1039E00063691B073FF5E4AE63695B053FF50FAF05
:1039F000FEF788FDC01B8642BBD3002EB9D02C68D1
:103A0000CDE6636959070CD4FEF77CFDC01B8642E6
:103A1000AFD3002EADD02C68731CF2D16369580768
:103A2000FCD5236843F4007323606B6A22691A7023
:103A30006A6A531C6B622B8D013B2B856B8D013B9E
:103A40009BB26B852B681B6953702B8D6A8D696ADD
:103A5000013B013A01319BB292B269626A852B85C2
:103A600043E722F480622260226842F4006222600E
:103A70000022039262690392A2690392039AEFE61D
:103A8000636958073FF5FAAEFEF73CFDC01B86425E
:103A9000FFF46FAF002E3FF46CAF2C68E8E653697B
:103AA0005C073FF503AFFEF72DFDC01B8642FFF418
:103AB00060AF002E7FF4F3AE5BE75EB911E063699F
:103AC000D9063FF57DAFFEF71DFDC01B8642FFF412
:103AD00050AF2C6863695806F1D56B6A22691A7079
:103AE000B3E763695A067FF53FAFF6E722F48062D9
:103AF00022600022029262690292A2690292029AF4
:103B0000226842F400722260AAE6636998073FF5D2
:103B10005BAE636958053FF57AAEFEF7F3FCC01B58
:103B20008642FFF426AF002E3FF423AF2C6842E616
:103B30006369D8073FF559AEFEF7E4FCC01B864227
:103B4000FFF428AF002E3FF425AF2C6847E600BFF6
:103B5000F0B58BB0002800F0858090F8BD34046883
:103B6000054603F0FF02002B76D02046032385F89C
:103B7000BD34E36B2E4613F4807308BF2B6104F051
:103B8000A9FC56F810EBB446BCE80F006C460FC415
:103B9000BCE80F000FC49CE8030084E803002F1D5D
:103BA00097E80E00704604F091FB044630B1012402
:103BB0000223204685F8BD340BB0F0BD01462868CD
:103BC00004F090FC686858B322464FF0010E21467D
:103BD00002EBC20305EB830302F1010C83F83C20E6
:103BE000A3F844205FFA8CF28242C3E9121183F8F1
:103BF0003DE083F840105965EAD3002204EBC4038A
:103C000005EB8303611C83F87C42CCB28442C3E998
:103C1000A22283F87D2283F88022C3F89422EDD378
:103C20000FCE6C460FC40FCE0FC496E8030084E895
:103C3000030097E80E00286804F08CFC0446002876
:103C4000B5D1012385F83800286885F8BD3405F022
:103C500033F920460BB0F0BD80F8BC240FF06CFEA9
:103C6000286883E7012420460BB0F0BD10B590F81A
:103C7000BC34012B0446006816D0A36A012293428B
:103C800084F8BC2408D004F01DFC206805F004F979
:103C9000002084F8BC0410BDA3699342F3D0836B69
:103CA00043F480338363EEE7022010BD2DE9F04F2B
:103CB000056889B00446284605F03CF910B109B002
:103CC000BDE8F08F8346206805F006F90028F6D09D
:103CD000D5F808382068C3F30D23C4F8FC3405F088
:103CE000FBF810F0020F206805F5006303931EBF78
:103CF000436903F00203436105F0EEF810F0100F82
:103D0000206812D0836923F0100383612E6AC6F302
:103D10004343022B06F00F0700F0CB83062B00F085
:103D20000783836943F01003836105F0D5F8070327
:103D300000F16982206805F0CFF8460300F1118296
:103D4000206805F0C9F80028C0F28281206805F0DB
:103D5000C3F8070500F13D81206805F0BDF8C004F7
:103D600000F1A081206805F0B7F810F4005F20682A
:103D700040F0818105F0B0F8010700F1E981206889
:103D800005F0AAF8020671D5AA69636822F08002DC
:103D9000012BAA616AD994F8A322012A00F0EA83D0
:103DA000022B63D994F8C722012A00F0FE83032B6B
:103DB0005CD994F8EB22012A00F0B382042B55D988
:103DC00094F80F23012A00F0C682052B4ED994F8EF
:103DD0003323012A00F02684062B47D994F8572371
:103DE000012A00F03384072B40D994F87B23012A61
:103DF00000F04A84082B39D994F89F23012A00F057
:103E00005784092B32D994F8C323012A00F0648423
:103E10000A2B2BD994F8E723012A00F071840B2B8D
:103E200024D994F80B24012A00F07E840C2B1DD990
:103E300094F82F24012A00F07F840D2B16D994F8D2
:103E40005324012A00F09F840E2B0FD994F8772475
:103E5000012A00F0A6840F2B08D994F89B34012B7B
:103E600004D1206804F5936104F02AFF206805F06E
:103E700033F8C30240F1AB806368012B40F28980C4
:103E800094F86420D5F82019012A00F01382022B3F
:103E90007FD994F88820D5F84019012A00F01D82B6
:103EA000032B76D994F8AC20D5F86019012A00F0DC
:103EB0002082042B6DD994F8D020D5F88019012ADE
:103EC00000F02382052B64D994F8F420D5F8A019CA
:103ED000012A00F04383062B5BD994F81821D5F80A
:103EE000C019012A00F05583072B52D994F83C21C0
:103EF000D5F8E019012A00F06083082B49D994F81D
:103F00006021D5F8001A012A00F06383092B40D9FB
:103F100094F88421D5F8201A012A00F06E830A2B28
:103F200037D994F8A821D5F8401A012A00F08283E5
:103F30000B2B2ED994F8CC21D5F8601A012A00F069
:103F400097830C2B25D994F8F021D5F8801A012AF3
:103F500000F0A2830D2B1CD994F81422D5F8A01AD6
:103F6000012A00F0AD830E2B13D994F83822D5F82E
:103F7000C01A012A00F0B8830F2B0AD994F85C22EA
:103F8000D5F8E01A012A00F0C383102B01D9D5F827
:103F9000003B2068436903F48013436104F09CFFF5
:103FA000870221D4206804F097FF400000F1C78009
:103FB000206804F091FF41077FF581AE23685D68BA
:103FC0006A0700F197825A682A435A6077E62068A8
:103FD000E4E7039B9B68DE0700F188822068436961
:103FE00003F400634361B8E6D4F804C0BCF1010FE8
:103FF00028D905F532622346012106E001316145E9
:1040000002F1200203F124031CD093F8A4021668E5
:104010000128F3D1002EF1DAD4F8FC7406F48036CE
:1040200007F00107BE42E9D183F8A302A86940F076
:104030008000A86168690606E0D4039A536843F4D7
:10404000007353602068436903F400134361AAE7D7
:10405000039A536823F00103536094F8F434012B5E
:1040600000F0348120460FF0F5FC2068436903F02E
:10407000004343616BE604F061FF206804F0AEFB8F
:10408000E060266800F0DAFF227B0146304604F04B
:104090009FF920460FF0B0FC2068436903F40053F9
:1040A000436167E6039A2068536823F00103536075
:1040B000102104F069FB6068E0B105F510634FF66C
:1040C0007F3199601A6822F400121A60C3F808124E
:1040D000D3F8002222F40012C3F80022D3F8002201
:1040E0000BF1010B42F000628345C3F8002203F19B
:1040F0002003E6D10399226BCB6943F00113CB6116
:10410000002A40F0CC804B6943F4005343F02B036A
:104110004B610B6943F00B030B61D5F80038217C30
:10412000206823F4FE63C5F8003804F2C44204F0AA
:1041300017FF2068436903F48053436113E6204668
:104140000FF094FC2068436903F08043436130E73B
:1041500020460FF04DFC2068436903F008034361DB
:104160000EE6206804F0C4FE804600283FF4E8AD67
:104170004FF0000A20680495274605F51069564659
:10418000CDF814B009E05FEA580806F1010607F11E
:10419000240709F1200900F0E58018F0010FF2D0A2
:1041A0005FFA86FA514604F0B5FEC207054613D5FC
:1041B000039901204B6B06F00F0200FA02F223EA8A
:1041C00002034B632169C9F80800814200F097811E
:1041D000514620460FF002FC2B0744BF0823C9F8C4
:1041E0000830E80644BF1023C9F80830690644BF08
:1041F0004023C9F80830AA0700F14E812B0600F1D0
:10420000F5802068BFE7206804F06AFE06460028B3
:104210003FF490AD05F53067A2464FF00009CDF8A8
:1042200010B008E0760809F1010907F120070AF14A
:10423000240A00F09A80F007F4D55FFA89FB206821
:10424000594604F05DFE10F0010F804640F0AF804B
:1042500018F0080F40F08C8018F0100F1CBF1022CF
:10426000BA6018F0020F0ED06A69110604D5039BDC
:104270005A6842F480625A609AF87F22012A00F05C
:1042800080810223BB6018F0200F1CBF2023BB607D
:1042900018F4005F1CBF4FF40053BB60C2E7D1F8B5
:1042A000843043F00B03C1F884304B6C43F00B03B4
:1042B0004B6432E70029BFF6EAAD214684F863205B
:1042C00051F8600B04F0FCFC6368E0E5002184F821
:1042D000F414204600F0FAFBC7E60029BFF6E0AD73
:1042E000214684F8872051F8840B04F0E9FC6368C8
:1042F000D6E50029BFF6DDAD214684F8AB2051F8A4
:10430000A80B04F0DDFC6368D3E50029BFF6DAAD45
:10431000214684F8CF2051F8CC0B04F0D1FC63681F
:10432000D0E5206804F53A7104F0CAFC636845E5FD
:10433000082204F2C441284607EBC70704F01AFD1F
:1043400004EB8702C6F30A13D2F89C1220680B44D0
:10435000C2F89C32E5E4206804F5437104F0B0FC37
:10436000636832E5DDE9045BEBE4DDF810B0E1E41D
:104370002168BD4B0822BA6001F53062096C02EB7E
:1043800049129942906840F2CB80000402D54FF464
:104390000041916020460FF011FB216901297FF453
:1043A0005BAF206804F2C44204F0DAFD54E72068F1
:1043B00021690122BA6000F5306202EB491201293D
:1043C000D0F840C0936800F0AF80A8498C4500F059
:1043D0000C81B9F1000F04D1D4F89422002A00F026
:1043E000DA81594620460FF0EFFA31E7FB6D7D6D1B
:1043F000D4F800B0AB4258463FF6C5AE0BF510629C
:1044000002EB461211469646BA6C8969CDF81CB08B
:10441000A5EB030C624528BF624689B20332B1EBBB
:10442000920FC0F0978052460696CA462646C1466D
:104430007446904619E0ED1ABB6CF96C9D4228BF9A
:104440001D46337C00934246ABB2584604F07CFCD8
:10445000FB6CA1692B44FB64FB6D89B22B440335D3
:10446000B1EB950FFB656DD37D6D9D42E3D834466E
:10447000069ED4F800B0C846D146079B06F00F024E
:1044800003F500610125D3F8343805FA02F223EA76
:10449000020358464B6376E60498314604F074F9FB
:1044A00097F83F30012B00F0B4800223C9F80830A0
:1044B000A4E647F6F0731E423FF433AC07EBC707A0
:1044C00004EB8707C6F30A12D7F88C122846164663
:1044D00004F050FCD7F88C3220683344C7F88C3293
:1044E000D7F89C323344C7F89C321AE420460FF0C8
:1044F00099FA73E520460FF0BDFA236863E5D7E922
:1045000012231344FB64002E7FF462AE636D002B14
:104510007FF45EAE206804F2C44204F021FD57E649
:1045200020460FF04BFA97E6190740F197804E4965
:104530008C457FF68DAE18047FF58AAE4FF40041AE
:10454000916085E634467D6DD4F800B0069EC8467D
:104550005846D146AB42FFF416AE8EE70029BFF6AF
:10456000BAAC214684F8F32051F8F00B04F0A8FB14
:104570006368B0E4206804F5287104F0A1FB636867
:104580000EE4002359468AF87F3220460FF066FA7F
:1045900077E60029BFF6A8AC206884F8172104F557
:1045A0008A7104F08DFB63689EE4206804F5317124
:1045B00004F086FB6368FFF7FABB0029BFF69DACE9
:1045C000206884F83B2104F59C7104F079FB636852
:1045D00093E40029BFF69AAC206884F85F2104F5C3
:1045E000AE7104F06DFB636890E41904A6D49B06D9
:1045F0007FF5F7AE20219160F3E60029BFF68FAC7E
:10460000206884F8832104F5C07104F059FB6368C5
:1046100085E44FF0000387F83F30514620460FF005
:1046200021FA42E7206804F54C7104F049FB636805
:10463000FFF7D2BB0029BFF67BAC206884F8A72126
:1046400004F5D27104F03CFB636871E4206804F562
:10465000557104F035FB6368FFF7C5BB990673D548
:1046600020219160F4E500BF0A30544F0A31544FC5
:104670000029BFF666AC206884F8CB2104F5E4710C
:1046800004F01EFB63685CE4206804F55E7104F0CE
:1046900017FB6368FFF7AEBB0029BFF65BAC206871
:1046A00084F8EF2104F5F67104F00AFB636851E425
:1046B000206804F5677104F003FB6368FFF7A1BB92
:1046C0000029BFF650AC206884F8132204F5047169
:1046D00004F0F6FA636846E4206804F5707104F0AB
:1046E000EFFA6368FFF794BB0029BFF645AC20687A
:1046F00084F8372204F50D7104F0E2FA63683BE4B4
:10470000206804F5797104F0DBFA6368FFF787BB72
:104710000029BFF63AAC206884F85B2204F51671D4
:1047200004F0CEFA636830E4206804F5816104F097
:10473000C7FA6368FFF77ABB206804F22C4104F0E3
:10474000BFFA6368FFF779BB13F0280F7FF480ADE1
:104750001B498C4502D91B043FF5F0AE1169DAF80C
:104760009822C1F31201521ACAF89C22B9F1000F23
:104770007FF437AED4F89412D9B1D4F88C120A442D
:10478000C4F88C222DE6206804F58A6104F098FABA
:104790006368FFF759BB04F2C442494604F0E0FBEA
:1047A0001FE6206804F2744104F08AFA6368FFF798
:1047B00052BB04F2C442012104F0D2FB11E600BF57
:1047C0000A30544F90F8BC24012A0DD010B504468D
:1047D0000122006884F8BC2484F8381004F04CFBF3
:1047E000002084F8BC0410BD0220704710B501F011
:1047F0000F0E0906044627D44FF0240C0CFB0E0CB8
:104800000CF51F710EEBCE0C00EB8C0C00208CF81D
:104810007D02CA604A7881F800E00B710AB1A1F804
:1048200008E0022B04BF00234B7194F8BC34012B29
:1048300018D0012384F8BC34206803F0DBFF002388
:1048400084F8BC34184610BD242000FB0E4000F153
:104850003C010EEBCE0004EB80004FF0010C80F821
:104860003DC0D6E7022010BD01F00F0303EBC302E9
:1048700011F0800F4FF0240110B500EB82020446C6
:1048800001FB030113D101F51F71002082F87D02A5
:104890000B7094F8BC34012B12D00123206884F8EB
:1048A000BC3403F0F3FF002084F8BC0410BD3C319D
:1048B000012082F83D000B7094F8BC34012BECD140
:1048C000022010BD10B501F00F0404EBC40C00EB86
:1048D0008C0C2421CCF894320023CCF88C228CF858
:1048E0007C42CCF89C328CF87D32036901FB0401D8
:1048F000012B08BFCCF89022006801F51F71DAB2D5
:104900001CB904F031F9002010BD04F021F800209A
:1049100010BD00BF01F00F0101EBC10100EB8101EF
:10492000D1F89C02704700BF10B501F00F0404EBF2
:10493000C40C00EB8C0C2421CCF854300023CCF8B0
:104940005C300123CCF84C208CF83C408CF83D3096
:10495000036901FB0401012B08BFCCF8502000685B
:104960003C31DAB21CB904F0FFF8002010BD03F0AE
:10497000EFFF002010BD00BF38B5436801F00F0500
:104980009D4233D80B0604461CD401EBC1032422FC
:1049900002FB010100EB830301F51F71002283F884
:1049A0007D2201238B700D7094F8BC249A421BD099
:1049B000206884F8BC3404F005FACDB1002084F8F6
:1049C000BC0438BD05EBC503242101FB050100EB48
:1049D000830301223C3183F83D2001238B700D704D
:1049E00094F8BC249A42E3D1022038BD012038BD9E
:1049F000217C206804F2C44204F0B2FADEE700BF72
:104A0000426838B501F00F0393422ED803EBC3027E
:104A100011F0800F4FF02401044600EB820201FBED
:104A2000030115D101F51F710020002582F87D02D8
:104A30008D700B7094F8BC34012B14D001232068C6
:104A400084F8BC3404F0ECF984F8BC54284638BD32
:104A50003C310120002582F83D008D700B7094F8E8
:104A6000BC34012BEAD1022038BD012038BD00BF83
:104A700010B40468606A31B940EA0240A0620020C4
:104A80005DF8044B7047A36AB1F1010C00EB1340D1
:104A90000BD0002303F1400104EB8101013349688D
:104AA000DBB2634500EB1140F4D30CF1400C04EB96
:104AB0008C0C40EA0240CCF804005DF8044B002066
:104AC000704700BF0368002059627047704700BFFD
:104AD000002800F0A2812DE9F0410368DD0782B0D3
:104AE00004462FD59E498A6802F00C02042A00F081
:104AF000ED808A6802F00C02082A00F0E380636807
:104B0000B3F5803F00F0EC80B3F5A02F00F0758185
:104B1000934D2A6822F480322A602A6822F4802287
:104B20002A60002B40F0E180FDF7ECFC064605E032
:104B3000FDF7E8FC801B642800F201812B689B03D1
:104B4000F6D423689F0728D5854A916811F00C0F89
:104B500000F09080916801F00C01082900F0868037
:104B6000E368002B00F00E817E4B7D4E01221A601F
:104B7000FDF7C8FC054605E0FDF7C4FC401B022814
:104B800000F2DD8033689807F6D53368226923F098
:104B9000F80343EAC203336023681A0751D4580765
:104BA0002FD56F4A136C13F080537FD000256E4EC3
:104BB0003368D90540F1B380A368012B00F0C380AE
:104BC000052B00F02C81664E326F22F00102326715
:104BD000326F22F004023267002B40F0B980FDF7FB
:104BE00091FC41F28838074605E0FDF78BFCC01BBD
:104BF000404500F2A480336F9807F6D4002D40F0B2
:104C00000681A069C8B1564DAB6803F00C03082BB0
:104C100000F0C980534B002202281A6600F0098177
:104C2000FDF770FC044605E0FDF76CFC001B022854
:104C300000F285802B689B01F6D4002002B0BDE80D
:104C4000F08163690BB3474B454E0122C3F8802EB8
:104C5000FDF758FC054604E0FDF754FC401B022814
:104C60006DD8736F9B07F7D5236898E75268560293
:104C70003FF576AF3A4A1268950744D5E268012AB3
:104C800041D0012002B0BDE8F081364A344EC2F86E
:104C9000803EFDF737FC054604E0FDF733FC401B82
:104CA00002284CD8736F9F07F7D4DDE70193136C8C
:104CB00043F080531364136C03F080530193019B02
:104CC000012574E74A6850027FF519AF244A12683B
:104CD00091037FF537AF6268002A7FF433AFD0E7E6
:104CE0001F4A136843F480331360FDF70BFC1C4E1E
:104CF000054604E0FDF706FC401B64281FD8336816
:104D00009A03F7D51DE7164920690A6822F0F802D0
:104D100042EAC0020A601A077FF541AF91E73368A3
:104D200043F480733360FDF7EDFB07463368DA0523
:104D30003FF542AFFDF7E6FBC01B0228F6D9032082
:104D400002B0BDE8F081064A136F43F00103136718
:104D5000FDF7D8FB024F064641F288380BE000BF52
:104D6000003802400000474200700040FDF7CAFBD7
:104D7000801B4045E3D83B6F9B07F7D5002D3FF4E0
:104D800040AF44E0424A434E1360FDF7BBFB05468B
:104D900004E0FDF7B7FB401B0228D0D83368990721
:104DA000F7D42368F9E601283FF448AF6B68E2695D
:104DB00003F4800191427FF464AF226A03F03F0163
:104DC00091427FF45EAF616A47F6C0721A40B2EB5F
:104DD000811F7FF456AFA26A520803F44031013AB2
:104DE000B1EB024F7FF44DAFE26A03F07063B3EBB7
:104DF000026F14BF0120002020E7264B1A6842F4FE
:104E000080221A601A6842F480321A606DE7214AE3
:104E1000136C23F080531364F3E6012070471D4B9D
:104E20001A6F42F004021A671A6F42F001021A6701
:104E30008EE7FDF767FB064605E0FDF763FB801B89
:104E400002283FF67CAF2B689901F6D4D4E90731EC
:104E5000626A0B4343EA8213D4E90A21520843EA07
:104E60000163013A0A4943EA024301226B600A6680
:104E7000FDF748FB074D044605E0FDF743FB001B2B
:104E800002283FF65CAF2B689A01F6D5D5E600BF45
:104E90000000474200380240164908B58B6803F00D
:104EA0000C03042B1BD0082B17D14A684B684968A8
:104EB00013F4800302F03F0213D10F48C1F38811AD
:104EC000A1FB0001FBF7F6FE0A4B5B68C3F301434D
:104ED00001335B00B0FBF3F008BD074808BD07488D
:104EE00008BD0648C1F388110023A1FB0001FBF7B0
:104EF000E1FEE9E7003802400024F40000127A00E5
:104F0000002800F08780484A136803F007038B42AB
:104F10002DE9F0410D46044609D2CBB21370136857
:104F200003F007038B4202D00120BDE8F081236823
:104F3000980714D5590704D53C498A6842F4E052D1
:104F40008A601A0704D539498A6842F460428A6047
:104F50003649A0688A6822F0F00202438A60DF07BF
:104F600021D56268012A57D0931E012B2F4B1B6855
:104F70004DD99907D8D52D4EB36823F003031343B9
:104F8000B360FDF7BFFA41F28838074604E0FDF749
:104F9000B9FAC01B404544D8B368626803F00C03FB
:104FA000B3EB820FF3D1204A136803F00703AB423F
:104FB00006D9EBB21370136803F00703AB42B3D109
:104FC00023685A0706D51949E0688A6822F4E05236
:104FD00002438A601B0707D5144A2169936823F4AA
:104FE000604343EAC1039360FFF756FF0F4A104C3A
:104FF00092681049C2F303120346A25C0E48D340E4
:1050000000680B60FDF734FA0020BDE8F0819801DC
:10501000B1D489E701207047044B1B689E03AAD4D2
:1050200082E7032081E700BF003C024000380240D5
:10503000E0F20208040000200C000020014B186878
:10504000704700BF04000020044B05499B68054AD7
:105050000868C3F38223D35CD8407047003802400D
:1050600004000020F0F20208044B05499B68054A41
:105070000868C3F34233D35CD8407047003802401D
:1050800004000020F0F20208B0B110B543790446E4
:1050900003F0FF0263B12168022363710B680120F2
:1050A00043F0040300220B6060711046A26010BD43
:1050B0000271FCF765FDEEE701207047836B1A680B
:1050C000D36B43F48073D363704700BFF0B589B0EE
:1050D00005460F46FDF716FA002200230646082172
:1050E0002868CDE9002302F0A9F8044610B1204653
:1050F00009B0F0BD296D2868090402F063FD04467B
:105100000028F4D14FF0FF320823CDE902233022EA
:105110000223CDE9042302A9002201232868CDE956
:10512000062302F075F8286802F0C4FE044640B178
:10513000DDE7426B910415D5FDF7E4F9831B0133DC
:1051400024D02868426B12F02A0F0BD1426B9302D5
:10515000EFD502F047F808AB03EB8403013443F8C2
:10516000200CE9E7426B120716D4426B930716D462
:10517000446B14F020040CD1DDE9002140F23A53D5
:1051800009BA12BA8363C7E90012B0E74FF00044CE
:10519000ADE720248463AAE708248463A7E70224F8
:1051A0008463A4E72DE9F041044686B000297ED04F
:1051B00090F834000128C5B266D117461E46E26D4C
:1051C000B81900239042A36307D9A36B43F000737F
:1051D000A363284606B0BDE8F0810A462168DFF8DF
:1051E00000E1032084F83400CB62C86B40F44A70BD
:1051F00040F00200C863206CD0F800C003658360F3
:10520000344BC363DCF80030C0F84CE023F0C0033B
:105210004FEA4628CCF8003080314FEA9803FDF77A
:105220000DFD002835D12C4B2068C3F88C55636CDC
:10523000CDF80480012B4FF090024FF00203CDE92E
:1052400002234FF000014FF00103CDE904134FF0AA
:10525000FF33694618BF7F02009301F0D9FF012E8A
:1052600030D9822320682363394602F025F938B308
:1052700023681A4A9A63A36B012218430023A06390
:1052800084F834202363A4E70225284606B0BDE84D
:10529000F08123681149DA6B22F49572DA6399631D
:1052A000A36B43F08043A36384F8345091E7836B8E
:1052B000012543F000638363284606B0BDE8F08112
:1052C000054686E7812320682363394602F054F8B7
:1052D000CDE700BF4554000800802542FF0540008F
:1052E0008D5400082DE9F041044686B000297DD098
:1052F0001D4690F83430012BDFB23AD1C36D0E4613
:10530000002181635019984238D82068DFF828C1FD
:10531000032384F83430C162C36B43F4067343F053
:105320000203C363E36B1965616CC3F83CC00129D8
:1053300018BF5202DFF804C1C3F84CC0012D11465A
:105340005DD9A023236302F0F5F98046B8F1000F80
:105350001CD02368364A9A63A06B40EA0800A06319
:1053600001220023384684F83420236306B0BDE8C8
:10537000F0810227384606B0BDE8F081A36B3846BD
:1053800043F00073A36306B0BDE8F081E06B294BE6
:10539000D0F800C0226831460126C3F88C65DCF8DD
:1053A000003023F0C00343F040036D024FF0400E85
:1053B000C0F808E08032CCF80030AB08FDF73EFCC6
:1053C00030B322681A49D36B23F4067323F0020327
:1053D000D3639163A36B384643F08043A36384F89F
:1053E0003460C4F8308006B0BDE8F081836B0127DB
:1053F00043F000638363384606B0BDE8F081902334
:10540000236302F0F9F88046B8F1000FA1D1BDE79F
:105410004FF0FF3300932068059690236946CDE94D
:105420000153CDE90388474601F0F2FEA2E700BF31
:10543000FF05400000802542BD5000088D54000843
:10544000704700BF10B5846B236B822B10D023688C
:10545000DA6A40F23A5022F00802DA6201219863D7
:10546000002384F834102046236303F0E1FE10BDCE
:10547000206802F0FFF903460028E8D0A26B13432E
:105480002046A363FFF7DCFFE1E700BF10B5846BA4
:10549000FDF75EFD02280AD0D4E90F235B6D526D43
:1054A000012B05D0012A03D02046FFF7C9FF10BD0C
:1054B0002068154B8363C36B216D23F49D73C36315
:1054C000A36B43F080430904A36302F05FFE01462F
:1054D00058B1A36B1943A1630122002384F834203F
:1054E00020462363FFF7ACFFE1E7206801F08CFE64
:1054F000C0F3432005380128EED8206802F0BAF93D
:10550000A36B1843A063E7E7FF05400038B5846B41
:10551000216D206840F23A538363090402F036FE9D
:10552000054680B1A06B012228430023A06384F8C4
:1055300034202363A36B204613B903F071FE38BDFA
:10554000FFF77EFF38BD2068294601F05DFEC0F3FD
:10555000432001230538984284F834302563E9D884
:10556000206802F087F9A36B1843A063E2E700BF4D
:105570002DE9F04104460068256B436B1A0482B0A4
:105580001DD52B0700F1C080436BDB056BD54FF4B5
:1055900080738363C36B23F4434323F03A03C363F1
:1055A000C36A23F00103C362290605D5AA0600F1E8
:1055B000FA80AB0700F0C98002B0BDE8F081436B10
:1055C000DF0523D54FF480738363C36B23F4434318
:1055D00023F03A03C363C36A2E0723F00103C362B7
:1055E000E2D515F0220F40F0BE8040F23A538363BB
:1055F0000122002384F8342020462363AC0700F006
:10560000AD8003F015FE02B0BDE8F081436B5F048E
:105610002AD52E0728D5666A002ECDD0276A07F135
:10562000040807F1240500E0206818F8043C019301
:1056300018F8032C43EA0223019318F8022C43EADA
:105640000243019318F8012C01A943EA026308F10F
:105650000408019301F0CAFDA845E5D12037203E9A
:10566000C4E90876A8E7436B426B40F23A231A423A
:10567000A2D0436B990703D5A36B43F00203A36346
:10568000436B1A0703D5A36B43F00803A363436B73
:105690009B0603D5A36B43F02003A363436BDF0694
:1056A00003D5A36B43F01003A363436B9E0503D59F
:1056B000A36B43F00803A36340F23A738363C36BA5
:1056C00023F44E7323F00203C36302F0D3F8A36BF9
:1056D000290740EA0300A0634BD42A067FF56CAF8C
:1056E00015F0300F55D115F0030569D0206C394BFA
:1056F0000365FDF72BFB00283FF45EAF206C02B082
:10570000BDE8F041FFF702BFE66A002E3FF454AF58
:10571000A76A07F1040807F1240500E0206801F0FA
:1057200061FD08F8040C020A030C000E08F8032CB3
:1057300008F8023C08F8010C08F10408A845EDD16E
:105740002037203EC4E90A7636E72268D36A012171
:1057500023F00803D362204684F8341003F064FD7C
:1057600002B0BDE8F08102F085F8034650B9206828
:105770003BE70122002384F8342020462363FFF70F
:105780005FFE19E7A26B13432046A363FFF758FEA1
:10579000EDE7E06B104B0365FDF7D8FA00283FF406
:1057A0000BAFE06BABE702F065F8034600283FF46F
:1057B00000AFA26B13432046A363FFF741FEF8E658
:1057C0000123A563204684F83430256303F028FDC7
:1057D000F2E600BFDD5700080D55000838B5846BB0
:1057E000216D206840F23A538363090402F0CEFC35
:1057F000054680B1A06B012228430023A06384F8F2
:1058000034202363A36B204613B903F009FD38BD90
:10581000FFF716FE38BD2068294601F0F5FCC0F3FD
:10582000432001230538984284F834302563E9D8B1
:10583000206802F01FF8A36B1843A063E2E700BFE3
:10584000426E10B40346940FC2F383600C7048702C
:10585000C2F30164C2F307408C70C870C2F3072022
:10586000D2B208714A719A6E140DCC80C2F303440F
:105870000C72C2F3C0344C72C2F380348C72C2F327
:105880004034CC720020C2F300340C734873586C5F
:1058900000286FD1D86E40F6FC7404EA820242EA16
:1058A0009072C0F3C2640A610C75C0F34252C0F337
:1058B00002644C758A75C0F38244C0F3C232CC7561
:1058C0000A760A690C7E04F007040132023402FAF7
:1058D00004F45C650A7A02F00F0C012202FA0CF261
:1058E0009A65520A04FB02F24FF40074C3E91724CC
:1058F000C0F38034C0F3C61200F07F004C768A7685
:10590000C8761B6FDC0FC3F341720C774A77C3F381
:105910008264C3F383528C770020CA77C3F3405468
:10592000C3F3004281F8204081F82100C3F3C03462
:1059300081F82220C3F3803281F8234081F82420AB
:10594000C3F34034C3F3003281F8254081F82620A8
:10595000C3F38124C3F3012281F82740C3F3460334
:1059600081F82820012281F8293081F82A205DF869
:10597000044B7047012810D1D86E120402F47C1237
:1059800042EA10420A610A6901324FF4007492023D
:10599000C3E916425A651C66AAE71A68064991636C
:1059A0009A6B012142F080529A6383F834100846C2
:1059B0005DF8044B704700BFFF054000F0B50022C2
:1059C00099B0002500247623CDE90845CDE90A23C6
:1059D00009ABCDE90645054693E807008DE80700C9
:1059E00006AB0ECB286801F0E1FB18B1012630466A
:1059F00019B0F0BD7C4E044601272868C6F8A040C7
:105A000001F0FAFB0220C6F8A070FCF781FD2868BF
:105A1000059402F075F8044658B9286802F096F823
:105A200080B9AF642868002102F0CCF8A0B14FF033
:105A30008054012685F83460AB6B30461C43AC6360
:105A400019B0F0BD2868AC6402F05AF8002840F0A4
:105A5000C680AB6C012BE5D0059A4FF6FE739A42D7
:105A60001FD8624E4FF6FE7712E0286802F04AF91E
:105A700021460028DBD1286801F0C6FB059B0133D5
:105A80000593059BBB4204464FEAD07209D842B940
:105A90000021286802F096F8314604460028E4D038
:105AA000C7E7059A4FF6FE739A4200F29A80C4F354
:105AB0008074012328686C64ADF8123001F0A0FBFB
:105AC000002800F086806B6C032B31D104212868FC
:105AD00001F09AFB000DE8640DA92846FFF7B0FE1F
:105AE0000646002878D12A6D28681204334601F052
:105AF00067FF08BB2A462B1D52F8104B07CA8DE8DA
:105B0000070020460ECB01F051FB28684FF40071CE
